{
	"MedicalRecord.sol": {
		"MedicalRecord": {
			"abi": [
				{
					"inputs": [
						{
							"internalType": "string",
							"name": "_patientId",
							"type": "string"
						},
						{
							"internalType": "string",
							"name": "_doctorName",
							"type": "string"
						},
						{
							"internalType": "string",
							"name": "_disease",
							"type": "string"
						},
						{
							"internalType": "string",
							"name": "_cid",
							"type": "string"
						},
						{
							"internalType": "uint256",
							"name": "_timestamp",
							"type": "uint256"
						}
					],
					"name": "addPrescription",
					"outputs": [],
					"stateMutability": "nonpayable",
					"type": "function"
				},
				{
					"inputs": [
						{
							"internalType": "string",
							"name": "",
							"type": "string"
						},
						{
							"internalType": "uint256",
							"name": "",
							"type": "uint256"
						}
					],
					"name": "consentLog",
					"outputs": [
						{
							"internalType": "string",
							"name": "granteeId",
							"type": "string"
						},
						{
							"internalType": "string",
							"name": "accessLevel",
							"type": "string"
						},
						{
							"internalType": "uint256",
							"name": "duration",
							"type": "uint256"
						},
						{
							"internalType": "string",
							"name": "status",
							"type": "string"
						},
						{
							"internalType": "uint256",
							"name": "timestamp",
							"type": "uint256"
						}
					],
					"stateMutability": "view",
					"type": "function"
				},
				{
					"inputs": [
						{
							"internalType": "string",
							"name": "_patientId",
							"type": "string"
						}
					],
					"name": "getConsentLog",
					"outputs": [
						{
							"components": [
								{
									"internalType": "string",
									"name": "granteeId",
									"type": "string"
								},
								{
									"internalType": "string",
									"name": "accessLevel",
									"type": "string"
								},
								{
									"internalType": "uint256",
									"name": "duration",
									"type": "uint256"
								},
								{
									"internalType": "string",
									"name": "status",
									"type": "string"
								},
								{
									"internalType": "uint256",
									"name": "timestamp",
									"type": "uint256"
								}
							],
							"internalType": "struct MedicalRecord.Consent[]",
							"name": "",
							"type": "tuple[]"
						}
					],
					"stateMutability": "view",
					"type": "function"
				},
				{
					"inputs": [
						{
							"internalType": "string",
							"name": "_patientId",
							"type": "string"
						}
					],
					"name": "getHistory",
					"outputs": [
						{
							"components": [
								{
									"internalType": "string",
									"name": "doctorName",
									"type": "string"
								},
								{
									"internalType": "string",
									"name": "disease",
									"type": "string"
								},
								{
									"internalType": "string",
									"name": "cid",
									"type": "string"
								},
								{
									"internalType": "uint256",
									"name": "timestamp",
									"type": "uint256"
								}
							],
							"internalType": "struct MedicalRecord.Prescription[]",
							"name": "",
							"type": "tuple[]"
						}
					],
					"stateMutability": "view",
					"type": "function"
				},
				{
					"inputs": [
						{
							"internalType": "string",
							"name": "_patientId",
							"type": "string"
						},
						{
							"internalType": "string",
							"name": "_granteeId",
							"type": "string"
						},
						{
							"internalType": "string",
							"name": "_accessLevel",
							"type": "string"
						},
						{
							"internalType": "uint256",
							"name": "_duration",
							"type": "uint256"
						},
						{
							"internalType": "string",
							"name": "_status",
							"type": "string"
						}
					],
					"name": "manageConsent",
					"outputs": [],
					"stateMutability": "nonpayable",
					"type": "function"
				},
				{
					"inputs": [
						{
							"internalType": "string",
							"name": "",
							"type": "string"
						},
						{
							"internalType": "uint256",
							"name": "",
							"type": "uint256"
						}
					],
					"name": "records",
					"outputs": [
						{
							"internalType": "string",
							"name": "doctorName",
							"type": "string"
						},
						{
							"internalType": "string",
							"name": "disease",
							"type": "string"
						},
						{
							"internalType": "string",
							"name": "cid",
							"type": "string"
						},
						{
							"internalType": "uint256",
							"name": "timestamp",
							"type": "uint256"
						}
					],
					"stateMutability": "view",
					"type": "function"
				}
			],
			"devdoc": {
				"details": "A smart contract to store medical record metadata and manage patient consent. The actual medical files are stored on IPFS, and this contract only stores the IPFS CID (Content ID) along with other metadata and consent logs.",
				"kind": "dev",
				"methods": {
					"addPrescription(string,string,string,string,uint256)": {
						"details": "Adds a new prescription record for a given patient. This is a \"write\" operation and will cost gas to execute."
					},
					"getConsentLog(string)": {
						"details": "Retrieves the entire consent history for a given patient. This is a \"view\" (read-only) function, so it does not cost any gas to call."
					},
					"getHistory(string)": {
						"details": "Retrieves the entire medical history for a given patient. This is a \"view\" function. Access control is handled by the backend."
					},
					"manageConsent(string,string,string,uint256,string)": {
						"details": "Adds a new consent entry to the patient's log. Can be used for granting or revoking. This is a \"write\" operation and will cost gas to execute."
					}
				},
				"title": "MedicalRecord",
				"version": 1
			},
			"evm": {
				"assembly": "    /* \"MedicalRecord.sol\":326:3430  contract MedicalRecord {... */\n  mstore(0x40, 0x80)\n  callvalue\n  dup1\n  iszero\n  tag_1\n  jumpi\n  0x00\n  dup1\n  revert\ntag_1:\n  pop\n  dataSize(sub_0)\n  dup1\n  dataOffset(sub_0)\n  0x00\n  codecopy\n  0x00\n  return\nstop\n\nsub_0: assembly {\n        /* \"MedicalRecord.sol\":326:3430  contract MedicalRecord {... */\n      mstore(0x40, 0x80)\n      callvalue\n      dup1\n      iszero\n      tag_1\n      jumpi\n      0x00\n      dup1\n      revert\n    tag_1:\n      pop\n      jumpi(tag_2, lt(calldatasize, 0x04))\n      shr(0xe0, calldataload(0x00))\n      dup1\n      0x05f3112d\n      eq\n      tag_3\n      jumpi\n      dup1\n      0x3b51650d\n      eq\n      tag_4\n      jumpi\n      dup1\n      0x7079d3a0\n      eq\n      tag_5\n      jumpi\n      dup1\n      0xadaca9ed\n      eq\n      tag_6\n      jumpi\n      dup1\n      0xc4734a09\n      eq\n      tag_7\n      jumpi\n      dup1\n      0xe360736e\n      eq\n      tag_8\n      jumpi\n    tag_2:\n      0x00\n      dup1\n      revert\n        /* \"MedicalRecord.sol\":3294:3428  function getConsentLog(string memory _patientId) public view returns (Consent[] memory) {... */\n    tag_3:\n      tag_9\n      0x04\n      dup1\n      calldatasize\n      sub\n      dup2\n      add\n      swap1\n      tag_10\n      swap2\n      swap1\n      tag_11\n      jump\t// in\n    tag_10:\n      tag_12\n      jump\t// in\n    tag_9:\n      mload(0x40)\n      tag_13\n      swap2\n      swap1\n      tag_14\n      jump\t// in\n    tag_13:\n      mload(0x40)\n      dup1\n      swap2\n      sub\n      swap1\n      return\n        /* \"MedicalRecord.sol\":1273:1321  mapping(string => Prescription[]) public records */\n    tag_4:\n      tag_15\n      0x04\n      dup1\n      calldatasize\n      sub\n      dup2\n      add\n      swap1\n      tag_16\n      swap2\n      swap1\n      tag_17\n      jump\t// in\n    tag_16:\n      tag_18\n      jump\t// in\n    tag_15:\n      mload(0x40)\n      tag_19\n      swap5\n      swap4\n      swap3\n      swap2\n      swap1\n      tag_20\n      jump\t// in\n    tag_19:\n      mload(0x40)\n      dup1\n      swap2\n      sub\n      swap1\n      return\n        /* \"MedicalRecord.sol\":2278:2753  function manageConsent(... */\n    tag_5:\n      tag_21\n      0x04\n      dup1\n      calldatasize\n      sub\n      dup2\n      add\n      swap1\n      tag_22\n      swap2\n      swap1\n      tag_23\n      jump\t// in\n    tag_22:\n      tag_24\n      jump\t// in\n    tag_21:\n      stop\n        /* \"MedicalRecord.sol\":1646:2034  function addPrescription(... */\n    tag_6:\n      tag_25\n      0x04\n      dup1\n      calldatasize\n      sub\n      dup2\n      add\n      swap1\n      tag_26\n      swap2\n      swap1\n      tag_27\n      jump\t// in\n    tag_26:\n      tag_28\n      jump\t// in\n    tag_25:\n      stop\n        /* \"MedicalRecord.sol\":1448:1494  mapping(string => Consent[]) public consentLog */\n    tag_7:\n      tag_29\n      0x04\n      dup1\n      calldatasize\n      sub\n      dup2\n      add\n      swap1\n      tag_30\n      swap2\n      swap1\n      tag_17\n      jump\t// in\n    tag_30:\n      tag_31\n      jump\t// in\n    tag_29:\n      mload(0x40)\n      tag_32\n      swap6\n      swap5\n      swap4\n      swap3\n      swap2\n      swap1\n      tag_33\n      jump\t// in\n    tag_32:\n      mload(0x40)\n      dup1\n      swap2\n      sub\n      swap1\n      return\n        /* \"MedicalRecord.sol\":2921:3054  function getHistory(string memory _patientId) public view returns (Prescription[] memory) {... */\n    tag_8:\n      tag_34\n      0x04\n      dup1\n      calldatasize\n      sub\n      dup2\n      add\n      swap1\n      tag_35\n      swap2\n      swap1\n      tag_11\n      jump\t// in\n    tag_35:\n      tag_36\n      jump\t// in\n    tag_34:\n      mload(0x40)\n      tag_37\n      swap2\n      swap1\n      tag_38\n      jump\t// in\n    tag_37:\n      mload(0x40)\n      dup1\n      swap2\n      sub\n      swap1\n      return\n        /* \"MedicalRecord.sol\":3294:3428  function getConsentLog(string memory _patientId) public view returns (Consent[] memory) {... */\n    tag_12:\n        /* \"MedicalRecord.sol\":3364:3380  Consent[] memory */\n      0x60\n        /* \"MedicalRecord.sol\":3399:3409  consentLog */\n      0x01\n        /* \"MedicalRecord.sol\":3410:3420  _patientId */\n      dup3\n        /* \"MedicalRecord.sol\":3399:3421  consentLog[_patientId] */\n      mload(0x40)\n      tag_40\n      swap2\n      swap1\n      tag_41\n      jump\t// in\n    tag_40:\n      swap1\n      dup2\n      mstore\n      0x20\n      add\n      mload(0x40)\n      dup1\n      swap2\n      sub\n      swap1\n      keccak256\n        /* \"MedicalRecord.sol\":3392:3421  return consentLog[_patientId] */\n      dup1\n      sload\n      dup1\n      0x20\n      mul\n      0x20\n      add\n      mload(0x40)\n      swap1\n      dup2\n      add\n      0x40\n      mstore\n      dup1\n      swap3\n      swap2\n      swap1\n      dup2\n      dup2\n      mstore\n      0x20\n      add\n      0x00\n      swap1\n    tag_42:\n      dup3\n      dup3\n      lt\n      iszero\n      tag_43\n      jumpi\n      dup4\n      dup3\n      swap1\n      0x00\n      mstore\n      keccak256(0x00, 0x20)\n      swap1\n      0x05\n      mul\n      add\n      mload(0x40)\n      dup1\n      0xa0\n      add\n      0x40\n      mstore\n      swap1\n      dup2\n      0x00\n      dup3\n      add\n      dup1\n      sload\n      tag_45\n      swap1\n      tag_46\n      jump\t// in\n    tag_45:\n      dup1\n      0x1f\n      add\n      0x20\n      dup1\n      swap2\n      div\n      mul\n      0x20\n      add\n      mload(0x40)\n      swap1\n      dup2\n      add\n      0x40\n      mstore\n      dup1\n      swap3\n      swap2\n      swap1\n      dup2\n      dup2\n      mstore\n      0x20\n      add\n      dup3\n      dup1\n      sload\n      tag_47\n      swap1\n      tag_46\n      jump\t// in\n    tag_47:\n      dup1\n      iszero\n      tag_48\n      jumpi\n      dup1\n      0x1f\n      lt\n      tag_49\n      jumpi\n      0x0100\n      dup1\n      dup4\n      sload\n      div\n      mul\n      dup4\n      mstore\n      swap2\n      0x20\n      add\n      swap2\n      jump(tag_48)\n    tag_49:\n      dup3\n      add\n      swap2\n      swap1\n      0x00\n      mstore\n      keccak256(0x00, 0x20)\n      swap1\n    tag_50:\n      dup2\n      sload\n      dup2\n      mstore\n      swap1\n      0x01\n      add\n      swap1\n      0x20\n      add\n      dup1\n      dup4\n      gt\n      tag_50\n      jumpi\n      dup3\n      swap1\n      sub\n      0x1f\n      and\n      dup3\n      add\n      swap2\n    tag_48:\n      pop\n      pop\n      pop\n      pop\n      pop\n      dup2\n      mstore\n      0x20\n      add\n      0x01\n      dup3\n      add\n      dup1\n      sload\n      tag_51\n      swap1\n      tag_46\n      jump\t// in\n    tag_51:\n      dup1\n      0x1f\n      add\n      0x20\n      dup1\n      swap2\n      div\n      mul\n      0x20\n      add\n      mload(0x40)\n      swap1\n      dup2\n      add\n      0x40\n      mstore\n      dup1\n      swap3\n      swap2\n      swap1\n      dup2\n      dup2\n      mstore\n      0x20\n      add\n      dup3\n      dup1\n      sload\n      tag_52\n      swap1\n      tag_46\n      jump\t// in\n    tag_52:\n      dup1\n      iszero\n      tag_53\n      jumpi\n      dup1\n      0x1f\n      lt\n      tag_54\n      jumpi\n      0x0100\n      dup1\n      dup4\n      sload\n      div\n      mul\n      dup4\n      mstore\n      swap2\n      0x20\n      add\n      swap2\n      jump(tag_53)\n    tag_54:\n      dup3\n      add\n      swap2\n      swap1\n      0x00\n      mstore\n      keccak256(0x00, 0x20)\n      swap1\n    tag_55:\n      dup2\n      sload\n      dup2\n      mstore\n      swap1\n      0x01\n      add\n      swap1\n      0x20\n      add\n      dup1\n      dup4\n      gt\n      tag_55\n      jumpi\n      dup3\n      swap1\n      sub\n      0x1f\n      and\n      dup3\n      add\n      swap2\n    tag_53:\n      pop\n      pop\n      pop\n      pop\n      pop\n      dup2\n      mstore\n      0x20\n      add\n      0x02\n      dup3\n      add\n      sload\n      dup2\n      mstore\n      0x20\n      add\n      0x03\n      dup3\n      add\n      dup1\n      sload\n      tag_56\n      swap1\n      tag_46\n      jump\t// in\n    tag_56:\n      dup1\n      0x1f\n      add\n      0x20\n      dup1\n      swap2\n      div\n      mul\n      0x20\n      add\n      mload(0x40)\n      swap1\n      dup2\n      add\n      0x40\n      mstore\n      dup1\n      swap3\n      swap2\n      swap1\n      dup2\n      dup2\n      mstore\n      0x20\n      add\n      dup3\n      dup1\n      sload\n      tag_57\n      swap1\n      tag_46\n      jump\t// in\n    tag_57:\n      dup1\n      iszero\n      tag_58\n      jumpi\n      dup1\n      0x1f\n      lt\n      tag_59\n      jumpi\n      0x0100\n      dup1\n      dup4\n      sload\n      div\n      mul\n      dup4\n      mstore\n      swap2\n      0x20\n      add\n      swap2\n      jump(tag_58)\n    tag_59:\n      dup3\n      add\n      swap2\n      swap1\n      0x00\n      mstore\n      keccak256(0x00, 0x20)\n      swap1\n    tag_60:\n      dup2\n      sload\n      dup2\n      mstore\n      swap1\n      0x01\n      add\n      swap1\n      0x20\n      add\n      dup1\n      dup4\n      gt\n      tag_60\n      jumpi\n      dup3\n      swap1\n      sub\n      0x1f\n      and\n      dup3\n      add\n      swap2\n    tag_58:\n      pop\n      pop\n      pop\n      pop\n      pop\n      dup2\n      mstore\n      0x20\n      add\n      0x04\n      dup3\n      add\n      sload\n      dup2\n      mstore\n      pop\n      pop\n      dup2\n      mstore\n      0x20\n      add\n      swap1\n      0x01\n      add\n      swap1\n      jump(tag_42)\n    tag_43:\n      pop\n      pop\n      pop\n      pop\n      swap1\n      pop\n        /* \"MedicalRecord.sol\":3294:3428  function getConsentLog(string memory _patientId) public view returns (Consent[] memory) {... */\n      swap2\n      swap1\n      pop\n      jump\t// out\n        /* \"MedicalRecord.sol\":1273:1321  mapping(string => Prescription[]) public records */\n    tag_18:\n      0x00\n      dup3\n      dup1\n      mload\n      0x20\n      dup2\n      add\n      dup3\n      add\n      dup1\n      mload\n      dup5\n      dup3\n      mstore\n      0x20\n      dup4\n      add\n      0x20\n      dup6\n      add\n      keccak256\n      dup2\n      dup4\n      mstore\n      dup1\n      swap6\n      pop\n      pop\n      pop\n      pop\n      pop\n      pop\n      dup2\n      dup2\n      sload\n      dup2\n      lt\n      tag_61\n      jumpi\n      0x00\n      dup1\n      revert\n    tag_61:\n      swap1\n      0x00\n      mstore\n      keccak256(0x00, 0x20)\n      swap1\n      0x04\n      mul\n      add\n      0x00\n      swap2\n      pop\n      swap2\n      pop\n      pop\n      dup1\n      0x00\n      add\n      dup1\n      sload\n      tag_63\n      swap1\n      tag_46\n      jump\t// in\n    tag_63:\n      dup1\n      0x1f\n      add\n      0x20\n      dup1\n      swap2\n      div\n      mul\n      0x20\n      add\n      mload(0x40)\n      swap1\n      dup2\n      add\n      0x40\n      mstore\n      dup1\n      swap3\n      swap2\n      swap1\n      dup2\n      dup2\n      mstore\n      0x20\n      add\n      dup3\n      dup1\n      sload\n      tag_64\n      swap1\n      tag_46\n      jump\t// in\n    tag_64:\n      dup1\n      iszero\n      tag_65\n      jumpi\n      dup1\n      0x1f\n      lt\n      tag_66\n      jumpi\n      0x0100\n      dup1\n      dup4\n      sload\n      div\n      mul\n      dup4\n      mstore\n      swap2\n      0x20\n      add\n      swap2\n      jump(tag_65)\n    tag_66:\n      dup3\n      add\n      swap2\n      swap1\n      0x00\n      mstore\n      keccak256(0x00, 0x20)\n      swap1\n    tag_67:\n      dup2\n      sload\n      dup2\n      mstore\n      swap1\n      0x01\n      add\n      swap1\n      0x20\n      add\n      dup1\n      dup4\n      gt\n      tag_67\n      jumpi\n      dup3\n      swap1\n      sub\n      0x1f\n      and\n      dup3\n      add\n      swap2\n    tag_65:\n      pop\n      pop\n      pop\n      pop\n      pop\n      swap1\n      dup1\n      0x01\n      add\n      dup1\n      sload\n      tag_68\n      swap1\n      tag_46\n      jump\t// in\n    tag_68:\n      dup1\n      0x1f\n      add\n      0x20\n      dup1\n      swap2\n      div\n      mul\n      0x20\n      add\n      mload(0x40)\n      swap1\n      dup2\n      add\n      0x40\n      mstore\n      dup1\n      swap3\n      swap2\n      swap1\n      dup2\n      dup2\n      mstore\n      0x20\n      add\n      dup3\n      dup1\n      sload\n      tag_69\n      swap1\n      tag_46\n      jump\t// in\n    tag_69:\n      dup1\n      iszero\n      tag_70\n      jumpi\n      dup1\n      0x1f\n      lt\n      tag_71\n      jumpi\n      0x0100\n      dup1\n      dup4\n      sload\n      div\n      mul\n      dup4\n      mstore\n      swap2\n      0x20\n      add\n      swap2\n      jump(tag_70)\n    tag_71:\n      dup3\n      add\n      swap2\n      swap1\n      0x00\n      mstore\n      keccak256(0x00, 0x20)\n      swap1\n    tag_72:\n      dup2\n      sload\n      dup2\n      mstore\n      swap1\n      0x01\n      add\n      swap1\n      0x20\n      add\n      dup1\n      dup4\n      gt\n      tag_72\n      jumpi\n      dup3\n      swap1\n      sub\n      0x1f\n      and\n      dup3\n      add\n      swap2\n    tag_70:\n      pop\n      pop\n      pop\n      pop\n      pop\n      swap1\n      dup1\n      0x02\n      add\n      dup1\n      sload\n      tag_73\n      swap1\n      tag_46\n      jump\t// in\n    tag_73:\n      dup1\n      0x1f\n      add\n      0x20\n      dup1\n      swap2\n      div\n      mul\n      0x20\n      add\n      mload(0x40)\n      swap1\n      dup2\n      add\n      0x40\n      mstore\n      dup1\n      swap3\n      swap2\n      swap1\n      dup2\n      dup2\n      mstore\n      0x20\n      add\n      dup3\n      dup1\n      sload\n      tag_74\n      swap1\n      tag_46\n      jump\t// in\n    tag_74:\n      dup1\n      iszero\n      tag_75\n      jumpi\n      dup1\n      0x1f\n      lt\n      tag_76\n      jumpi\n      0x0100\n      dup1\n      dup4\n      sload\n      div\n      mul\n      dup4\n      mstore\n      swap2\n      0x20\n      add\n      swap2\n      jump(tag_75)\n    tag_76:\n      dup3\n      add\n      swap2\n      swap1\n      0x00\n      mstore\n      keccak256(0x00, 0x20)\n      swap1\n    tag_77:\n      dup2\n      sload\n      dup2\n      mstore\n      swap1\n      0x01\n      add\n      swap1\n      0x20\n      add\n      dup1\n      dup4\n      gt\n      tag_77\n      jumpi\n      dup3\n      swap1\n      sub\n      0x1f\n      and\n      dup3\n      add\n      swap2\n    tag_75:\n      pop\n      pop\n      pop\n      pop\n      pop\n      swap1\n      dup1\n      0x03\n      add\n      sload\n      swap1\n      pop\n      dup5\n      jump\t// out\n        /* \"MedicalRecord.sol\":2278:2753  function manageConsent(... */\n    tag_24:\n        /* \"MedicalRecord.sol\":2486:2496  consentLog */\n      0x01\n        /* \"MedicalRecord.sol\":2497:2507  _patientId */\n      dup6\n        /* \"MedicalRecord.sol\":2486:2508  consentLog[_patientId] */\n      mload(0x40)\n      tag_79\n      swap2\n      swap1\n      tag_41\n      jump\t// in\n    tag_79:\n      swap1\n      dup2\n      mstore\n      0x20\n      add\n      mload(0x40)\n      dup1\n      swap2\n      sub\n      swap1\n      keccak256\n        /* \"MedicalRecord.sol\":2514:2745  Consent({... */\n      mload(0x40)\n      dup1\n      0xa0\n      add\n      0x40\n      mstore\n      dup1\n        /* \"MedicalRecord.sol\":2547:2557  _granteeId */\n      dup7\n        /* \"MedicalRecord.sol\":2514:2745  Consent({... */\n      dup2\n      mstore\n      0x20\n      add\n        /* \"MedicalRecord.sol\":2584:2596  _accessLevel */\n      dup6\n        /* \"MedicalRecord.sol\":2514:2745  Consent({... */\n      dup2\n      mstore\n      0x20\n      add\n        /* \"MedicalRecord.sol\":2620:2629  _duration */\n      dup5\n        /* \"MedicalRecord.sol\":2514:2745  Consent({... */\n      dup2\n      mstore\n      0x20\n      add\n        /* \"MedicalRecord.sol\":2651:2658  _status */\n      dup4\n        /* \"MedicalRecord.sol\":2514:2745  Consent({... */\n      dup2\n      mstore\n      0x20\n      add\n        /* \"MedicalRecord.sol\":2719:2734  block.timestamp */\n      timestamp\n        /* \"MedicalRecord.sol\":2514:2745  Consent({... */\n      dup2\n      mstore\n      pop\n        /* \"MedicalRecord.sol\":2486:2746  consentLog[_patientId].push(Consent({... */\n      swap1\n      dup1\n      0x01\n      dup2\n      sload\n      add\n      dup1\n      dup3\n      sstore\n      dup1\n      swap2\n      pop\n      pop\n      0x01\n      swap1\n      sub\n      swap1\n      0x00\n      mstore\n      keccak256(0x00, 0x20)\n      swap1\n      0x05\n      mul\n      add\n      0x00\n      swap1\n      swap2\n      swap1\n      swap2\n      swap1\n      swap2\n      pop\n      0x00\n      dup3\n      add\n      mload\n      dup2\n      0x00\n      add\n      swap1\n      dup2\n      tag_81\n      swap2\n      swap1\n      tag_82\n      jump\t// in\n    tag_81:\n      pop\n      0x20\n      dup3\n      add\n      mload\n      dup2\n      0x01\n      add\n      swap1\n      dup2\n      tag_83\n      swap2\n      swap1\n      tag_82\n      jump\t// in\n    tag_83:\n      pop\n      0x40\n      dup3\n      add\n      mload\n      dup2\n      0x02\n      add\n      sstore\n      0x60\n      dup3\n      add\n      mload\n      dup2\n      0x03\n      add\n      swap1\n      dup2\n      tag_84\n      swap2\n      swap1\n      tag_82\n      jump\t// in\n    tag_84:\n      pop\n      0x80\n      dup3\n      add\n      mload\n      dup2\n      0x04\n      add\n      sstore\n      pop\n      pop\n        /* \"MedicalRecord.sol\":2278:2753  function manageConsent(... */\n      pop\n      pop\n      pop\n      pop\n      pop\n      jump\t// out\n        /* \"MedicalRecord.sol\":1646:2034  function addPrescription(... */\n    tag_28:\n        /* \"MedicalRecord.sol\":1851:1858  records */\n      0x00\n        /* \"MedicalRecord.sol\":1859:1869  _patientId */\n      dup6\n        /* \"MedicalRecord.sol\":1851:1870  records[_patientId] */\n      mload(0x40)\n      tag_86\n      swap2\n      swap1\n      tag_41\n      jump\t// in\n    tag_86:\n      swap1\n      dup2\n      mstore\n      0x20\n      add\n      mload(0x40)\n      dup1\n      swap2\n      sub\n      swap1\n      keccak256\n        /* \"MedicalRecord.sol\":1876:2026  Prescription({... */\n      mload(0x40)\n      dup1\n      0x80\n      add\n      0x40\n      mstore\n      dup1\n        /* \"MedicalRecord.sol\":1915:1926  _doctorName */\n      dup7\n        /* \"MedicalRecord.sol\":1876:2026  Prescription({... */\n      dup2\n      mstore\n      0x20\n      add\n        /* \"MedicalRecord.sol\":1949:1957  _disease */\n      dup6\n        /* \"MedicalRecord.sol\":1876:2026  Prescription({... */\n      dup2\n      mstore\n      0x20\n      add\n        /* \"MedicalRecord.sol\":1976:1980  _cid */\n      dup5\n        /* \"MedicalRecord.sol\":1876:2026  Prescription({... */\n      dup2\n      mstore\n      0x20\n      add\n        /* \"MedicalRecord.sol\":2005:2015  _timestamp */\n      dup4\n        /* \"MedicalRecord.sol\":1876:2026  Prescription({... */\n      dup2\n      mstore\n      pop\n        /* \"MedicalRecord.sol\":1851:2027  records[_patientId].push(Prescription({... */\n      swap1\n      dup1\n      0x01\n      dup2\n      sload\n      add\n      dup1\n      dup3\n      sstore\n      dup1\n      swap2\n      pop\n      pop\n      0x01\n      swap1\n      sub\n      swap1\n      0x00\n      mstore\n      keccak256(0x00, 0x20)\n      swap1\n      0x04\n      mul\n      add\n      0x00\n      swap1\n      swap2\n      swap1\n      swap2\n      swap1\n      swap2\n      pop\n      0x00\n      dup3\n      add\n      mload\n      dup2\n      0x00\n      add\n      swap1\n      dup2\n      tag_88\n      swap2\n      swap1\n      tag_82\n      jump\t// in\n    tag_88:\n      pop\n      0x20\n      dup3\n      add\n      mload\n      dup2\n      0x01\n      add\n      swap1\n      dup2\n      tag_89\n      swap2\n      swap1\n      tag_82\n      jump\t// in\n    tag_89:\n      pop\n      0x40\n      dup3\n      add\n      mload\n      dup2\n      0x02\n      add\n      swap1\n      dup2\n      tag_90\n      swap2\n      swap1\n      tag_82\n      jump\t// in\n    tag_90:\n      pop\n      0x60\n      dup3\n      add\n      mload\n      dup2\n      0x03\n      add\n      sstore\n      pop\n      pop\n        /* \"MedicalRecord.sol\":1646:2034  function addPrescription(... */\n      pop\n      pop\n      pop\n      pop\n      pop\n      jump\t// out\n        /* \"MedicalRecord.sol\":1448:1494  mapping(string => Consent[]) public consentLog */\n    tag_31:\n      0x01\n      dup3\n      dup1\n      mload\n      0x20\n      dup2\n      add\n      dup3\n      add\n      dup1\n      mload\n      dup5\n      dup3\n      mstore\n      0x20\n      dup4\n      add\n      0x20\n      dup6\n      add\n      keccak256\n      dup2\n      dup4\n      mstore\n      dup1\n      swap6\n      pop\n      pop\n      pop\n      pop\n      pop\n      pop\n      dup2\n      dup2\n      sload\n      dup2\n      lt\n      tag_91\n      jumpi\n      0x00\n      dup1\n      revert\n    tag_91:\n      swap1\n      0x00\n      mstore\n      keccak256(0x00, 0x20)\n      swap1\n      0x05\n      mul\n      add\n      0x00\n      swap2\n      pop\n      swap2\n      pop\n      pop\n      dup1\n      0x00\n      add\n      dup1\n      sload\n      tag_93\n      swap1\n      tag_46\n      jump\t// in\n    tag_93:\n      dup1\n      0x1f\n      add\n      0x20\n      dup1\n      swap2\n      div\n      mul\n      0x20\n      add\n      mload(0x40)\n      swap1\n      dup2\n      add\n      0x40\n      mstore\n      dup1\n      swap3\n      swap2\n      swap1\n      dup2\n      dup2\n      mstore\n      0x20\n      add\n      dup3\n      dup1\n      sload\n      tag_94\n      swap1\n      tag_46\n      jump\t// in\n    tag_94:\n      dup1\n      iszero\n      tag_95\n      jumpi\n      dup1\n      0x1f\n      lt\n      tag_96\n      jumpi\n      0x0100\n      dup1\n      dup4\n      sload\n      div\n      mul\n      dup4\n      mstore\n      swap2\n      0x20\n      add\n      swap2\n      jump(tag_95)\n    tag_96:\n      dup3\n      add\n      swap2\n      swap1\n      0x00\n      mstore\n      keccak256(0x00, 0x20)\n      swap1\n    tag_97:\n      dup2\n      sload\n      dup2\n      mstore\n      swap1\n      0x01\n      add\n      swap1\n      0x20\n      add\n      dup1\n      dup4\n      gt\n      tag_97\n      jumpi\n      dup3\n      swap1\n      sub\n      0x1f\n      and\n      dup3\n      add\n      swap2\n    tag_95:\n      pop\n      pop\n      pop\n      pop\n      pop\n      swap1\n      dup1\n      0x01\n      add\n      dup1\n      sload\n      tag_98\n      swap1\n      tag_46\n      jump\t// in\n    tag_98:\n      dup1\n      0x1f\n      add\n      0x20\n      dup1\n      swap2\n      div\n      mul\n      0x20\n      add\n      mload(0x40)\n      swap1\n      dup2\n      add\n      0x40\n      mstore\n      dup1\n      swap3\n      swap2\n      swap1\n      dup2\n      dup2\n      mstore\n      0x20\n      add\n      dup3\n      dup1\n      sload\n      tag_99\n      swap1\n      tag_46\n      jump\t// in\n    tag_99:\n      dup1\n      iszero\n      tag_100\n      jumpi\n      dup1\n      0x1f\n      lt\n      tag_101\n      jumpi\n      0x0100\n      dup1\n      dup4\n      sload\n      div\n      mul\n      dup4\n      mstore\n      swap2\n      0x20\n      add\n      swap2\n      jump(tag_100)\n    tag_101:\n      dup3\n      add\n      swap2\n      swap1\n      0x00\n      mstore\n      keccak256(0x00, 0x20)\n      swap1\n    tag_102:\n      dup2\n      sload\n      dup2\n      mstore\n      swap1\n      0x01\n      add\n      swap1\n      0x20\n      add\n      dup1\n      dup4\n      gt\n      tag_102\n      jumpi\n      dup3\n      swap1\n      sub\n      0x1f\n      and\n      dup3\n      add\n      swap2\n    tag_100:\n      pop\n      pop\n      pop\n      pop\n      pop\n      swap1\n      dup1\n      0x02\n      add\n      sload\n      swap1\n      dup1\n      0x03\n      add\n      dup1\n      sload\n      tag_103\n      swap1\n      tag_46\n      jump\t// in\n    tag_103:\n      dup1\n      0x1f\n      add\n      0x20\n      dup1\n      swap2\n      div\n      mul\n      0x20\n      add\n      mload(0x40)\n      swap1\n      dup2\n      add\n      0x40\n      mstore\n      dup1\n      swap3\n      swap2\n      swap1\n      dup2\n      dup2\n      mstore\n      0x20\n      add\n      dup3\n      dup1\n      sload\n      tag_104\n      swap1\n      tag_46\n      jump\t// in\n    tag_104:\n      dup1\n      iszero\n      tag_105\n      jumpi\n      dup1\n      0x1f\n      lt\n      tag_106\n      jumpi\n      0x0100\n      dup1\n      dup4\n      sload\n      div\n      mul\n      dup4\n      mstore\n      swap2\n      0x20\n      add\n      swap2\n      jump(tag_105)\n    tag_106:\n      dup3\n      add\n      swap2\n      swap1\n      0x00\n      mstore\n      keccak256(0x00, 0x20)\n      swap1\n    tag_107:\n      dup2\n      sload\n      dup2\n      mstore\n      swap1\n      0x01\n      add\n      swap1\n      0x20\n      add\n      dup1\n      dup4\n      gt\n      tag_107\n      jumpi\n      dup3\n      swap1\n      sub\n      0x1f\n      and\n      dup3\n      add\n      swap2\n    tag_105:\n      pop\n      pop\n      pop\n      pop\n      pop\n      swap1\n      dup1\n      0x04\n      add\n      sload\n      swap1\n      pop\n      dup6\n      jump\t// out\n        /* \"MedicalRecord.sol\":2921:3054  function getHistory(string memory _patientId) public view returns (Prescription[] memory) {... */\n    tag_36:\n        /* \"MedicalRecord.sol\":2988:3009  Prescription[] memory */\n      0x60\n        /* \"MedicalRecord.sol\":3028:3035  records */\n      0x00\n        /* \"MedicalRecord.sol\":3036:3046  _patientId */\n      dup3\n        /* \"MedicalRecord.sol\":3028:3047  records[_patientId] */\n      mload(0x40)\n      tag_109\n      swap2\n      swap1\n      tag_41\n      jump\t// in\n    tag_109:\n      swap1\n      dup2\n      mstore\n      0x20\n      add\n      mload(0x40)\n      dup1\n      swap2\n      sub\n      swap1\n      keccak256\n        /* \"MedicalRecord.sol\":3021:3047  return records[_patientId] */\n      dup1\n      sload\n      dup1\n      0x20\n      mul\n      0x20\n      add\n      mload(0x40)\n      swap1\n      dup2\n      add\n      0x40\n      mstore\n      dup1\n      swap3\n      swap2\n      swap1\n      dup2\n      dup2\n      mstore\n      0x20\n      add\n      0x00\n      swap1\n    tag_110:\n      dup3\n      dup3\n      lt\n      iszero\n      tag_111\n      jumpi\n      dup4\n      dup3\n      swap1\n      0x00\n      mstore\n      keccak256(0x00, 0x20)\n      swap1\n      0x04\n      mul\n      add\n      mload(0x40)\n      dup1\n      0x80\n      add\n      0x40\n      mstore\n      swap1\n      dup2\n      0x00\n      dup3\n      add\n      dup1\n      sload\n      tag_113\n      swap1\n      tag_46\n      jump\t// in\n    tag_113:\n      dup1\n      0x1f\n      add\n      0x20\n      dup1\n      swap2\n      div\n      mul\n      0x20\n      add\n      mload(0x40)\n      swap1\n      dup2\n      add\n      0x40\n      mstore\n      dup1\n      swap3\n      swap2\n      swap1\n      dup2\n      dup2\n      mstore\n      0x20\n      add\n      dup3\n      dup1\n      sload\n      tag_114\n      swap1\n      tag_46\n      jump\t// in\n    tag_114:\n      dup1\n      iszero\n      tag_115\n      jumpi\n      dup1\n      0x1f\n      lt\n      tag_116\n      jumpi\n      0x0100\n      dup1\n      dup4\n      sload\n      div\n      mul\n      dup4\n      mstore\n      swap2\n      0x20\n      add\n      swap2\n      jump(tag_115)\n    tag_116:\n      dup3\n      add\n      swap2\n      swap1\n      0x00\n      mstore\n      keccak256(0x00, 0x20)\n      swap1\n    tag_117:\n      dup2\n      sload\n      dup2\n      mstore\n      swap1\n      0x01\n      add\n      swap1\n      0x20\n      add\n      dup1\n      dup4\n      gt\n      tag_117\n      jumpi\n      dup3\n      swap1\n      sub\n      0x1f\n      and\n      dup3\n      add\n      swap2\n    tag_115:\n      pop\n      pop\n      pop\n      pop\n      pop\n      dup2\n      mstore\n      0x20\n      add\n      0x01\n      dup3\n      add\n      dup1\n      sload\n      tag_118\n      swap1\n      tag_46\n      jump\t// in\n    tag_118:\n      dup1\n      0x1f\n      add\n      0x20\n      dup1\n      swap2\n      div\n      mul\n      0x20\n      add\n      mload(0x40)\n      swap1\n      dup2\n      add\n      0x40\n      mstore\n      dup1\n      swap3\n      swap2\n      swap1\n      dup2\n      dup2\n      mstore\n      0x20\n      add\n      dup3\n      dup1\n      sload\n      tag_119\n      swap1\n      tag_46\n      jump\t// in\n    tag_119:\n      dup1\n      iszero\n      tag_120\n      jumpi\n      dup1\n      0x1f\n      lt\n      tag_121\n      jumpi\n      0x0100\n      dup1\n      dup4\n      sload\n      div\n      mul\n      dup4\n      mstore\n      swap2\n      0x20\n      add\n      swap2\n      jump(tag_120)\n    tag_121:\n      dup3\n      add\n      swap2\n      swap1\n      0x00\n      mstore\n      keccak256(0x00, 0x20)\n      swap1\n    tag_122:\n      dup2\n      sload\n      dup2\n      mstore\n      swap1\n      0x01\n      add\n      swap1\n      0x20\n      add\n      dup1\n      dup4\n      gt\n      tag_122\n      jumpi\n      dup3\n      swap1\n      sub\n      0x1f\n      and\n      dup3\n      add\n      swap2\n    tag_120:\n      pop\n      pop\n      pop\n      pop\n      pop\n      dup2\n      mstore\n      0x20\n      add\n      0x02\n      dup3\n      add\n      dup1\n      sload\n      tag_123\n      swap1\n      tag_46\n      jump\t// in\n    tag_123:\n      dup1\n      0x1f\n      add\n      0x20\n      dup1\n      swap2\n      div\n      mul\n      0x20\n      add\n      mload(0x40)\n      swap1\n      dup2\n      add\n      0x40\n      mstore\n      dup1\n      swap3\n      swap2\n      swap1\n      dup2\n      dup2\n      mstore\n      0x20\n      add\n      dup3\n      dup1\n      sload\n      tag_124\n      swap1\n      tag_46\n      jump\t// in\n    tag_124:\n      dup1\n      iszero\n      tag_125\n      jumpi\n      dup1\n      0x1f\n      lt\n      tag_126\n      jumpi\n      0x0100\n      dup1\n      dup4\n      sload\n      div\n      mul\n      dup4\n      mstore\n      swap2\n      0x20\n      add\n      swap2\n      jump(tag_125)\n    tag_126:\n      dup3\n      add\n      swap2\n      swap1\n      0x00\n      mstore\n      keccak256(0x00, 0x20)\n      swap1\n    tag_127:\n      dup2\n      sload\n      dup2\n      mstore\n      swap1\n      0x01\n      add\n      swap1\n      0x20\n      add\n      dup1\n      dup4\n      gt\n      tag_127\n      jumpi\n      dup3\n      swap1\n      sub\n      0x1f\n      and\n      dup3\n      add\n      swap2\n    tag_125:\n      pop\n      pop\n      pop\n      pop\n      pop\n      dup2\n      mstore\n      0x20\n      add\n      0x03\n      dup3\n      add\n      sload\n      dup2\n      mstore\n      pop\n      pop\n      dup2\n      mstore\n      0x20\n      add\n      swap1\n      0x01\n      add\n      swap1\n      jump(tag_110)\n    tag_111:\n      pop\n      pop\n      pop\n      pop\n      swap1\n      pop\n        /* \"MedicalRecord.sol\":2921:3054  function getHistory(string memory _patientId) public view returns (Prescription[] memory) {... */\n      swap2\n      swap1\n      pop\n      jump\t// out\n        /* \"#utility.yul\":7:82   */\n    tag_128:\n        /* \"#utility.yul\":40:46   */\n      0x00\n        /* \"#utility.yul\":73:75   */\n      0x40\n        /* \"#utility.yul\":67:76   */\n      mload\n        /* \"#utility.yul\":57:76   */\n      swap1\n      pop\n        /* \"#utility.yul\":7:82   */\n      swap1\n      jump\t// out\n        /* \"#utility.yul\":88:205   */\n    tag_129:\n        /* \"#utility.yul\":197:198   */\n      0x00\n        /* \"#utility.yul\":194:195   */\n      dup1\n        /* \"#utility.yul\":187:199   */\n      revert\n        /* \"#utility.yul\":211:328   */\n    tag_130:\n        /* \"#utility.yul\":320:321   */\n      0x00\n        /* \"#utility.yul\":317:318   */\n      dup1\n        /* \"#utility.yul\":310:322   */\n      revert\n        /* \"#utility.yul\":334:451   */\n    tag_131:\n        /* \"#utility.yul\":443:444   */\n      0x00\n        /* \"#utility.yul\":440:441   */\n      dup1\n        /* \"#utility.yul\":433:445   */\n      revert\n        /* \"#utility.yul\":457:574   */\n    tag_132:\n        /* \"#utility.yul\":566:567   */\n      0x00\n        /* \"#utility.yul\":563:564   */\n      dup1\n        /* \"#utility.yul\":556:568   */\n      revert\n        /* \"#utility.yul\":580:682   */\n    tag_133:\n        /* \"#utility.yul\":621:627   */\n      0x00\n        /* \"#utility.yul\":672:674   */\n      0x1f\n        /* \"#utility.yul\":668:675   */\n      not\n        /* \"#utility.yul\":663:665   */\n      0x1f\n        /* \"#utility.yul\":656:661   */\n      dup4\n        /* \"#utility.yul\":652:666   */\n      add\n        /* \"#utility.yul\":648:676   */\n      and\n        /* \"#utility.yul\":638:676   */\n      swap1\n      pop\n        /* \"#utility.yul\":580:682   */\n      swap2\n      swap1\n      pop\n      jump\t// out\n        /* \"#utility.yul\":688:868   */\n    tag_134:\n        /* \"#utility.yul\":736:813   */\n      0x4e487b7100000000000000000000000000000000000000000000000000000000\n        /* \"#utility.yul\":733:734   */\n      0x00\n        /* \"#utility.yul\":726:814   */\n      mstore\n        /* \"#utility.yul\":833:837   */\n      0x41\n        /* \"#utility.yul\":830:831   */\n      0x04\n        /* \"#utility.yul\":823:838   */\n      mstore\n        /* \"#utility.yul\":857:861   */\n      0x24\n        /* \"#utility.yul\":854:855   */\n      0x00\n        /* \"#utility.yul\":847:862   */\n      revert\n        /* \"#utility.yul\":874:1155   */\n    tag_135:\n        /* \"#utility.yul\":957:984   */\n      tag_193\n        /* \"#utility.yul\":979:983   */\n      dup3\n        /* \"#utility.yul\":957:984   */\n      tag_133\n      jump\t// in\n    tag_193:\n        /* \"#utility.yul\":949:955   */\n      dup2\n        /* \"#utility.yul\":945:985   */\n      add\n        /* \"#utility.yul\":1087:1093   */\n      dup2\n        /* \"#utility.yul\":1075:1085   */\n      dup2\n        /* \"#utility.yul\":1072:1094   */\n      lt\n        /* \"#utility.yul\":1051:1069   */\n      0xffffffffffffffff\n        /* \"#utility.yul\":1039:1049   */\n      dup3\n        /* \"#utility.yul\":1036:1070   */\n      gt\n        /* \"#utility.yul\":1033:1095   */\n      or\n        /* \"#utility.yul\":1030:1118   */\n      iszero\n      tag_194\n      jumpi\n        /* \"#utility.yul\":1098:1116   */\n      tag_195\n      tag_134\n      jump\t// in\n    tag_195:\n        /* \"#utility.yul\":1030:1118   */\n    tag_194:\n        /* \"#utility.yul\":1138:1148   */\n      dup1\n        /* \"#utility.yul\":1134:1136   */\n      0x40\n        /* \"#utility.yul\":1127:1149   */\n      mstore\n        /* \"#utility.yul\":917:1155   */\n      pop\n        /* \"#utility.yul\":874:1155   */\n      pop\n      pop\n      jump\t// out\n        /* \"#utility.yul\":1161:1290   */\n    tag_136:\n        /* \"#utility.yul\":1195:1201   */\n      0x00\n        /* \"#utility.yul\":1222:1242   */\n      tag_197\n      tag_128\n      jump\t// in\n    tag_197:\n        /* \"#utility.yul\":1212:1242   */\n      swap1\n      pop\n        /* \"#utility.yul\":1251:1284   */\n      tag_198\n        /* \"#utility.yul\":1279:1283   */\n      dup3\n        /* \"#utility.yul\":1271:1277   */\n      dup3\n        /* \"#utility.yul\":1251:1284   */\n      tag_135\n      jump\t// in\n    tag_198:\n        /* \"#utility.yul\":1161:1290   */\n      swap2\n      swap1\n      pop\n      jump\t// out\n        /* \"#utility.yul\":1296:1604   */\n    tag_137:\n        /* \"#utility.yul\":1358:1362   */\n      0x00\n        /* \"#utility.yul\":1448:1466   */\n      0xffffffffffffffff\n        /* \"#utility.yul\":1440:1446   */\n      dup3\n        /* \"#utility.yul\":1437:1467   */\n      gt\n        /* \"#utility.yul\":1434:1490   */\n      iszero\n      tag_200\n      jumpi\n        /* \"#utility.yul\":1470:1488   */\n      tag_201\n      tag_134\n      jump\t// in\n    tag_201:\n        /* \"#utility.yul\":1434:1490   */\n    tag_200:\n        /* \"#utility.yul\":1508:1537   */\n      tag_202\n        /* \"#utility.yul\":1530:1536   */\n      dup3\n        /* \"#utility.yul\":1508:1537   */\n      tag_133\n      jump\t// in\n    tag_202:\n        /* \"#utility.yul\":1500:1537   */\n      swap1\n      pop\n        /* \"#utility.yul\":1592:1596   */\n      0x20\n        /* \"#utility.yul\":1586:1590   */\n      dup2\n        /* \"#utility.yul\":1582:1597   */\n      add\n        /* \"#utility.yul\":1574:1597   */\n      swap1\n      pop\n        /* \"#utility.yul\":1296:1604   */\n      swap2\n      swap1\n      pop\n      jump\t// out\n        /* \"#utility.yul\":1610:1756   */\n    tag_138:\n        /* \"#utility.yul\":1707:1713   */\n      dup3\n        /* \"#utility.yul\":1702:1705   */\n      dup2\n        /* \"#utility.yul\":1697:1700   */\n      dup4\n        /* \"#utility.yul\":1684:1714   */\n      calldatacopy\n        /* \"#utility.yul\":1748:1749   */\n      0x00\n        /* \"#utility.yul\":1739:1745   */\n      dup4\n        /* \"#utility.yul\":1734:1737   */\n      dup4\n        /* \"#utility.yul\":1730:1746   */\n      add\n        /* \"#utility.yul\":1723:1750   */\n      mstore\n        /* \"#utility.yul\":1610:1756   */\n      pop\n      pop\n      pop\n      jump\t// out\n        /* \"#utility.yul\":1762:2187   */\n    tag_139:\n        /* \"#utility.yul\":1840:1845   */\n      0x00\n        /* \"#utility.yul\":1865:1931   */\n      tag_205\n        /* \"#utility.yul\":1881:1930   */\n      tag_206\n        /* \"#utility.yul\":1923:1929   */\n      dup5\n        /* \"#utility.yul\":1881:1930   */\n      tag_137\n      jump\t// in\n    tag_206:\n        /* \"#utility.yul\":1865:1931   */\n      tag_136\n      jump\t// in\n    tag_205:\n        /* \"#utility.yul\":1856:1931   */\n      swap1\n      pop\n        /* \"#utility.yul\":1954:1960   */\n      dup3\n        /* \"#utility.yul\":1947:1952   */\n      dup2\n        /* \"#utility.yul\":1940:1961   */\n      mstore\n        /* \"#utility.yul\":1992:1996   */\n      0x20\n        /* \"#utility.yul\":1985:1990   */\n      dup2\n        /* \"#utility.yul\":1981:1997   */\n      add\n        /* \"#utility.yul\":2030:2033   */\n      dup5\n        /* \"#utility.yul\":2021:2027   */\n      dup5\n        /* \"#utility.yul\":2016:2019   */\n      dup5\n        /* \"#utility.yul\":2012:2028   */\n      add\n        /* \"#utility.yul\":2009:2034   */\n      gt\n        /* \"#utility.yul\":2006:2118   */\n      iszero\n      tag_207\n      jumpi\n        /* \"#utility.yul\":2037:2116   */\n      tag_208\n      tag_132\n      jump\t// in\n    tag_208:\n        /* \"#utility.yul\":2006:2118   */\n    tag_207:\n        /* \"#utility.yul\":2127:2181   */\n      tag_209\n        /* \"#utility.yul\":2174:2180   */\n      dup5\n        /* \"#utility.yul\":2169:2172   */\n      dup3\n        /* \"#utility.yul\":2164:2167   */\n      dup6\n        /* \"#utility.yul\":2127:2181   */\n      tag_138\n      jump\t// in\n    tag_209:\n        /* \"#utility.yul\":1846:2187   */\n      pop\n        /* \"#utility.yul\":1762:2187   */\n      swap4\n      swap3\n      pop\n      pop\n      pop\n      jump\t// out\n        /* \"#utility.yul\":2207:2547   */\n    tag_140:\n        /* \"#utility.yul\":2263:2268   */\n      0x00\n        /* \"#utility.yul\":2312:2315   */\n      dup3\n        /* \"#utility.yul\":2305:2309   */\n      0x1f\n        /* \"#utility.yul\":2297:2303   */\n      dup4\n        /* \"#utility.yul\":2293:2310   */\n      add\n        /* \"#utility.yul\":2289:2316   */\n      slt\n        /* \"#utility.yul\":2279:2401   */\n      tag_211\n      jumpi\n        /* \"#utility.yul\":2320:2399   */\n      tag_212\n      tag_131\n      jump\t// in\n    tag_212:\n        /* \"#utility.yul\":2279:2401   */\n    tag_211:\n        /* \"#utility.yul\":2437:2443   */\n      dup2\n        /* \"#utility.yul\":2424:2444   */\n      calldataload\n        /* \"#utility.yul\":2462:2541   */\n      tag_213\n        /* \"#utility.yul\":2537:2540   */\n      dup5\n        /* \"#utility.yul\":2529:2535   */\n      dup3\n        /* \"#utility.yul\":2522:2526   */\n      0x20\n        /* \"#utility.yul\":2514:2520   */\n      dup7\n        /* \"#utility.yul\":2510:2527   */\n      add\n        /* \"#utility.yul\":2462:2541   */\n      tag_139\n      jump\t// in\n    tag_213:\n        /* \"#utility.yul\":2453:2541   */\n      swap2\n      pop\n        /* \"#utility.yul\":2269:2547   */\n      pop\n        /* \"#utility.yul\":2207:2547   */\n      swap3\n      swap2\n      pop\n      pop\n      jump\t// out\n        /* \"#utility.yul\":2553:3062   */\n    tag_11:\n        /* \"#utility.yul\":2622:2628   */\n      0x00\n        /* \"#utility.yul\":2671:2673   */\n      0x20\n        /* \"#utility.yul\":2659:2668   */\n      dup3\n        /* \"#utility.yul\":2650:2657   */\n      dup5\n        /* \"#utility.yul\":2646:2669   */\n      sub\n        /* \"#utility.yul\":2642:2674   */\n      slt\n        /* \"#utility.yul\":2639:2758   */\n      iszero\n      tag_215\n      jumpi\n        /* \"#utility.yul\":2677:2756   */\n      tag_216\n      tag_129\n      jump\t// in\n    tag_216:\n        /* \"#utility.yul\":2639:2758   */\n    tag_215:\n        /* \"#utility.yul\":2825:2826   */\n      0x00\n        /* \"#utility.yul\":2814:2823   */\n      dup3\n        /* \"#utility.yul\":2810:2827   */\n      add\n        /* \"#utility.yul\":2797:2828   */\n      calldataload\n        /* \"#utility.yul\":2855:2873   */\n      0xffffffffffffffff\n        /* \"#utility.yul\":2847:2853   */\n      dup2\n        /* \"#utility.yul\":2844:2874   */\n      gt\n        /* \"#utility.yul\":2841:2958   */\n      iszero\n      tag_217\n      jumpi\n        /* \"#utility.yul\":2877:2956   */\n      tag_218\n      tag_130\n      jump\t// in\n    tag_218:\n        /* \"#utility.yul\":2841:2958   */\n    tag_217:\n        /* \"#utility.yul\":2982:3045   */\n      tag_219\n        /* \"#utility.yul\":3037:3044   */\n      dup5\n        /* \"#utility.yul\":3028:3034   */\n      dup3\n        /* \"#utility.yul\":3017:3026   */\n      dup6\n        /* \"#utility.yul\":3013:3035   */\n      add\n        /* \"#utility.yul\":2982:3045   */\n      tag_140\n      jump\t// in\n    tag_219:\n        /* \"#utility.yul\":2972:3045   */\n      swap2\n      pop\n        /* \"#utility.yul\":2768:3055   */\n      pop\n        /* \"#utility.yul\":2553:3062   */\n      swap3\n      swap2\n      pop\n      pop\n      jump\t// out\n        /* \"#utility.yul\":3068:3205   */\n    tag_141:\n        /* \"#utility.yul\":3158:3164   */\n      0x00\n        /* \"#utility.yul\":3192:3197   */\n      dup2\n        /* \"#utility.yul\":3186:3198   */\n      mload\n        /* \"#utility.yul\":3176:3198   */\n      swap1\n      pop\n        /* \"#utility.yul\":3068:3205   */\n      swap2\n      swap1\n      pop\n      jump\t// out\n        /* \"#utility.yul\":3211:3418   */\n    tag_142:\n        /* \"#utility.yul\":3333:3344   */\n      0x00\n        /* \"#utility.yul\":3367:3373   */\n      dup3\n        /* \"#utility.yul\":3362:3365   */\n      dup3\n        /* \"#utility.yul\":3355:3374   */\n      mstore\n        /* \"#utility.yul\":3407:3411   */\n      0x20\n        /* \"#utility.yul\":3402:3405   */\n      dup3\n        /* \"#utility.yul\":3398:3412   */\n      add\n        /* \"#utility.yul\":3383:3412   */\n      swap1\n      pop\n        /* \"#utility.yul\":3211:3418   */\n      swap3\n      swap2\n      pop\n      pop\n      jump\t// out\n        /* \"#utility.yul\":3424:3579   */\n    tag_143:\n        /* \"#utility.yul\":3514:3518   */\n      0x00\n        /* \"#utility.yul\":3537:3540   */\n      dup2\n        /* \"#utility.yul\":3529:3540   */\n      swap1\n      pop\n        /* \"#utility.yul\":3567:3571   */\n      0x20\n        /* \"#utility.yul\":3562:3565   */\n      dup3\n        /* \"#utility.yul\":3558:3572   */\n      add\n        /* \"#utility.yul\":3550:3572   */\n      swap1\n      pop\n        /* \"#utility.yul\":3424:3579   */\n      swap2\n      swap1\n      pop\n      jump\t// out\n        /* \"#utility.yul\":3585:3684   */\n    tag_144:\n        /* \"#utility.yul\":3637:3643   */\n      0x00\n        /* \"#utility.yul\":3671:3676   */\n      dup2\n        /* \"#utility.yul\":3665:3677   */\n      mload\n        /* \"#utility.yul\":3655:3677   */\n      swap1\n      pop\n        /* \"#utility.yul\":3585:3684   */\n      swap2\n      swap1\n      pop\n      jump\t// out\n        /* \"#utility.yul\":3690:3849   */\n    tag_145:\n        /* \"#utility.yul\":3764:3775   */\n      0x00\n        /* \"#utility.yul\":3798:3804   */\n      dup3\n        /* \"#utility.yul\":3793:3796   */\n      dup3\n        /* \"#utility.yul\":3786:3805   */\n      mstore\n        /* \"#utility.yul\":3838:3842   */\n      0x20\n        /* \"#utility.yul\":3833:3836   */\n      dup3\n        /* \"#utility.yul\":3829:3843   */\n      add\n        /* \"#utility.yul\":3814:3843   */\n      swap1\n      pop\n        /* \"#utility.yul\":3690:3849   */\n      swap3\n      swap2\n      pop\n      pop\n      jump\t// out\n        /* \"#utility.yul\":3855:4101   */\n    tag_146:\n        /* \"#utility.yul\":3936:3937   */\n      0x00\n        /* \"#utility.yul\":3946:4059   */\n    tag_226:\n        /* \"#utility.yul\":3960:3966   */\n      dup4\n        /* \"#utility.yul\":3957:3958   */\n      dup2\n        /* \"#utility.yul\":3954:3967   */\n      lt\n        /* \"#utility.yul\":3946:4059   */\n      iszero\n      tag_228\n      jumpi\n        /* \"#utility.yul\":4045:4046   */\n      dup1\n        /* \"#utility.yul\":4040:4043   */\n      dup3\n        /* \"#utility.yul\":4036:4047   */\n      add\n        /* \"#utility.yul\":4030:4048   */\n      mload\n        /* \"#utility.yul\":4026:4027   */\n      dup2\n        /* \"#utility.yul\":4021:4024   */\n      dup5\n        /* \"#utility.yul\":4017:4028   */\n      add\n        /* \"#utility.yul\":4010:4049   */\n      mstore\n        /* \"#utility.yul\":3982:3984   */\n      0x20\n        /* \"#utility.yul\":3979:3980   */\n      dup2\n        /* \"#utility.yul\":3975:3985   */\n      add\n        /* \"#utility.yul\":3970:3985   */\n      swap1\n      pop\n        /* \"#utility.yul\":3946:4059   */\n      jump(tag_226)\n    tag_228:\n        /* \"#utility.yul\":4093:4094   */\n      0x00\n        /* \"#utility.yul\":4084:4090   */\n      dup5\n        /* \"#utility.yul\":4079:4082   */\n      dup5\n        /* \"#utility.yul\":4075:4091   */\n      add\n        /* \"#utility.yul\":4068:4095   */\n      mstore\n        /* \"#utility.yul\":3917:4101   */\n      pop\n        /* \"#utility.yul\":3855:4101   */\n      pop\n      pop\n      pop\n      jump\t// out\n        /* \"#utility.yul\":4107:4464   */\n    tag_147:\n        /* \"#utility.yul\":4185:4188   */\n      0x00\n        /* \"#utility.yul\":4213:4252   */\n      tag_230\n        /* \"#utility.yul\":4246:4251   */\n      dup3\n        /* \"#utility.yul\":4213:4252   */\n      tag_144\n      jump\t// in\n    tag_230:\n        /* \"#utility.yul\":4268:4329   */\n      tag_231\n        /* \"#utility.yul\":4322:4328   */\n      dup2\n        /* \"#utility.yul\":4317:4320   */\n      dup6\n        /* \"#utility.yul\":4268:4329   */\n      tag_145\n      jump\t// in\n    tag_231:\n        /* \"#utility.yul\":4261:4329   */\n      swap4\n      pop\n        /* \"#utility.yul\":4338:4403   */\n      tag_232\n        /* \"#utility.yul\":4396:4402   */\n      dup2\n        /* \"#utility.yul\":4391:4394   */\n      dup6\n        /* \"#utility.yul\":4384:4388   */\n      0x20\n        /* \"#utility.yul\":4377:4382   */\n      dup7\n        /* \"#utility.yul\":4373:4389   */\n      add\n        /* \"#utility.yul\":4338:4403   */\n      tag_146\n      jump\t// in\n    tag_232:\n        /* \"#utility.yul\":4428:4457   */\n      tag_233\n        /* \"#utility.yul\":4450:4456   */\n      dup2\n        /* \"#utility.yul\":4428:4457   */\n      tag_133\n      jump\t// in\n    tag_233:\n        /* \"#utility.yul\":4423:4426   */\n      dup5\n        /* \"#utility.yul\":4419:4458   */\n      add\n        /* \"#utility.yul\":4412:4458   */\n      swap2\n      pop\n        /* \"#utility.yul\":4189:4464   */\n      pop\n        /* \"#utility.yul\":4107:4464   */\n      swap3\n      swap2\n      pop\n      pop\n      jump\t// out\n        /* \"#utility.yul\":4470:4547   */\n    tag_148:\n        /* \"#utility.yul\":4507:4514   */\n      0x00\n        /* \"#utility.yul\":4536:4541   */\n      dup2\n        /* \"#utility.yul\":4525:4541   */\n      swap1\n      pop\n        /* \"#utility.yul\":4470:4547   */\n      swap2\n      swap1\n      pop\n      jump\t// out\n        /* \"#utility.yul\":4553:4661   */\n    tag_149:\n        /* \"#utility.yul\":4630:4654   */\n      tag_236\n        /* \"#utility.yul\":4648:4653   */\n      dup2\n        /* \"#utility.yul\":4630:4654   */\n      tag_148\n      jump\t// in\n    tag_236:\n        /* \"#utility.yul\":4625:4628   */\n      dup3\n        /* \"#utility.yul\":4618:4655   */\n      mstore\n        /* \"#utility.yul\":4553:4661   */\n      pop\n      pop\n      jump\t// out\n        /* \"#utility.yul\":4735:6014   */\n    tag_150:\n        /* \"#utility.yul\":4840:4843   */\n      0x00\n        /* \"#utility.yul\":4876:4880   */\n      0xa0\n        /* \"#utility.yul\":4871:4874   */\n      dup4\n        /* \"#utility.yul\":4867:4881   */\n      add\n        /* \"#utility.yul\":4968:4972   */\n      0x00\n        /* \"#utility.yul\":4961:4966   */\n      dup4\n        /* \"#utility.yul\":4957:4973   */\n      add\n        /* \"#utility.yul\":4951:4974   */\n      mload\n        /* \"#utility.yul\":5021:5024   */\n      dup5\n        /* \"#utility.yul\":5015:5019   */\n      dup3\n        /* \"#utility.yul\":5011:5025   */\n      sub\n        /* \"#utility.yul\":5004:5008   */\n      0x00\n        /* \"#utility.yul\":4999:5002   */\n      dup7\n        /* \"#utility.yul\":4995:5009   */\n      add\n        /* \"#utility.yul\":4988:5026   */\n      mstore\n        /* \"#utility.yul\":5047:5120   */\n      tag_238\n        /* \"#utility.yul\":5115:5119   */\n      dup3\n        /* \"#utility.yul\":5101:5113   */\n      dup3\n        /* \"#utility.yul\":5047:5120   */\n      tag_147\n      jump\t// in\n    tag_238:\n        /* \"#utility.yul\":5039:5120   */\n      swap2\n      pop\n        /* \"#utility.yul\":4891:5131   */\n      pop\n        /* \"#utility.yul\":5220:5224   */\n      0x20\n        /* \"#utility.yul\":5213:5218   */\n      dup4\n        /* \"#utility.yul\":5209:5225   */\n      add\n        /* \"#utility.yul\":5203:5226   */\n      mload\n        /* \"#utility.yul\":5273:5276   */\n      dup5\n        /* \"#utility.yul\":5267:5271   */\n      dup3\n        /* \"#utility.yul\":5263:5277   */\n      sub\n        /* \"#utility.yul\":5256:5260   */\n      0x20\n        /* \"#utility.yul\":5251:5254   */\n      dup7\n        /* \"#utility.yul\":5247:5261   */\n      add\n        /* \"#utility.yul\":5240:5278   */\n      mstore\n        /* \"#utility.yul\":5299:5372   */\n      tag_239\n        /* \"#utility.yul\":5367:5371   */\n      dup3\n        /* \"#utility.yul\":5353:5365   */\n      dup3\n        /* \"#utility.yul\":5299:5372   */\n      tag_147\n      jump\t// in\n    tag_239:\n        /* \"#utility.yul\":5291:5372   */\n      swap2\n      pop\n        /* \"#utility.yul\":5141:5383   */\n      pop\n        /* \"#utility.yul\":5469:5473   */\n      0x40\n        /* \"#utility.yul\":5462:5467   */\n      dup4\n        /* \"#utility.yul\":5458:5474   */\n      add\n        /* \"#utility.yul\":5452:5475   */\n      mload\n        /* \"#utility.yul\":5488:5551   */\n      tag_240\n        /* \"#utility.yul\":5545:5549   */\n      0x40\n        /* \"#utility.yul\":5540:5543   */\n      dup7\n        /* \"#utility.yul\":5536:5550   */\n      add\n        /* \"#utility.yul\":5522:5534   */\n      dup3\n        /* \"#utility.yul\":5488:5551   */\n      tag_149\n      jump\t// in\n    tag_240:\n        /* \"#utility.yul\":5393:5561   */\n      pop\n        /* \"#utility.yul\":5645:5649   */\n      0x60\n        /* \"#utility.yul\":5638:5643   */\n      dup4\n        /* \"#utility.yul\":5634:5650   */\n      add\n        /* \"#utility.yul\":5628:5651   */\n      mload\n        /* \"#utility.yul\":5698:5701   */\n      dup5\n        /* \"#utility.yul\":5692:5696   */\n      dup3\n        /* \"#utility.yul\":5688:5702   */\n      sub\n        /* \"#utility.yul\":5681:5685   */\n      0x60\n        /* \"#utility.yul\":5676:5679   */\n      dup7\n        /* \"#utility.yul\":5672:5686   */\n      add\n        /* \"#utility.yul\":5665:5703   */\n      mstore\n        /* \"#utility.yul\":5724:5797   */\n      tag_241\n        /* \"#utility.yul\":5792:5796   */\n      dup3\n        /* \"#utility.yul\":5778:5790   */\n      dup3\n        /* \"#utility.yul\":5724:5797   */\n      tag_147\n      jump\t// in\n    tag_241:\n        /* \"#utility.yul\":5716:5797   */\n      swap2\n      pop\n        /* \"#utility.yul\":5571:5808   */\n      pop\n        /* \"#utility.yul\":5895:5899   */\n      0x80\n        /* \"#utility.yul\":5888:5893   */\n      dup4\n        /* \"#utility.yul\":5884:5900   */\n      add\n        /* \"#utility.yul\":5878:5901   */\n      mload\n        /* \"#utility.yul\":5914:5977   */\n      tag_242\n        /* \"#utility.yul\":5971:5975   */\n      0x80\n        /* \"#utility.yul\":5966:5969   */\n      dup7\n        /* \"#utility.yul\":5962:5976   */\n      add\n        /* \"#utility.yul\":5948:5960   */\n      dup3\n        /* \"#utility.yul\":5914:5977   */\n      tag_149\n      jump\t// in\n    tag_242:\n        /* \"#utility.yul\":5818:5987   */\n      pop\n        /* \"#utility.yul\":6004:6008   */\n      dup1\n        /* \"#utility.yul\":5997:6008   */\n      swap2\n      pop\n        /* \"#utility.yul\":4845:6014   */\n      pop\n        /* \"#utility.yul\":4735:6014   */\n      swap3\n      swap2\n      pop\n      pop\n      jump\t// out\n        /* \"#utility.yul\":6020:6268   */\n    tag_151:\n        /* \"#utility.yul\":6135:6145   */\n      0x00\n        /* \"#utility.yul\":6170:6262   */\n      tag_244\n        /* \"#utility.yul\":6258:6261   */\n      dup4\n        /* \"#utility.yul\":6250:6256   */\n      dup4\n        /* \"#utility.yul\":6170:6262   */\n      tag_150\n      jump\t// in\n    tag_244:\n        /* \"#utility.yul\":6156:6262   */\n      swap1\n      pop\n        /* \"#utility.yul\":6020:6268   */\n      swap3\n      swap2\n      pop\n      pop\n      jump\t// out\n        /* \"#utility.yul\":6274:6410   */\n    tag_152:\n        /* \"#utility.yul\":6367:6371   */\n      0x00\n        /* \"#utility.yul\":6399:6403   */\n      0x20\n        /* \"#utility.yul\":6394:6397   */\n      dup3\n        /* \"#utility.yul\":6390:6404   */\n      add\n        /* \"#utility.yul\":6382:6404   */\n      swap1\n      pop\n        /* \"#utility.yul\":6274:6410   */\n      swap2\n      swap1\n      pop\n      jump\t// out\n        /* \"#utility.yul\":6488:7583   */\n    tag_153:\n        /* \"#utility.yul\":6653:6656   */\n      0x00\n        /* \"#utility.yul\":6682:6759   */\n      tag_247\n        /* \"#utility.yul\":6753:6758   */\n      dup3\n        /* \"#utility.yul\":6682:6759   */\n      tag_141\n      jump\t// in\n    tag_247:\n        /* \"#utility.yul\":6775:6884   */\n      tag_248\n        /* \"#utility.yul\":6877:6883   */\n      dup2\n        /* \"#utility.yul\":6872:6875   */\n      dup6\n        /* \"#utility.yul\":6775:6884   */\n      tag_142\n      jump\t// in\n    tag_248:\n        /* \"#utility.yul\":6768:6884   */\n      swap4\n      pop\n        /* \"#utility.yul\":6910:6913   */\n      dup4\n        /* \"#utility.yul\":6955:6959   */\n      0x20\n        /* \"#utility.yul\":6947:6953   */\n      dup3\n        /* \"#utility.yul\":6943:6960   */\n      mul\n        /* \"#utility.yul\":6938:6941   */\n      dup6\n        /* \"#utility.yul\":6934:6961   */\n      add\n        /* \"#utility.yul\":6985:7064   */\n      tag_249\n        /* \"#utility.yul\":7058:7063   */\n      dup6\n        /* \"#utility.yul\":6985:7064   */\n      tag_143\n      jump\t// in\n    tag_249:\n        /* \"#utility.yul\":7087:7094   */\n      dup1\n        /* \"#utility.yul\":7118:7119   */\n      0x00\n        /* \"#utility.yul\":7103:7538   */\n    tag_250:\n        /* \"#utility.yul\":7128:7134   */\n      dup6\n        /* \"#utility.yul\":7125:7126   */\n      dup2\n        /* \"#utility.yul\":7122:7135   */\n      lt\n        /* \"#utility.yul\":7103:7538   */\n      iszero\n      tag_252\n      jumpi\n        /* \"#utility.yul\":7199:7208   */\n      dup5\n        /* \"#utility.yul\":7193:7197   */\n      dup5\n        /* \"#utility.yul\":7189:7209   */\n      sub\n        /* \"#utility.yul\":7184:7187   */\n      dup10\n        /* \"#utility.yul\":7177:7210   */\n      mstore\n        /* \"#utility.yul\":7250:7256   */\n      dup2\n        /* \"#utility.yul\":7244:7257   */\n      mload\n        /* \"#utility.yul\":7278:7388   */\n      tag_253\n        /* \"#utility.yul\":7383:7387   */\n      dup6\n        /* \"#utility.yul\":7368:7381   */\n      dup3\n        /* \"#utility.yul\":7278:7388   */\n      tag_151\n      jump\t// in\n    tag_253:\n        /* \"#utility.yul\":7270:7388   */\n      swap5\n      pop\n        /* \"#utility.yul\":7411:7494   */\n      tag_254\n        /* \"#utility.yul\":7487:7493   */\n      dup4\n        /* \"#utility.yul\":7411:7494   */\n      tag_152\n      jump\t// in\n    tag_254:\n        /* \"#utility.yul\":7401:7494   */\n      swap3\n      pop\n        /* \"#utility.yul\":7523:7527   */\n      0x20\n        /* \"#utility.yul\":7518:7521   */\n      dup11\n        /* \"#utility.yul\":7514:7528   */\n      add\n        /* \"#utility.yul\":7507:7528   */\n      swap10\n      pop\n        /* \"#utility.yul\":7163:7538   */\n      pop\n        /* \"#utility.yul\":7150:7151   */\n      0x01\n        /* \"#utility.yul\":7147:7148   */\n      dup2\n        /* \"#utility.yul\":7143:7152   */\n      add\n        /* \"#utility.yul\":7138:7152   */\n      swap1\n      pop\n        /* \"#utility.yul\":7103:7538   */\n      jump(tag_250)\n    tag_252:\n        /* \"#utility.yul\":7107:7121   */\n      pop\n        /* \"#utility.yul\":7554:7558   */\n      dup3\n        /* \"#utility.yul\":7547:7558   */\n      swap8\n      pop\n        /* \"#utility.yul\":7574:7577   */\n      dup8\n        /* \"#utility.yul\":7567:7577   */\n      swap6\n      pop\n        /* \"#utility.yul\":6658:7583   */\n      pop\n      pop\n      pop\n      pop\n      pop\n        /* \"#utility.yul\":6488:7583   */\n      swap3\n      swap2\n      pop\n      pop\n      jump\t// out\n        /* \"#utility.yul\":7589:8054   */\n    tag_14:\n        /* \"#utility.yul\":7778:7782   */\n      0x00\n        /* \"#utility.yul\":7816:7818   */\n      0x20\n        /* \"#utility.yul\":7805:7814   */\n      dup3\n        /* \"#utility.yul\":7801:7819   */\n      add\n        /* \"#utility.yul\":7793:7819   */\n      swap1\n      pop\n        /* \"#utility.yul\":7865:7874   */\n      dup2\n        /* \"#utility.yul\":7859:7863   */\n      dup2\n        /* \"#utility.yul\":7855:7875   */\n      sub\n        /* \"#utility.yul\":7851:7852   */\n      0x00\n        /* \"#utility.yul\":7840:7849   */\n      dup4\n        /* \"#utility.yul\":7836:7853   */\n      add\n        /* \"#utility.yul\":7829:7876   */\n      mstore\n        /* \"#utility.yul\":7893:8047   */\n      tag_256\n        /* \"#utility.yul\":8042:8046   */\n      dup2\n        /* \"#utility.yul\":8033:8039   */\n      dup5\n        /* \"#utility.yul\":7893:8047   */\n      tag_153\n      jump\t// in\n    tag_256:\n        /* \"#utility.yul\":7885:8047   */\n      swap1\n      pop\n        /* \"#utility.yul\":7589:8054   */\n      swap3\n      swap2\n      pop\n      pop\n      jump\t// out\n        /* \"#utility.yul\":8060:8182   */\n    tag_154:\n        /* \"#utility.yul\":8133:8157   */\n      tag_258\n        /* \"#utility.yul\":8151:8156   */\n      dup2\n        /* \"#utility.yul\":8133:8157   */\n      tag_148\n      jump\t// in\n    tag_258:\n        /* \"#utility.yul\":8126:8131   */\n      dup2\n        /* \"#utility.yul\":8123:8158   */\n      eq\n        /* \"#utility.yul\":8113:8176   */\n      tag_259\n      jumpi\n        /* \"#utility.yul\":8172:8173   */\n      0x00\n        /* \"#utility.yul\":8169:8170   */\n      dup1\n        /* \"#utility.yul\":8162:8174   */\n      revert\n        /* \"#utility.yul\":8113:8176   */\n    tag_259:\n        /* \"#utility.yul\":8060:8182   */\n      pop\n      jump\t// out\n        /* \"#utility.yul\":8188:8327   */\n    tag_155:\n        /* \"#utility.yul\":8234:8239   */\n      0x00\n        /* \"#utility.yul\":8272:8278   */\n      dup2\n        /* \"#utility.yul\":8259:8279   */\n      calldataload\n        /* \"#utility.yul\":8250:8279   */\n      swap1\n      pop\n        /* \"#utility.yul\":8288:8321   */\n      tag_261\n        /* \"#utility.yul\":8315:8320   */\n      dup2\n        /* \"#utility.yul\":8288:8321   */\n      tag_154\n      jump\t// in\n    tag_261:\n        /* \"#utility.yul\":8188:8327   */\n      swap3\n      swap2\n      pop\n      pop\n      jump\t// out\n        /* \"#utility.yul\":8333:8987   */\n    tag_17:\n        /* \"#utility.yul\":8411:8417   */\n      0x00\n        /* \"#utility.yul\":8419:8425   */\n      dup1\n        /* \"#utility.yul\":8468:8470   */\n      0x40\n        /* \"#utility.yul\":8456:8465   */\n      dup4\n        /* \"#utility.yul\":8447:8454   */\n      dup6\n        /* \"#utility.yul\":8443:8466   */\n      sub\n        /* \"#utility.yul\":8439:8471   */\n      slt\n        /* \"#utility.yul\":8436:8555   */\n      iszero\n      tag_263\n      jumpi\n        /* \"#utility.yul\":8474:8553   */\n      tag_264\n      tag_129\n      jump\t// in\n    tag_264:\n        /* \"#utility.yul\":8436:8555   */\n    tag_263:\n        /* \"#utility.yul\":8622:8623   */\n      0x00\n        /* \"#utility.yul\":8611:8620   */\n      dup4\n        /* \"#utility.yul\":8607:8624   */\n      add\n        /* \"#utility.yul\":8594:8625   */\n      calldataload\n        /* \"#utility.yul\":8652:8670   */\n      0xffffffffffffffff\n        /* \"#utility.yul\":8644:8650   */\n      dup2\n        /* \"#utility.yul\":8641:8671   */\n      gt\n        /* \"#utility.yul\":8638:8755   */\n      iszero\n      tag_265\n      jumpi\n        /* \"#utility.yul\":8674:8753   */\n      tag_266\n      tag_130\n      jump\t// in\n    tag_266:\n        /* \"#utility.yul\":8638:8755   */\n    tag_265:\n        /* \"#utility.yul\":8779:8842   */\n      tag_267\n        /* \"#utility.yul\":8834:8841   */\n      dup6\n        /* \"#utility.yul\":8825:8831   */\n      dup3\n        /* \"#utility.yul\":8814:8823   */\n      dup7\n        /* \"#utility.yul\":8810:8832   */\n      add\n        /* \"#utility.yul\":8779:8842   */\n      tag_140\n      jump\t// in\n    tag_267:\n        /* \"#utility.yul\":8769:8842   */\n      swap3\n      pop\n        /* \"#utility.yul\":8565:8852   */\n      pop\n        /* \"#utility.yul\":8891:8893   */\n      0x20\n        /* \"#utility.yul\":8917:8970   */\n      tag_268\n        /* \"#utility.yul\":8962:8969   */\n      dup6\n        /* \"#utility.yul\":8953:8959   */\n      dup3\n        /* \"#utility.yul\":8942:8951   */\n      dup7\n        /* \"#utility.yul\":8938:8960   */\n      add\n        /* \"#utility.yul\":8917:8970   */\n      tag_155\n      jump\t// in\n    tag_268:\n        /* \"#utility.yul\":8907:8970   */\n      swap2\n      pop\n        /* \"#utility.yul\":8862:8980   */\n      pop\n        /* \"#utility.yul\":8333:8987   */\n      swap3\n      pop\n      swap3\n      swap1\n      pop\n      jump\t// out\n        /* \"#utility.yul\":8993:9162   */\n    tag_156:\n        /* \"#utility.yul\":9077:9088   */\n      0x00\n        /* \"#utility.yul\":9111:9117   */\n      dup3\n        /* \"#utility.yul\":9106:9109   */\n      dup3\n        /* \"#utility.yul\":9099:9118   */\n      mstore\n        /* \"#utility.yul\":9151:9155   */\n      0x20\n        /* \"#utility.yul\":9146:9149   */\n      dup3\n        /* \"#utility.yul\":9142:9156   */\n      add\n        /* \"#utility.yul\":9127:9156   */\n      swap1\n      pop\n        /* \"#utility.yul\":8993:9162   */\n      swap3\n      swap2\n      pop\n      pop\n      jump\t// out\n        /* \"#utility.yul\":9168:9545   */\n    tag_157:\n        /* \"#utility.yul\":9256:9259   */\n      0x00\n        /* \"#utility.yul\":9284:9323   */\n      tag_271\n        /* \"#utility.yul\":9317:9322   */\n      dup3\n        /* \"#utility.yul\":9284:9323   */\n      tag_144\n      jump\t// in\n    tag_271:\n        /* \"#utility.yul\":9339:9410   */\n      tag_272\n        /* \"#utility.yul\":9403:9409   */\n      dup2\n        /* \"#utility.yul\":9398:9401   */\n      dup6\n        /* \"#utility.yul\":9339:9410   */\n      tag_156\n      jump\t// in\n    tag_272:\n        /* \"#utility.yul\":9332:9410   */\n      swap4\n      pop\n        /* \"#utility.yul\":9419:9484   */\n      tag_273\n        /* \"#utility.yul\":9477:9483   */\n      dup2\n        /* \"#utility.yul\":9472:9475   */\n      dup6\n        /* \"#utility.yul\":9465:9469   */\n      0x20\n        /* \"#utility.yul\":9458:9463   */\n      dup7\n        /* \"#utility.yul\":9454:9470   */\n      add\n        /* \"#utility.yul\":9419:9484   */\n      tag_146\n      jump\t// in\n    tag_273:\n        /* \"#utility.yul\":9509:9538   */\n      tag_274\n        /* \"#utility.yul\":9531:9537   */\n      dup2\n        /* \"#utility.yul\":9509:9538   */\n      tag_133\n      jump\t// in\n    tag_274:\n        /* \"#utility.yul\":9504:9507   */\n      dup5\n        /* \"#utility.yul\":9500:9539   */\n      add\n        /* \"#utility.yul\":9493:9539   */\n      swap2\n      pop\n        /* \"#utility.yul\":9260:9545   */\n      pop\n        /* \"#utility.yul\":9168:9545   */\n      swap3\n      swap2\n      pop\n      pop\n      jump\t// out\n        /* \"#utility.yul\":9551:9669   */\n    tag_158:\n        /* \"#utility.yul\":9638:9662   */\n      tag_276\n        /* \"#utility.yul\":9656:9661   */\n      dup2\n        /* \"#utility.yul\":9638:9662   */\n      tag_148\n      jump\t// in\n    tag_276:\n        /* \"#utility.yul\":9633:9636   */\n      dup3\n        /* \"#utility.yul\":9626:9663   */\n      mstore\n        /* \"#utility.yul\":9551:9669   */\n      pop\n      pop\n      jump\t// out\n        /* \"#utility.yul\":9675:10501   */\n    tag_20:\n        /* \"#utility.yul\":9912:9916   */\n      0x00\n        /* \"#utility.yul\":9950:9953   */\n      0x80\n        /* \"#utility.yul\":9939:9948   */\n      dup3\n        /* \"#utility.yul\":9935:9954   */\n      add\n        /* \"#utility.yul\":9927:9954   */\n      swap1\n      pop\n        /* \"#utility.yul\":10000:10009   */\n      dup2\n        /* \"#utility.yul\":9994:9998   */\n      dup2\n        /* \"#utility.yul\":9990:10010   */\n      sub\n        /* \"#utility.yul\":9986:9987   */\n      0x00\n        /* \"#utility.yul\":9975:9984   */\n      dup4\n        /* \"#utility.yul\":9971:9988   */\n      add\n        /* \"#utility.yul\":9964:10011   */\n      mstore\n        /* \"#utility.yul\":10028:10106   */\n      tag_278\n        /* \"#utility.yul\":10101:10105   */\n      dup2\n        /* \"#utility.yul\":10092:10098   */\n      dup8\n        /* \"#utility.yul\":10028:10106   */\n      tag_157\n      jump\t// in\n    tag_278:\n        /* \"#utility.yul\":10020:10106   */\n      swap1\n      pop\n        /* \"#utility.yul\":10153:10162   */\n      dup2\n        /* \"#utility.yul\":10147:10151   */\n      dup2\n        /* \"#utility.yul\":10143:10163   */\n      sub\n        /* \"#utility.yul\":10138:10140   */\n      0x20\n        /* \"#utility.yul\":10127:10136   */\n      dup4\n        /* \"#utility.yul\":10123:10141   */\n      add\n        /* \"#utility.yul\":10116:10164   */\n      mstore\n        /* \"#utility.yul\":10181:10259   */\n      tag_279\n        /* \"#utility.yul\":10254:10258   */\n      dup2\n        /* \"#utility.yul\":10245:10251   */\n      dup7\n        /* \"#utility.yul\":10181:10259   */\n      tag_157\n      jump\t// in\n    tag_279:\n        /* \"#utility.yul\":10173:10259   */\n      swap1\n      pop\n        /* \"#utility.yul\":10306:10315   */\n      dup2\n        /* \"#utility.yul\":10300:10304   */\n      dup2\n        /* \"#utility.yul\":10296:10316   */\n      sub\n        /* \"#utility.yul\":10291:10293   */\n      0x40\n        /* \"#utility.yul\":10280:10289   */\n      dup4\n        /* \"#utility.yul\":10276:10294   */\n      add\n        /* \"#utility.yul\":10269:10317   */\n      mstore\n        /* \"#utility.yul\":10334:10412   */\n      tag_280\n        /* \"#utility.yul\":10407:10411   */\n      dup2\n        /* \"#utility.yul\":10398:10404   */\n      dup6\n        /* \"#utility.yul\":10334:10412   */\n      tag_157\n      jump\t// in\n    tag_280:\n        /* \"#utility.yul\":10326:10412   */\n      swap1\n      pop\n        /* \"#utility.yul\":10422:10494   */\n      tag_281\n        /* \"#utility.yul\":10490:10492   */\n      0x60\n        /* \"#utility.yul\":10479:10488   */\n      dup4\n        /* \"#utility.yul\":10475:10493   */\n      add\n        /* \"#utility.yul\":10466:10472   */\n      dup5\n        /* \"#utility.yul\":10422:10494   */\n      tag_158\n      jump\t// in\n    tag_281:\n        /* \"#utility.yul\":9675:10501   */\n      swap6\n      swap5\n      pop\n      pop\n      pop\n      pop\n      pop\n      jump\t// out\n        /* \"#utility.yul\":10507:12138   */\n    tag_23:\n        /* \"#utility.yul\":10642:10648   */\n      0x00\n        /* \"#utility.yul\":10650:10656   */\n      dup1\n        /* \"#utility.yul\":10658:10664   */\n      0x00\n        /* \"#utility.yul\":10666:10672   */\n      dup1\n        /* \"#utility.yul\":10674:10680   */\n      0x00\n        /* \"#utility.yul\":10723:10726   */\n      0xa0\n        /* \"#utility.yul\":10711:10720   */\n      dup7\n        /* \"#utility.yul\":10702:10709   */\n      dup9\n        /* \"#utility.yul\":10698:10721   */\n      sub\n        /* \"#utility.yul\":10694:10727   */\n      slt\n        /* \"#utility.yul\":10691:10811   */\n      iszero\n      tag_283\n      jumpi\n        /* \"#utility.yul\":10730:10809   */\n      tag_284\n      tag_129\n      jump\t// in\n    tag_284:\n        /* \"#utility.yul\":10691:10811   */\n    tag_283:\n        /* \"#utility.yul\":10878:10879   */\n      0x00\n        /* \"#utility.yul\":10867:10876   */\n      dup7\n        /* \"#utility.yul\":10863:10880   */\n      add\n        /* \"#utility.yul\":10850:10881   */\n      calldataload\n        /* \"#utility.yul\":10908:10926   */\n      0xffffffffffffffff\n        /* \"#utility.yul\":10900:10906   */\n      dup2\n        /* \"#utility.yul\":10897:10927   */\n      gt\n        /* \"#utility.yul\":10894:11011   */\n      iszero\n      tag_285\n      jumpi\n        /* \"#utility.yul\":10930:11009   */\n      tag_286\n      tag_130\n      jump\t// in\n    tag_286:\n        /* \"#utility.yul\":10894:11011   */\n    tag_285:\n        /* \"#utility.yul\":11035:11098   */\n      tag_287\n        /* \"#utility.yul\":11090:11097   */\n      dup9\n        /* \"#utility.yul\":11081:11087   */\n      dup3\n        /* \"#utility.yul\":11070:11079   */\n      dup10\n        /* \"#utility.yul\":11066:11088   */\n      add\n        /* \"#utility.yul\":11035:11098   */\n      tag_140\n      jump\t// in\n    tag_287:\n        /* \"#utility.yul\":11025:11098   */\n      swap6\n      pop\n        /* \"#utility.yul\":10821:11108   */\n      pop\n        /* \"#utility.yul\":11175:11177   */\n      0x20\n        /* \"#utility.yul\":11164:11173   */\n      dup7\n        /* \"#utility.yul\":11160:11178   */\n      add\n        /* \"#utility.yul\":11147:11179   */\n      calldataload\n        /* \"#utility.yul\":11206:11224   */\n      0xffffffffffffffff\n        /* \"#utility.yul\":11198:11204   */\n      dup2\n        /* \"#utility.yul\":11195:11225   */\n      gt\n        /* \"#utility.yul\":11192:11309   */\n      iszero\n      tag_288\n      jumpi\n        /* \"#utility.yul\":11228:11307   */\n      tag_289\n      tag_130\n      jump\t// in\n    tag_289:\n        /* \"#utility.yul\":11192:11309   */\n    tag_288:\n        /* \"#utility.yul\":11333:11396   */\n      tag_290\n        /* \"#utility.yul\":11388:11395   */\n      dup9\n        /* \"#utility.yul\":11379:11385   */\n      dup3\n        /* \"#utility.yul\":11368:11377   */\n      dup10\n        /* \"#utility.yul\":11364:11386   */\n      add\n        /* \"#utility.yul\":11333:11396   */\n      tag_140\n      jump\t// in\n    tag_290:\n        /* \"#utility.yul\":11323:11396   */\n      swap5\n      pop\n        /* \"#utility.yul\":11118:11406   */\n      pop\n        /* \"#utility.yul\":11473:11475   */\n      0x40\n        /* \"#utility.yul\":11462:11471   */\n      dup7\n        /* \"#utility.yul\":11458:11476   */\n      add\n        /* \"#utility.yul\":11445:11477   */\n      calldataload\n        /* \"#utility.yul\":11504:11522   */\n      0xffffffffffffffff\n        /* \"#utility.yul\":11496:11502   */\n      dup2\n        /* \"#utility.yul\":11493:11523   */\n      gt\n        /* \"#utility.yul\":11490:11607   */\n      iszero\n      tag_291\n      jumpi\n        /* \"#utility.yul\":11526:11605   */\n      tag_292\n      tag_130\n      jump\t// in\n    tag_292:\n        /* \"#utility.yul\":11490:11607   */\n    tag_291:\n        /* \"#utility.yul\":11631:11694   */\n      tag_293\n        /* \"#utility.yul\":11686:11693   */\n      dup9\n        /* \"#utility.yul\":11677:11683   */\n      dup3\n        /* \"#utility.yul\":11666:11675   */\n      dup10\n        /* \"#utility.yul\":11662:11684   */\n      add\n        /* \"#utility.yul\":11631:11694   */\n      tag_140\n      jump\t// in\n    tag_293:\n        /* \"#utility.yul\":11621:11694   */\n      swap4\n      pop\n        /* \"#utility.yul\":11416:11704   */\n      pop\n        /* \"#utility.yul\":11743:11745   */\n      0x60\n        /* \"#utility.yul\":11769:11822   */\n      tag_294\n        /* \"#utility.yul\":11814:11821   */\n      dup9\n        /* \"#utility.yul\":11805:11811   */\n      dup3\n        /* \"#utility.yul\":11794:11803   */\n      dup10\n        /* \"#utility.yul\":11790:11812   */\n      add\n        /* \"#utility.yul\":11769:11822   */\n      tag_155\n      jump\t// in\n    tag_294:\n        /* \"#utility.yul\":11759:11822   */\n      swap3\n      pop\n        /* \"#utility.yul\":11714:11832   */\n      pop\n        /* \"#utility.yul\":11899:11902   */\n      0x80\n        /* \"#utility.yul\":11888:11897   */\n      dup7\n        /* \"#utility.yul\":11884:11903   */\n      add\n        /* \"#utility.yul\":11871:11904   */\n      calldataload\n        /* \"#utility.yul\":11931:11949   */\n      0xffffffffffffffff\n        /* \"#utility.yul\":11923:11929   */\n      dup2\n        /* \"#utility.yul\":11920:11950   */\n      gt\n        /* \"#utility.yul\":11917:12034   */\n      iszero\n      tag_295\n      jumpi\n        /* \"#utility.yul\":11953:12032   */\n      tag_296\n      tag_130\n      jump\t// in\n    tag_296:\n        /* \"#utility.yul\":11917:12034   */\n    tag_295:\n        /* \"#utility.yul\":12058:12121   */\n      tag_297\n        /* \"#utility.yul\":12113:12120   */\n      dup9\n        /* \"#utility.yul\":12104:12110   */\n      dup3\n        /* \"#utility.yul\":12093:12102   */\n      dup10\n        /* \"#utility.yul\":12089:12111   */\n      add\n        /* \"#utility.yul\":12058:12121   */\n      tag_140\n      jump\t// in\n    tag_297:\n        /* \"#utility.yul\":12048:12121   */\n      swap2\n      pop\n        /* \"#utility.yul\":11842:12131   */\n      pop\n        /* \"#utility.yul\":10507:12138   */\n      swap3\n      swap6\n      pop\n      swap3\n      swap6\n      swap1\n      swap4\n      pop\n      jump\t// out\n        /* \"#utility.yul\":12144:13775   */\n    tag_27:\n        /* \"#utility.yul\":12279:12285   */\n      0x00\n        /* \"#utility.yul\":12287:12293   */\n      dup1\n        /* \"#utility.yul\":12295:12301   */\n      0x00\n        /* \"#utility.yul\":12303:12309   */\n      dup1\n        /* \"#utility.yul\":12311:12317   */\n      0x00\n        /* \"#utility.yul\":12360:12363   */\n      0xa0\n        /* \"#utility.yul\":12348:12357   */\n      dup7\n        /* \"#utility.yul\":12339:12346   */\n      dup9\n        /* \"#utility.yul\":12335:12358   */\n      sub\n        /* \"#utility.yul\":12331:12364   */\n      slt\n        /* \"#utility.yul\":12328:12448   */\n      iszero\n      tag_299\n      jumpi\n        /* \"#utility.yul\":12367:12446   */\n      tag_300\n      tag_129\n      jump\t// in\n    tag_300:\n        /* \"#utility.yul\":12328:12448   */\n    tag_299:\n        /* \"#utility.yul\":12515:12516   */\n      0x00\n        /* \"#utility.yul\":12504:12513   */\n      dup7\n        /* \"#utility.yul\":12500:12517   */\n      add\n        /* \"#utility.yul\":12487:12518   */\n      calldataload\n        /* \"#utility.yul\":12545:12563   */\n      0xffffffffffffffff\n        /* \"#utility.yul\":12537:12543   */\n      dup2\n        /* \"#utility.yul\":12534:12564   */\n      gt\n        /* \"#utility.yul\":12531:12648   */\n      iszero\n      tag_301\n      jumpi\n        /* \"#utility.yul\":12567:12646   */\n      tag_302\n      tag_130\n      jump\t// in\n    tag_302:\n        /* \"#utility.yul\":12531:12648   */\n    tag_301:\n        /* \"#utility.yul\":12672:12735   */\n      tag_303\n        /* \"#utility.yul\":12727:12734   */\n      dup9\n        /* \"#utility.yul\":12718:12724   */\n      dup3\n        /* \"#utility.yul\":12707:12716   */\n      dup10\n        /* \"#utility.yul\":12703:12725   */\n      add\n        /* \"#utility.yul\":12672:12735   */\n      tag_140\n      jump\t// in\n    tag_303:\n        /* \"#utility.yul\":12662:12735   */\n      swap6\n      pop\n        /* \"#utility.yul\":12458:12745   */\n      pop\n        /* \"#utility.yul\":12812:12814   */\n      0x20\n        /* \"#utility.yul\":12801:12810   */\n      dup7\n        /* \"#utility.yul\":12797:12815   */\n      add\n        /* \"#utility.yul\":12784:12816   */\n      calldataload\n        /* \"#utility.yul\":12843:12861   */\n      0xffffffffffffffff\n        /* \"#utility.yul\":12835:12841   */\n      dup2\n        /* \"#utility.yul\":12832:12862   */\n      gt\n        /* \"#utility.yul\":12829:12946   */\n      iszero\n      tag_304\n      jumpi\n        /* \"#utility.yul\":12865:12944   */\n      tag_305\n      tag_130\n      jump\t// in\n    tag_305:\n        /* \"#utility.yul\":12829:12946   */\n    tag_304:\n        /* \"#utility.yul\":12970:13033   */\n      tag_306\n        /* \"#utility.yul\":13025:13032   */\n      dup9\n        /* \"#utility.yul\":13016:13022   */\n      dup3\n        /* \"#utility.yul\":13005:13014   */\n      dup10\n        /* \"#utility.yul\":13001:13023   */\n      add\n        /* \"#utility.yul\":12970:13033   */\n      tag_140\n      jump\t// in\n    tag_306:\n        /* \"#utility.yul\":12960:13033   */\n      swap5\n      pop\n        /* \"#utility.yul\":12755:13043   */\n      pop\n        /* \"#utility.yul\":13110:13112   */\n      0x40\n        /* \"#utility.yul\":13099:13108   */\n      dup7\n        /* \"#utility.yul\":13095:13113   */\n      add\n        /* \"#utility.yul\":13082:13114   */\n      calldataload\n        /* \"#utility.yul\":13141:13159   */\n      0xffffffffffffffff\n        /* \"#utility.yul\":13133:13139   */\n      dup2\n        /* \"#utility.yul\":13130:13160   */\n      gt\n        /* \"#utility.yul\":13127:13244   */\n      iszero\n      tag_307\n      jumpi\n        /* \"#utility.yul\":13163:13242   */\n      tag_308\n      tag_130\n      jump\t// in\n    tag_308:\n        /* \"#utility.yul\":13127:13244   */\n    tag_307:\n        /* \"#utility.yul\":13268:13331   */\n      tag_309\n        /* \"#utility.yul\":13323:13330   */\n      dup9\n        /* \"#utility.yul\":13314:13320   */\n      dup3\n        /* \"#utility.yul\":13303:13312   */\n      dup10\n        /* \"#utility.yul\":13299:13321   */\n      add\n        /* \"#utility.yul\":13268:13331   */\n      tag_140\n      jump\t// in\n    tag_309:\n        /* \"#utility.yul\":13258:13331   */\n      swap4\n      pop\n        /* \"#utility.yul\":13053:13341   */\n      pop\n        /* \"#utility.yul\":13408:13410   */\n      0x60\n        /* \"#utility.yul\":13397:13406   */\n      dup7\n        /* \"#utility.yul\":13393:13411   */\n      add\n        /* \"#utility.yul\":13380:13412   */\n      calldataload\n        /* \"#utility.yul\":13439:13457   */\n      0xffffffffffffffff\n        /* \"#utility.yul\":13431:13437   */\n      dup2\n        /* \"#utility.yul\":13428:13458   */\n      gt\n        /* \"#utility.yul\":13425:13542   */\n      iszero\n      tag_310\n      jumpi\n        /* \"#utility.yul\":13461:13540   */\n      tag_311\n      tag_130\n      jump\t// in\n    tag_311:\n        /* \"#utility.yul\":13425:13542   */\n    tag_310:\n        /* \"#utility.yul\":13566:13629   */\n      tag_312\n        /* \"#utility.yul\":13621:13628   */\n      dup9\n        /* \"#utility.yul\":13612:13618   */\n      dup3\n        /* \"#utility.yul\":13601:13610   */\n      dup10\n        /* \"#utility.yul\":13597:13619   */\n      add\n        /* \"#utility.yul\":13566:13629   */\n      tag_140\n      jump\t// in\n    tag_312:\n        /* \"#utility.yul\":13556:13629   */\n      swap3\n      pop\n        /* \"#utility.yul\":13351:13639   */\n      pop\n        /* \"#utility.yul\":13678:13681   */\n      0x80\n        /* \"#utility.yul\":13705:13758   */\n      tag_313\n        /* \"#utility.yul\":13750:13757   */\n      dup9\n        /* \"#utility.yul\":13741:13747   */\n      dup3\n        /* \"#utility.yul\":13730:13739   */\n      dup10\n        /* \"#utility.yul\":13726:13748   */\n      add\n        /* \"#utility.yul\":13705:13758   */\n      tag_155\n      jump\t// in\n    tag_313:\n        /* \"#utility.yul\":13695:13758   */\n      swap2\n      pop\n        /* \"#utility.yul\":13649:13768   */\n      pop\n        /* \"#utility.yul\":12144:13775   */\n      swap3\n      swap6\n      pop\n      swap3\n      swap6\n      swap1\n      swap4\n      pop\n      jump\t// out\n        /* \"#utility.yul\":13781:14718   */\n    tag_33:\n        /* \"#utility.yul\":14046:14050   */\n      0x00\n        /* \"#utility.yul\":14084:14087   */\n      0xa0\n        /* \"#utility.yul\":14073:14082   */\n      dup3\n        /* \"#utility.yul\":14069:14088   */\n      add\n        /* \"#utility.yul\":14061:14088   */\n      swap1\n      pop\n        /* \"#utility.yul\":14134:14143   */\n      dup2\n        /* \"#utility.yul\":14128:14132   */\n      dup2\n        /* \"#utility.yul\":14124:14144   */\n      sub\n        /* \"#utility.yul\":14120:14121   */\n      0x00\n        /* \"#utility.yul\":14109:14118   */\n      dup4\n        /* \"#utility.yul\":14105:14122   */\n      add\n        /* \"#utility.yul\":14098:14145   */\n      mstore\n        /* \"#utility.yul\":14162:14240   */\n      tag_315\n        /* \"#utility.yul\":14235:14239   */\n      dup2\n        /* \"#utility.yul\":14226:14232   */\n      dup9\n        /* \"#utility.yul\":14162:14240   */\n      tag_157\n      jump\t// in\n    tag_315:\n        /* \"#utility.yul\":14154:14240   */\n      swap1\n      pop\n        /* \"#utility.yul\":14287:14296   */\n      dup2\n        /* \"#utility.yul\":14281:14285   */\n      dup2\n        /* \"#utility.yul\":14277:14297   */\n      sub\n        /* \"#utility.yul\":14272:14274   */\n      0x20\n        /* \"#utility.yul\":14261:14270   */\n      dup4\n        /* \"#utility.yul\":14257:14275   */\n      add\n        /* \"#utility.yul\":14250:14298   */\n      mstore\n        /* \"#utility.yul\":14315:14393   */\n      tag_316\n        /* \"#utility.yul\":14388:14392   */\n      dup2\n        /* \"#utility.yul\":14379:14385   */\n      dup8\n        /* \"#utility.yul\":14315:14393   */\n      tag_157\n      jump\t// in\n    tag_316:\n        /* \"#utility.yul\":14307:14393   */\n      swap1\n      pop\n        /* \"#utility.yul\":14403:14475   */\n      tag_317\n        /* \"#utility.yul\":14471:14473   */\n      0x40\n        /* \"#utility.yul\":14460:14469   */\n      dup4\n        /* \"#utility.yul\":14456:14474   */\n      add\n        /* \"#utility.yul\":14447:14453   */\n      dup7\n        /* \"#utility.yul\":14403:14475   */\n      tag_158\n      jump\t// in\n    tag_317:\n        /* \"#utility.yul\":14522:14531   */\n      dup2\n        /* \"#utility.yul\":14516:14520   */\n      dup2\n        /* \"#utility.yul\":14512:14532   */\n      sub\n        /* \"#utility.yul\":14507:14509   */\n      0x60\n        /* \"#utility.yul\":14496:14505   */\n      dup4\n        /* \"#utility.yul\":14492:14510   */\n      add\n        /* \"#utility.yul\":14485:14533   */\n      mstore\n        /* \"#utility.yul\":14550:14628   */\n      tag_318\n        /* \"#utility.yul\":14623:14627   */\n      dup2\n        /* \"#utility.yul\":14614:14620   */\n      dup6\n        /* \"#utility.yul\":14550:14628   */\n      tag_157\n      jump\t// in\n    tag_318:\n        /* \"#utility.yul\":14542:14628   */\n      swap1\n      pop\n        /* \"#utility.yul\":14638:14711   */\n      tag_319\n        /* \"#utility.yul\":14706:14709   */\n      0x80\n        /* \"#utility.yul\":14695:14704   */\n      dup4\n        /* \"#utility.yul\":14691:14710   */\n      add\n        /* \"#utility.yul\":14682:14688   */\n      dup5\n        /* \"#utility.yul\":14638:14711   */\n      tag_158\n      jump\t// in\n    tag_319:\n        /* \"#utility.yul\":13781:14718   */\n      swap7\n      swap6\n      pop\n      pop\n      pop\n      pop\n      pop\n      pop\n      jump\t// out\n        /* \"#utility.yul\":14724:14866   */\n    tag_159:\n        /* \"#utility.yul\":14819:14825   */\n      0x00\n        /* \"#utility.yul\":14853:14858   */\n      dup2\n        /* \"#utility.yul\":14847:14859   */\n      mload\n        /* \"#utility.yul\":14837:14859   */\n      swap1\n      pop\n        /* \"#utility.yul\":14724:14866   */\n      swap2\n      swap1\n      pop\n      jump\t// out\n        /* \"#utility.yul\":14872:15084   */\n    tag_160:\n        /* \"#utility.yul\":14999:15010   */\n      0x00\n        /* \"#utility.yul\":15033:15039   */\n      dup3\n        /* \"#utility.yul\":15028:15031   */\n      dup3\n        /* \"#utility.yul\":15021:15040   */\n      mstore\n        /* \"#utility.yul\":15073:15077   */\n      0x20\n        /* \"#utility.yul\":15068:15071   */\n      dup3\n        /* \"#utility.yul\":15064:15078   */\n      add\n        /* \"#utility.yul\":15049:15078   */\n      swap1\n      pop\n        /* \"#utility.yul\":14872:15084   */\n      swap3\n      swap2\n      pop\n      pop\n      jump\t// out\n        /* \"#utility.yul\":15090:15250   */\n    tag_161:\n        /* \"#utility.yul\":15185:15189   */\n      0x00\n        /* \"#utility.yul\":15208:15211   */\n      dup2\n        /* \"#utility.yul\":15200:15211   */\n      swap1\n      pop\n        /* \"#utility.yul\":15238:15242   */\n      0x20\n        /* \"#utility.yul\":15233:15236   */\n      dup3\n        /* \"#utility.yul\":15229:15243   */\n      add\n        /* \"#utility.yul\":15221:15243   */\n      swap1\n      pop\n        /* \"#utility.yul\":15090:15250   */\n      swap2\n      swap1\n      pop\n      jump\t// out\n        /* \"#utility.yul\":15334:16439   */\n    tag_162:\n        /* \"#utility.yul\":15449:15452   */\n      0x00\n        /* \"#utility.yul\":15485:15489   */\n      0x80\n        /* \"#utility.yul\":15480:15483   */\n      dup4\n        /* \"#utility.yul\":15476:15490   */\n      add\n        /* \"#utility.yul\":15578:15582   */\n      0x00\n        /* \"#utility.yul\":15571:15576   */\n      dup4\n        /* \"#utility.yul\":15567:15583   */\n      add\n        /* \"#utility.yul\":15561:15584   */\n      mload\n        /* \"#utility.yul\":15631:15634   */\n      dup5\n        /* \"#utility.yul\":15625:15629   */\n      dup3\n        /* \"#utility.yul\":15621:15635   */\n      sub\n        /* \"#utility.yul\":15614:15618   */\n      0x00\n        /* \"#utility.yul\":15609:15612   */\n      dup7\n        /* \"#utility.yul\":15605:15619   */\n      add\n        /* \"#utility.yul\":15598:15636   */\n      mstore\n        /* \"#utility.yul\":15657:15730   */\n      tag_324\n        /* \"#utility.yul\":15725:15729   */\n      dup3\n        /* \"#utility.yul\":15711:15723   */\n      dup3\n        /* \"#utility.yul\":15657:15730   */\n      tag_147\n      jump\t// in\n    tag_324:\n        /* \"#utility.yul\":15649:15730   */\n      swap2\n      pop\n        /* \"#utility.yul\":15500:15741   */\n      pop\n        /* \"#utility.yul\":15826:15830   */\n      0x20\n        /* \"#utility.yul\":15819:15824   */\n      dup4\n        /* \"#utility.yul\":15815:15831   */\n      add\n        /* \"#utility.yul\":15809:15832   */\n      mload\n        /* \"#utility.yul\":15879:15882   */\n      dup5\n        /* \"#utility.yul\":15873:15877   */\n      dup3\n        /* \"#utility.yul\":15869:15883   */\n      sub\n        /* \"#utility.yul\":15862:15866   */\n      0x20\n        /* \"#utility.yul\":15857:15860   */\n      dup7\n        /* \"#utility.yul\":15853:15867   */\n      add\n        /* \"#utility.yul\":15846:15884   */\n      mstore\n        /* \"#utility.yul\":15905:15978   */\n      tag_325\n        /* \"#utility.yul\":15973:15977   */\n      dup3\n        /* \"#utility.yul\":15959:15971   */\n      dup3\n        /* \"#utility.yul\":15905:15978   */\n      tag_147\n      jump\t// in\n    tag_325:\n        /* \"#utility.yul\":15897:15978   */\n      swap2\n      pop\n        /* \"#utility.yul\":15751:15989   */\n      pop\n        /* \"#utility.yul\":16070:16074   */\n      0x40\n        /* \"#utility.yul\":16063:16068   */\n      dup4\n        /* \"#utility.yul\":16059:16075   */\n      add\n        /* \"#utility.yul\":16053:16076   */\n      mload\n        /* \"#utility.yul\":16123:16126   */\n      dup5\n        /* \"#utility.yul\":16117:16121   */\n      dup3\n        /* \"#utility.yul\":16113:16127   */\n      sub\n        /* \"#utility.yul\":16106:16110   */\n      0x40\n        /* \"#utility.yul\":16101:16104   */\n      dup7\n        /* \"#utility.yul\":16097:16111   */\n      add\n        /* \"#utility.yul\":16090:16128   */\n      mstore\n        /* \"#utility.yul\":16149:16222   */\n      tag_326\n        /* \"#utility.yul\":16217:16221   */\n      dup3\n        /* \"#utility.yul\":16203:16215   */\n      dup3\n        /* \"#utility.yul\":16149:16222   */\n      tag_147\n      jump\t// in\n    tag_326:\n        /* \"#utility.yul\":16141:16222   */\n      swap2\n      pop\n        /* \"#utility.yul\":15999:16233   */\n      pop\n        /* \"#utility.yul\":16320:16324   */\n      0x60\n        /* \"#utility.yul\":16313:16318   */\n      dup4\n        /* \"#utility.yul\":16309:16325   */\n      add\n        /* \"#utility.yul\":16303:16326   */\n      mload\n        /* \"#utility.yul\":16339:16402   */\n      tag_327\n        /* \"#utility.yul\":16396:16400   */\n      0x60\n        /* \"#utility.yul\":16391:16394   */\n      dup7\n        /* \"#utility.yul\":16387:16401   */\n      add\n        /* \"#utility.yul\":16373:16385   */\n      dup3\n        /* \"#utility.yul\":16339:16402   */\n      tag_149\n      jump\t// in\n    tag_327:\n        /* \"#utility.yul\":16243:16412   */\n      pop\n        /* \"#utility.yul\":16429:16433   */\n      dup1\n        /* \"#utility.yul\":16422:16433   */\n      swap2\n      pop\n        /* \"#utility.yul\":15454:16439   */\n      pop\n        /* \"#utility.yul\":15334:16439   */\n      swap3\n      swap2\n      pop\n      pop\n      jump\t// out\n        /* \"#utility.yul\":16445:16713   */\n    tag_163:\n        /* \"#utility.yul\":16570:16580   */\n      0x00\n        /* \"#utility.yul\":16605:16707   */\n      tag_329\n        /* \"#utility.yul\":16703:16706   */\n      dup4\n        /* \"#utility.yul\":16695:16701   */\n      dup4\n        /* \"#utility.yul\":16605:16707   */\n      tag_162\n      jump\t// in\n    tag_329:\n        /* \"#utility.yul\":16591:16707   */\n      swap1\n      pop\n        /* \"#utility.yul\":16445:16713   */\n      swap3\n      swap2\n      pop\n      pop\n      jump\t// out\n        /* \"#utility.yul\":16719:16860   */\n    tag_164:\n        /* \"#utility.yul\":16817:16821   */\n      0x00\n        /* \"#utility.yul\":16849:16853   */\n      0x20\n        /* \"#utility.yul\":16844:16847   */\n      dup3\n        /* \"#utility.yul\":16840:16854   */\n      add\n        /* \"#utility.yul\":16832:16854   */\n      swap1\n      pop\n        /* \"#utility.yul\":16719:16860   */\n      swap2\n      swap1\n      pop\n      jump\t// out\n        /* \"#utility.yul\":16948:18083   */\n    tag_165:\n        /* \"#utility.yul\":17123:17126   */\n      0x00\n        /* \"#utility.yul\":17152:17234   */\n      tag_332\n        /* \"#utility.yul\":17228:17233   */\n      dup3\n        /* \"#utility.yul\":17152:17234   */\n      tag_159\n      jump\t// in\n    tag_332:\n        /* \"#utility.yul\":17250:17364   */\n      tag_333\n        /* \"#utility.yul\":17357:17363   */\n      dup2\n        /* \"#utility.yul\":17352:17355   */\n      dup6\n        /* \"#utility.yul\":17250:17364   */\n      tag_160\n      jump\t// in\n    tag_333:\n        /* \"#utility.yul\":17243:17364   */\n      swap4\n      pop\n        /* \"#utility.yul\":17390:17393   */\n      dup4\n        /* \"#utility.yul\":17435:17439   */\n      0x20\n        /* \"#utility.yul\":17427:17433   */\n      dup3\n        /* \"#utility.yul\":17423:17440   */\n      mul\n        /* \"#utility.yul\":17418:17421   */\n      dup6\n        /* \"#utility.yul\":17414:17441   */\n      add\n        /* \"#utility.yul\":17465:17549   */\n      tag_334\n        /* \"#utility.yul\":17543:17548   */\n      dup6\n        /* \"#utility.yul\":17465:17549   */\n      tag_161\n      jump\t// in\n    tag_334:\n        /* \"#utility.yul\":17572:17579   */\n      dup1\n        /* \"#utility.yul\":17603:17604   */\n      0x00\n        /* \"#utility.yul\":17588:18038   */\n    tag_335:\n        /* \"#utility.yul\":17613:17619   */\n      dup6\n        /* \"#utility.yul\":17610:17611   */\n      dup2\n        /* \"#utility.yul\":17607:17620   */\n      lt\n        /* \"#utility.yul\":17588:18038   */\n      iszero\n      tag_337\n      jumpi\n        /* \"#utility.yul\":17684:17693   */\n      dup5\n        /* \"#utility.yul\":17678:17682   */\n      dup5\n        /* \"#utility.yul\":17674:17694   */\n      sub\n        /* \"#utility.yul\":17669:17672   */\n      dup10\n        /* \"#utility.yul\":17662:17695   */\n      mstore\n        /* \"#utility.yul\":17735:17741   */\n      dup2\n        /* \"#utility.yul\":17729:17742   */\n      mload\n        /* \"#utility.yul\":17763:17883   */\n      tag_338\n        /* \"#utility.yul\":17878:17882   */\n      dup6\n        /* \"#utility.yul\":17863:17876   */\n      dup3\n        /* \"#utility.yul\":17763:17883   */\n      tag_163\n      jump\t// in\n    tag_338:\n        /* \"#utility.yul\":17755:17883   */\n      swap5\n      pop\n        /* \"#utility.yul\":17906:17994   */\n      tag_339\n        /* \"#utility.yul\":17987:17993   */\n      dup4\n        /* \"#utility.yul\":17906:17994   */\n      tag_164\n      jump\t// in\n    tag_339:\n        /* \"#utility.yul\":17896:17994   */\n      swap3\n      pop\n        /* \"#utility.yul\":18023:18027   */\n      0x20\n        /* \"#utility.yul\":18018:18021   */\n      dup11\n        /* \"#utility.yul\":18014:18028   */\n      add\n        /* \"#utility.yul\":18007:18028   */\n      swap10\n      pop\n        /* \"#utility.yul\":17648:18038   */\n      pop\n        /* \"#utility.yul\":17635:17636   */\n      0x01\n        /* \"#utility.yul\":17632:17633   */\n      dup2\n        /* \"#utility.yul\":17628:17637   */\n      add\n        /* \"#utility.yul\":17623:17637   */\n      swap1\n      pop\n        /* \"#utility.yul\":17588:18038   */\n      jump(tag_335)\n    tag_337:\n        /* \"#utility.yul\":17592:17606   */\n      pop\n        /* \"#utility.yul\":18054:18058   */\n      dup3\n        /* \"#utility.yul\":18047:18058   */\n      swap8\n      pop\n        /* \"#utility.yul\":18074:18077   */\n      dup8\n        /* \"#utility.yul\":18067:18077   */\n      swap6\n      pop\n        /* \"#utility.yul\":17128:18083   */\n      pop\n      pop\n      pop\n      pop\n      pop\n        /* \"#utility.yul\":16948:18083   */\n      swap3\n      swap2\n      pop\n      pop\n      jump\t// out\n        /* \"#utility.yul\":18089:18574   */\n    tag_38:\n        /* \"#utility.yul\":18288:18292   */\n      0x00\n        /* \"#utility.yul\":18326:18328   */\n      0x20\n        /* \"#utility.yul\":18315:18324   */\n      dup3\n        /* \"#utility.yul\":18311:18329   */\n      add\n        /* \"#utility.yul\":18303:18329   */\n      swap1\n      pop\n        /* \"#utility.yul\":18375:18384   */\n      dup2\n        /* \"#utility.yul\":18369:18373   */\n      dup2\n        /* \"#utility.yul\":18365:18385   */\n      sub\n        /* \"#utility.yul\":18361:18362   */\n      0x00\n        /* \"#utility.yul\":18350:18359   */\n      dup4\n        /* \"#utility.yul\":18346:18363   */\n      add\n        /* \"#utility.yul\":18339:18386   */\n      mstore\n        /* \"#utility.yul\":18403:18567   */\n      tag_341\n        /* \"#utility.yul\":18562:18566   */\n      dup2\n        /* \"#utility.yul\":18553:18559   */\n      dup5\n        /* \"#utility.yul\":18403:18567   */\n      tag_165\n      jump\t// in\n    tag_341:\n        /* \"#utility.yul\":18395:18567   */\n      swap1\n      pop\n        /* \"#utility.yul\":18089:18574   */\n      swap3\n      swap2\n      pop\n      pop\n      jump\t// out\n        /* \"#utility.yul\":18580:18728   */\n    tag_166:\n        /* \"#utility.yul\":18682:18693   */\n      0x00\n        /* \"#utility.yul\":18719:18722   */\n      dup2\n        /* \"#utility.yul\":18704:18722   */\n      swap1\n      pop\n        /* \"#utility.yul\":18580:18728   */\n      swap3\n      swap2\n      pop\n      pop\n      jump\t// out\n        /* \"#utility.yul\":18734:19124   */\n    tag_167:\n        /* \"#utility.yul\":18840:18843   */\n      0x00\n        /* \"#utility.yul\":18868:18907   */\n      tag_344\n        /* \"#utility.yul\":18901:18906   */\n      dup3\n        /* \"#utility.yul\":18868:18907   */\n      tag_144\n      jump\t// in\n    tag_344:\n        /* \"#utility.yul\":18923:19012   */\n      tag_345\n        /* \"#utility.yul\":19005:19011   */\n      dup2\n        /* \"#utility.yul\":19000:19003   */\n      dup6\n        /* \"#utility.yul\":18923:19012   */\n      tag_166\n      jump\t// in\n    tag_345:\n        /* \"#utility.yul\":18916:19012   */\n      swap4\n      pop\n        /* \"#utility.yul\":19021:19086   */\n      tag_346\n        /* \"#utility.yul\":19079:19085   */\n      dup2\n        /* \"#utility.yul\":19074:19077   */\n      dup6\n        /* \"#utility.yul\":19067:19071   */\n      0x20\n        /* \"#utility.yul\":19060:19065   */\n      dup7\n        /* \"#utility.yul\":19056:19072   */\n      add\n        /* \"#utility.yul\":19021:19086   */\n      tag_146\n      jump\t// in\n    tag_346:\n        /* \"#utility.yul\":19111:19117   */\n      dup1\n        /* \"#utility.yul\":19106:19109   */\n      dup5\n        /* \"#utility.yul\":19102:19118   */\n      add\n        /* \"#utility.yul\":19095:19118   */\n      swap2\n      pop\n        /* \"#utility.yul\":18844:19124   */\n      pop\n        /* \"#utility.yul\":18734:19124   */\n      swap3\n      swap2\n      pop\n      pop\n      jump\t// out\n        /* \"#utility.yul\":19130:19405   */\n    tag_41:\n        /* \"#utility.yul\":19262:19265   */\n      0x00\n        /* \"#utility.yul\":19284:19379   */\n      tag_348\n        /* \"#utility.yul\":19375:19378   */\n      dup3\n        /* \"#utility.yul\":19366:19372   */\n      dup5\n        /* \"#utility.yul\":19284:19379   */\n      tag_167\n      jump\t// in\n    tag_348:\n        /* \"#utility.yul\":19277:19379   */\n      swap2\n      pop\n        /* \"#utility.yul\":19396:19399   */\n      dup2\n        /* \"#utility.yul\":19389:19399   */\n      swap1\n      pop\n        /* \"#utility.yul\":19130:19405   */\n      swap3\n      swap2\n      pop\n      pop\n      jump\t// out\n        /* \"#utility.yul\":19411:19591   */\n    tag_168:\n        /* \"#utility.yul\":19459:19536   */\n      0x4e487b7100000000000000000000000000000000000000000000000000000000\n        /* \"#utility.yul\":19456:19457   */\n      0x00\n        /* \"#utility.yul\":19449:19537   */\n      mstore\n        /* \"#utility.yul\":19556:19560   */\n      0x22\n        /* \"#utility.yul\":19553:19554   */\n      0x04\n        /* \"#utility.yul\":19546:19561   */\n      mstore\n        /* \"#utility.yul\":19580:19584   */\n      0x24\n        /* \"#utility.yul\":19577:19578   */\n      0x00\n        /* \"#utility.yul\":19570:19585   */\n      revert\n        /* \"#utility.yul\":19597:19917   */\n    tag_46:\n        /* \"#utility.yul\":19641:19647   */\n      0x00\n        /* \"#utility.yul\":19678:19679   */\n      0x02\n        /* \"#utility.yul\":19672:19676   */\n      dup3\n        /* \"#utility.yul\":19668:19680   */\n      div\n        /* \"#utility.yul\":19658:19680   */\n      swap1\n      pop\n        /* \"#utility.yul\":19725:19726   */\n      0x01\n        /* \"#utility.yul\":19719:19723   */\n      dup3\n        /* \"#utility.yul\":19715:19727   */\n      and\n        /* \"#utility.yul\":19746:19764   */\n      dup1\n        /* \"#utility.yul\":19736:19817   */\n      tag_351\n      jumpi\n        /* \"#utility.yul\":19802:19806   */\n      0x7f\n        /* \"#utility.yul\":19794:19800   */\n      dup3\n        /* \"#utility.yul\":19790:19807   */\n      and\n        /* \"#utility.yul\":19780:19807   */\n      swap2\n      pop\n        /* \"#utility.yul\":19736:19817   */\n    tag_351:\n        /* \"#utility.yul\":19864:19866   */\n      0x20\n        /* \"#utility.yul\":19856:19862   */\n      dup3\n        /* \"#utility.yul\":19853:19867   */\n      lt\n        /* \"#utility.yul\":19833:19851   */\n      dup2\n        /* \"#utility.yul\":19830:19868   */\n      sub\n        /* \"#utility.yul\":19827:19911   */\n      tag_352\n      jumpi\n        /* \"#utility.yul\":19883:19901   */\n      tag_353\n      tag_168\n      jump\t// in\n    tag_353:\n        /* \"#utility.yul\":19827:19911   */\n    tag_352:\n        /* \"#utility.yul\":19648:19917   */\n      pop\n        /* \"#utility.yul\":19597:19917   */\n      swap2\n      swap1\n      pop\n      jump\t// out\n        /* \"#utility.yul\":19923:20064   */\n    tag_169:\n        /* \"#utility.yul\":19972:19976   */\n      0x00\n        /* \"#utility.yul\":19995:19998   */\n      dup2\n        /* \"#utility.yul\":19987:19998   */\n      swap1\n      pop\n        /* \"#utility.yul\":20018:20021   */\n      dup2\n        /* \"#utility.yul\":20015:20016   */\n      0x00\n        /* \"#utility.yul\":20008:20022   */\n      mstore\n        /* \"#utility.yul\":20052:20056   */\n      0x20\n        /* \"#utility.yul\":20049:20050   */\n      0x00\n        /* \"#utility.yul\":20039:20057   */\n      keccak256\n        /* \"#utility.yul\":20031:20057   */\n      swap1\n      pop\n        /* \"#utility.yul\":19923:20064   */\n      swap2\n      swap1\n      pop\n      jump\t// out\n        /* \"#utility.yul\":20070:20163   */\n    tag_170:\n        /* \"#utility.yul\":20107:20113   */\n      0x00\n        /* \"#utility.yul\":20154:20156   */\n      0x20\n        /* \"#utility.yul\":20149:20151   */\n      0x1f\n        /* \"#utility.yul\":20142:20147   */\n      dup4\n        /* \"#utility.yul\":20138:20152   */\n      add\n        /* \"#utility.yul\":20134:20157   */\n      div\n        /* \"#utility.yul\":20124:20157   */\n      swap1\n      pop\n        /* \"#utility.yul\":20070:20163   */\n      swap2\n      swap1\n      pop\n      jump\t// out\n        /* \"#utility.yul\":20169:20276   */\n    tag_171:\n        /* \"#utility.yul\":20213:20221   */\n      0x00\n        /* \"#utility.yul\":20263:20268   */\n      dup3\n        /* \"#utility.yul\":20257:20261   */\n      dup3\n        /* \"#utility.yul\":20253:20269   */\n      shl\n        /* \"#utility.yul\":20232:20269   */\n      swap1\n      pop\n        /* \"#utility.yul\":20169:20276   */\n      swap3\n      swap2\n      pop\n      pop\n      jump\t// out\n        /* \"#utility.yul\":20282:20675   */\n    tag_172:\n        /* \"#utility.yul\":20351:20357   */\n      0x00\n        /* \"#utility.yul\":20401:20402   */\n      0x08\n        /* \"#utility.yul\":20389:20399   */\n      dup4\n        /* \"#utility.yul\":20385:20403   */\n      mul\n        /* \"#utility.yul\":20424:20521   */\n      tag_358\n        /* \"#utility.yul\":20454:20520   */\n      0xffffffffffffffffffffffffffffffffffffffffffffffffffffffffffffffff\n        /* \"#utility.yul\":20443:20452   */\n      dup3\n        /* \"#utility.yul\":20424:20521   */\n      tag_171\n      jump\t// in\n    tag_358:\n        /* \"#utility.yul\":20542:20581   */\n      tag_359\n        /* \"#utility.yul\":20572:20580   */\n      dup7\n        /* \"#utility.yul\":20561:20570   */\n      dup4\n        /* \"#utility.yul\":20542:20581   */\n      tag_171\n      jump\t// in\n    tag_359:\n        /* \"#utility.yul\":20530:20581   */\n      swap6\n      pop\n        /* \"#utility.yul\":20614:20618   */\n      dup1\n        /* \"#utility.yul\":20610:20619   */\n      not\n        /* \"#utility.yul\":20603:20608   */\n      dup5\n        /* \"#utility.yul\":20599:20620   */\n      and\n        /* \"#utility.yul\":20590:20620   */\n      swap4\n      pop\n        /* \"#utility.yul\":20663:20667   */\n      dup1\n        /* \"#utility.yul\":20653:20661   */\n      dup7\n        /* \"#utility.yul\":20649:20668   */\n      and\n        /* \"#utility.yul\":20642:20647   */\n      dup5\n        /* \"#utility.yul\":20639:20669   */\n      or\n        /* \"#utility.yul\":20629:20669   */\n      swap3\n      pop\n        /* \"#utility.yul\":20358:20675   */\n      pop\n      pop\n        /* \"#utility.yul\":20282:20675   */\n      swap4\n      swap3\n      pop\n      pop\n      pop\n      jump\t// out\n        /* \"#utility.yul\":20681:20741   */\n    tag_173:\n        /* \"#utility.yul\":20709:20712   */\n      0x00\n        /* \"#utility.yul\":20730:20735   */\n      dup2\n        /* \"#utility.yul\":20723:20735   */\n      swap1\n      pop\n        /* \"#utility.yul\":20681:20741   */\n      swap2\n      swap1\n      pop\n      jump\t// out\n        /* \"#utility.yul\":20747:20889   */\n    tag_174:\n        /* \"#utility.yul\":20797:20806   */\n      0x00\n        /* \"#utility.yul\":20830:20883   */\n      tag_362\n        /* \"#utility.yul\":20848:20882   */\n      tag_363\n        /* \"#utility.yul\":20857:20881   */\n      tag_364\n        /* \"#utility.yul\":20875:20880   */\n      dup5\n        /* \"#utility.yul\":20857:20881   */\n      tag_148\n      jump\t// in\n    tag_364:\n        /* \"#utility.yul\":20848:20882   */\n      tag_173\n      jump\t// in\n    tag_363:\n        /* \"#utility.yul\":20830:20883   */\n      tag_148\n      jump\t// in\n    tag_362:\n        /* \"#utility.yul\":20817:20883   */\n      swap1\n      pop\n        /* \"#utility.yul\":20747:20889   */\n      swap2\n      swap1\n      pop\n      jump\t// out\n        /* \"#utility.yul\":20895:20970   */\n    tag_175:\n        /* \"#utility.yul\":20938:20941   */\n      0x00\n        /* \"#utility.yul\":20959:20964   */\n      dup2\n        /* \"#utility.yul\":20952:20964   */\n      swap1\n      pop\n        /* \"#utility.yul\":20895:20970   */\n      swap2\n      swap1\n      pop\n      jump\t// out\n        /* \"#utility.yul\":20976:21245   */\n    tag_176:\n        /* \"#utility.yul\":21086:21125   */\n      tag_367\n        /* \"#utility.yul\":21117:21124   */\n      dup4\n        /* \"#utility.yul\":21086:21125   */\n      tag_174\n      jump\t// in\n    tag_367:\n        /* \"#utility.yul\":21147:21238   */\n      tag_368\n        /* \"#utility.yul\":21196:21237   */\n      tag_369\n        /* \"#utility.yul\":21220:21236   */\n      dup3\n        /* \"#utility.yul\":21196:21237   */\n      tag_175\n      jump\t// in\n    tag_369:\n        /* \"#utility.yul\":21188:21194   */\n      dup5\n        /* \"#utility.yul\":21181:21185   */\n      dup5\n        /* \"#utility.yul\":21175:21186   */\n      sload\n        /* \"#utility.yul\":21147:21238   */\n      tag_172\n      jump\t// in\n    tag_368:\n        /* \"#utility.yul\":21141:21145   */\n      dup3\n        /* \"#utility.yul\":21134:21239   */\n      sstore\n        /* \"#utility.yul\":21052:21245   */\n      pop\n        /* \"#utility.yul\":20976:21245   */\n      pop\n      pop\n      pop\n      jump\t// out\n        /* \"#utility.yul\":21251:21324   */\n    tag_177:\n        /* \"#utility.yul\":21296:21299   */\n      0x00\n        /* \"#utility.yul\":21251:21324   */\n      swap1\n      jump\t// out\n        /* \"#utility.yul\":21330:21519   */\n    tag_178:\n        /* \"#utility.yul\":21407:21439   */\n      tag_372\n      tag_177\n      jump\t// in\n    tag_372:\n        /* \"#utility.yul\":21448:21513   */\n      tag_373\n        /* \"#utility.yul\":21506:21512   */\n      dup2\n        /* \"#utility.yul\":21498:21504   */\n      dup5\n        /* \"#utility.yul\":21492:21496   */\n      dup5\n        /* \"#utility.yul\":21448:21513   */\n      tag_176\n      jump\t// in\n    tag_373:\n        /* \"#utility.yul\":21383:21519   */\n      pop\n        /* \"#utility.yul\":21330:21519   */\n      pop\n      pop\n      jump\t// out\n        /* \"#utility.yul\":21525:21711   */\n    tag_179:\n        /* \"#utility.yul\":21585:21705   */\n    tag_375:\n        /* \"#utility.yul\":21602:21605   */\n      dup2\n        /* \"#utility.yul\":21595:21600   */\n      dup2\n        /* \"#utility.yul\":21592:21606   */\n      lt\n        /* \"#utility.yul\":21585:21705   */\n      iszero\n      tag_377\n      jumpi\n        /* \"#utility.yul\":21656:21695   */\n      tag_378\n        /* \"#utility.yul\":21693:21694   */\n      0x00\n        /* \"#utility.yul\":21686:21691   */\n      dup3\n        /* \"#utility.yul\":21656:21695   */\n      tag_178\n      jump\t// in\n    tag_378:\n        /* \"#utility.yul\":21629:21630   */\n      0x01\n        /* \"#utility.yul\":21622:21627   */\n      dup2\n        /* \"#utility.yul\":21618:21631   */\n      add\n        /* \"#utility.yul\":21609:21631   */\n      swap1\n      pop\n        /* \"#utility.yul\":21585:21705   */\n      jump(tag_375)\n    tag_377:\n        /* \"#utility.yul\":21525:21711   */\n      pop\n      pop\n      jump\t// out\n        /* \"#utility.yul\":21717:22260   */\n    tag_180:\n        /* \"#utility.yul\":21818:21820   */\n      0x1f\n        /* \"#utility.yul\":21813:21816   */\n      dup3\n        /* \"#utility.yul\":21810:21821   */\n      gt\n        /* \"#utility.yul\":21807:22253   */\n      iszero\n      tag_380\n      jumpi\n        /* \"#utility.yul\":21852:21890   */\n      tag_381\n        /* \"#utility.yul\":21884:21889   */\n      dup2\n        /* \"#utility.yul\":21852:21890   */\n      tag_169\n      jump\t// in\n    tag_381:\n        /* \"#utility.yul\":21936:21965   */\n      tag_382\n        /* \"#utility.yul\":21954:21964   */\n      dup5\n        /* \"#utility.yul\":21936:21965   */\n      tag_170\n      jump\t// in\n    tag_382:\n        /* \"#utility.yul\":21926:21934   */\n      dup2\n        /* \"#utility.yul\":21922:21966   */\n      add\n        /* \"#utility.yul\":22119:22121   */\n      0x20\n        /* \"#utility.yul\":22107:22117   */\n      dup6\n        /* \"#utility.yul\":22104:22122   */\n      lt\n        /* \"#utility.yul\":22101:22150   */\n      iszero\n      tag_383\n      jumpi\n        /* \"#utility.yul\":22140:22148   */\n      dup2\n        /* \"#utility.yul\":22125:22148   */\n      swap1\n      pop\n        /* \"#utility.yul\":22101:22150   */\n    tag_383:\n        /* \"#utility.yul\":22163:22243   */\n      tag_384\n        /* \"#utility.yul\":22219:22241   */\n      tag_385\n        /* \"#utility.yul\":22237:22240   */\n      dup6\n        /* \"#utility.yul\":22219:22241   */\n      tag_170\n      jump\t// in\n    tag_385:\n        /* \"#utility.yul\":22209:22217   */\n      dup4\n        /* \"#utility.yul\":22205:22242   */\n      add\n        /* \"#utility.yul\":22192:22203   */\n      dup3\n        /* \"#utility.yul\":22163:22243   */\n      tag_179\n      jump\t// in\n    tag_384:\n        /* \"#utility.yul\":21822:22253   */\n      pop\n      pop\n        /* \"#utility.yul\":21807:22253   */\n    tag_380:\n        /* \"#utility.yul\":21717:22260   */\n      pop\n      pop\n      pop\n      jump\t// out\n        /* \"#utility.yul\":22266:22383   */\n    tag_181:\n        /* \"#utility.yul\":22320:22328   */\n      0x00\n        /* \"#utility.yul\":22370:22375   */\n      dup3\n        /* \"#utility.yul\":22364:22368   */\n      dup3\n        /* \"#utility.yul\":22360:22376   */\n      shr\n        /* \"#utility.yul\":22339:22376   */\n      swap1\n      pop\n        /* \"#utility.yul\":22266:22383   */\n      swap3\n      swap2\n      pop\n      pop\n      jump\t// out\n        /* \"#utility.yul\":22389:22558   */\n    tag_182:\n        /* \"#utility.yul\":22433:22439   */\n      0x00\n        /* \"#utility.yul\":22466:22517   */\n      tag_388\n        /* \"#utility.yul\":22514:22515   */\n      0x00\n        /* \"#utility.yul\":22510:22516   */\n      not\n        /* \"#utility.yul\":22502:22507   */\n      dup5\n        /* \"#utility.yul\":22499:22500   */\n      0x08\n        /* \"#utility.yul\":22495:22508   */\n      mul\n        /* \"#utility.yul\":22466:22517   */\n      tag_181\n      jump\t// in\n    tag_388:\n        /* \"#utility.yul\":22462:22518   */\n      not\n        /* \"#utility.yul\":22547:22551   */\n      dup1\n        /* \"#utility.yul\":22541:22545   */\n      dup4\n        /* \"#utility.yul\":22537:22552   */\n      and\n        /* \"#utility.yul\":22527:22552   */\n      swap2\n      pop\n        /* \"#utility.yul\":22440:22558   */\n      pop\n        /* \"#utility.yul\":22389:22558   */\n      swap3\n      swap2\n      pop\n      pop\n      jump\t// out\n        /* \"#utility.yul\":22563:22858   */\n    tag_183:\n        /* \"#utility.yul\":22639:22643   */\n      0x00\n        /* \"#utility.yul\":22785:22814   */\n      tag_390\n        /* \"#utility.yul\":22810:22813   */\n      dup4\n        /* \"#utility.yul\":22804:22808   */\n      dup4\n        /* \"#utility.yul\":22785:22814   */\n      tag_182\n      jump\t// in\n    tag_390:\n        /* \"#utility.yul\":22777:22814   */\n      swap2\n      pop\n        /* \"#utility.yul\":22847:22850   */\n      dup3\n        /* \"#utility.yul\":22844:22845   */\n      0x02\n        /* \"#utility.yul\":22840:22851   */\n      mul\n        /* \"#utility.yul\":22834:22838   */\n      dup3\n        /* \"#utility.yul\":22831:22852   */\n      or\n        /* \"#utility.yul\":22823:22852   */\n      swap1\n      pop\n        /* \"#utility.yul\":22563:22858   */\n      swap3\n      swap2\n      pop\n      pop\n      jump\t// out\n        /* \"#utility.yul\":22863:24258   */\n    tag_82:\n        /* \"#utility.yul\":22980:23017   */\n      tag_392\n        /* \"#utility.yul\":23013:23016   */\n      dup3\n        /* \"#utility.yul\":22980:23017   */\n      tag_144\n      jump\t// in\n    tag_392:\n        /* \"#utility.yul\":23082:23100   */\n      0xffffffffffffffff\n        /* \"#utility.yul\":23074:23080   */\n      dup2\n        /* \"#utility.yul\":23071:23101   */\n      gt\n        /* \"#utility.yul\":23068:23124   */\n      iszero\n      tag_393\n      jumpi\n        /* \"#utility.yul\":23104:23122   */\n      tag_394\n      tag_134\n      jump\t// in\n    tag_394:\n        /* \"#utility.yul\":23068:23124   */\n    tag_393:\n        /* \"#utility.yul\":23148:23186   */\n      tag_395\n        /* \"#utility.yul\":23180:23184   */\n      dup3\n        /* \"#utility.yul\":23174:23185   */\n      sload\n        /* \"#utility.yul\":23148:23186   */\n      tag_46\n      jump\t// in\n    tag_395:\n        /* \"#utility.yul\":23233:23300   */\n      tag_396\n        /* \"#utility.yul\":23293:23299   */\n      dup3\n        /* \"#utility.yul\":23285:23291   */\n      dup3\n        /* \"#utility.yul\":23279:23283   */\n      dup6\n        /* \"#utility.yul\":23233:23300   */\n      tag_180\n      jump\t// in\n    tag_396:\n        /* \"#utility.yul\":23327:23328   */\n      0x00\n        /* \"#utility.yul\":23351:23355   */\n      0x20\n        /* \"#utility.yul\":23338:23355   */\n      swap1\n      pop\n        /* \"#utility.yul\":23383:23385   */\n      0x1f\n        /* \"#utility.yul\":23375:23381   */\n      dup4\n        /* \"#utility.yul\":23372:23386   */\n      gt\n        /* \"#utility.yul\":23400:23401   */\n      0x01\n        /* \"#utility.yul\":23395:24013   */\n      dup2\n      eq\n      tag_398\n      jumpi\n        /* \"#utility.yul\":24057:24058   */\n      0x00\n        /* \"#utility.yul\":24074:24080   */\n      dup5\n        /* \"#utility.yul\":24071:24148   */\n      iszero\n      tag_399\n      jumpi\n        /* \"#utility.yul\":24123:24132   */\n      dup3\n        /* \"#utility.yul\":24118:24121   */\n      dup8\n        /* \"#utility.yul\":24114:24133   */\n      add\n        /* \"#utility.yul\":24108:24134   */\n      mload\n        /* \"#utility.yul\":24099:24134   */\n      swap1\n      pop\n        /* \"#utility.yul\":24071:24148   */\n    tag_399:\n        /* \"#utility.yul\":24174:24241   */\n      tag_400\n        /* \"#utility.yul\":24234:24240   */\n      dup6\n        /* \"#utility.yul\":24227:24232   */\n      dup3\n        /* \"#utility.yul\":24174:24241   */\n      tag_183\n      jump\t// in\n    tag_400:\n        /* \"#utility.yul\":24168:24172   */\n      dup7\n        /* \"#utility.yul\":24161:24242   */\n      sstore\n        /* \"#utility.yul\":24030:24252   */\n      pop\n        /* \"#utility.yul\":23365:24252   */\n      jump(tag_397)\n        /* \"#utility.yul\":23395:24013   */\n    tag_398:\n        /* \"#utility.yul\":23447:23451   */\n      0x1f\n        /* \"#utility.yul\":23443:23452   */\n      not\n        /* \"#utility.yul\":23435:23441   */\n      dup5\n        /* \"#utility.yul\":23431:23453   */\n      and\n        /* \"#utility.yul\":23481:23518   */\n      tag_401\n        /* \"#utility.yul\":23513:23517   */\n      dup7\n        /* \"#utility.yul\":23481:23518   */\n      tag_169\n      jump\t// in\n    tag_401:\n        /* \"#utility.yul\":23540:23541   */\n      0x00\n        /* \"#utility.yul\":23554:23762   */\n    tag_402:\n        /* \"#utility.yul\":23568:23575   */\n      dup3\n        /* \"#utility.yul\":23565:23566   */\n      dup2\n        /* \"#utility.yul\":23562:23576   */\n      lt\n        /* \"#utility.yul\":23554:23762   */\n      iszero\n      tag_404\n      jumpi\n        /* \"#utility.yul\":23647:23656   */\n      dup5\n        /* \"#utility.yul\":23642:23645   */\n      dup10\n        /* \"#utility.yul\":23638:23657   */\n      add\n        /* \"#utility.yul\":23632:23658   */\n      mload\n        /* \"#utility.yul\":23624:23630   */\n      dup3\n        /* \"#utility.yul\":23617:23659   */\n      sstore\n        /* \"#utility.yul\":23698:23699   */\n      0x01\n        /* \"#utility.yul\":23690:23696   */\n      dup3\n        /* \"#utility.yul\":23686:23700   */\n      add\n        /* \"#utility.yul\":23676:23700   */\n      swap2\n      pop\n        /* \"#utility.yul\":23745:23747   */\n      0x20\n        /* \"#utility.yul\":23734:23743   */\n      dup6\n        /* \"#utility.yul\":23730:23748   */\n      add\n        /* \"#utility.yul\":23717:23748   */\n      swap5\n      pop\n        /* \"#utility.yul\":23591:23595   */\n      0x20\n        /* \"#utility.yul\":23588:23589   */\n      dup2\n        /* \"#utility.yul\":23584:23596   */\n      add\n        /* \"#utility.yul\":23579:23596   */\n      swap1\n      pop\n        /* \"#utility.yul\":23554:23762   */\n      jump(tag_402)\n    tag_404:\n        /* \"#utility.yul\":23790:23796   */\n      dup7\n        /* \"#utility.yul\":23781:23788   */\n      dup4\n        /* \"#utility.yul\":23778:23797   */\n      lt\n        /* \"#utility.yul\":23775:23954   */\n      iszero\n      tag_405\n      jumpi\n        /* \"#utility.yul\":23848:23857   */\n      dup5\n        /* \"#utility.yul\":23843:23846   */\n      dup10\n        /* \"#utility.yul\":23839:23858   */\n      add\n        /* \"#utility.yul\":23833:23859   */\n      mload\n        /* \"#utility.yul\":23891:23939   */\n      tag_406\n        /* \"#utility.yul\":23933:23937   */\n      0x1f\n        /* \"#utility.yul\":23925:23931   */\n      dup10\n        /* \"#utility.yul\":23921:23938   */\n      and\n        /* \"#utility.yul\":23910:23919   */\n      dup3\n        /* \"#utility.yul\":23891:23939   */\n      tag_182\n      jump\t// in\n    tag_406:\n        /* \"#utility.yul\":23883:23889   */\n      dup4\n        /* \"#utility.yul\":23876:23940   */\n      sstore\n        /* \"#utility.yul\":23798:23954   */\n      pop\n        /* \"#utility.yul\":23775:23954   */\n    tag_405:\n        /* \"#utility.yul\":24000:24001   */\n      0x01\n        /* \"#utility.yul\":23996:23997   */\n      0x02\n        /* \"#utility.yul\":23988:23994   */\n      dup9\n        /* \"#utility.yul\":23984:23998   */\n      mul\n        /* \"#utility.yul\":23980:24002   */\n      add\n        /* \"#utility.yul\":23974:23978   */\n      dup9\n        /* \"#utility.yul\":23967:24003   */\n      sstore\n        /* \"#utility.yul\":23402:24013   */\n      pop\n      pop\n      pop\n        /* \"#utility.yul\":23365:24252   */\n    tag_397:\n      pop\n        /* \"#utility.yul\":22955:24258   */\n      pop\n      pop\n      pop\n        /* \"#utility.yul\":22863:24258   */\n      pop\n      pop\n      jump\t// out\n\n    auxdata: 0xa264697066735822122059ac58bc482342c9ab7eb556e8592e96cef96176b5faaf57dd292ce7a706d8ab64736f6c63430008130033\n}\n",
				"bytecode": {
					"linkReferences": {},
					"object": "608060405234801561001057600080fd5b50611748806100206000396000f3fe608060405234801561001057600080fd5b50600436106100625760003560e01c806305f3112d146100675780633b51650d146100975780637079d3a0146100ca578063adaca9ed146100e6578063c4734a0914610102578063e360736e14610136575b600080fd5b610081600480360381019061007c9190610cca565b610166565b60405161008e9190610ef1565b60405180910390f35b6100b160048036038101906100ac9190610f3f565b6103ad565b6040516100c19493929190610ff4565b60405180910390f35b6100e460048036038101906100df919061104e565b6105a8565b005b61010060048036038101906100fb9190611139565b610675565b005b61011c60048036038101906101179190610f3f565b610732565b60405161012d959493929190611224565b60405180910390f35b610150600480360381019061014b9190610cca565b610933565b60405161015d91906113bf565b60405180910390f35b6060600182604051610178919061141d565b9081526020016040518091039020805480602002602001604051908101604052809291908181526020016000905b828210156103a257838290600052602060002090600502016040518060a00160405290816000820180546101d990611463565b80601f016020809104026020016040519081016040528092919081815260200182805461020590611463565b80156102525780601f1061022757610100808354040283529160200191610252565b820191906000526020600020905b81548152906001019060200180831161023557829003601f168201915b5050505050815260200160018201805461026b90611463565b80601f016020809104026020016040519081016040528092919081815260200182805461029790611463565b80156102e45780601f106102b9576101008083540402835291602001916102e4565b820191906000526020600020905b8154815290600101906020018083116102c757829003601f168201915b505050505081526020016002820154815260200160038201805461030790611463565b80601f016020809104026020016040519081016040528092919081815260200182805461033390611463565b80156103805780601f1061035557610100808354040283529160200191610380565b820191906000526020600020905b81548152906001019060200180831161036357829003601f168201915b50505050508152602001600482015481525050815260200190600101906101a6565b505050509050919050565b60008280516020810182018051848252602083016020850120818352809550505050505081815481106103df57600080fd5b90600052602060002090600402016000915091505080600001805461040390611463565b80601f016020809104026020016040519081016040528092919081815260200182805461042f90611463565b801561047c5780601f106104515761010080835404028352916020019161047c565b820191906000526020600020905b81548152906001019060200180831161045f57829003601f168201915b50505050509080600101805461049190611463565b80601f01602080910402602001604051908101604052809291908181526020018280546104bd90611463565b801561050a5780601f106104df5761010080835404028352916020019161050a565b820191906000526020600020905b8154815290600101906020018083116104ed57829003601f168201915b50505050509080600201805461051f90611463565b80601f016020809104026020016040519081016040528092919081815260200182805461054b90611463565b80156105985780601f1061056d57610100808354040283529160200191610598565b820191906000526020600020905b81548152906001019060200180831161057b57829003601f168201915b5050505050908060030154905084565b6001856040516105b8919061141d565b90815260200160405180910390206040518060a00160405280868152602001858152602001848152602001838152602001428152509080600181540180825580915050600190039060005260206000209060050201600090919091909150600082015181600001908161062b9190611640565b5060208201518160010190816106419190611640565b506040820151816002015560608201518160030190816106619190611640565b506080820151816004015550505050505050565b600085604051610685919061141d565b9081526020016040518091039020604051806080016040528086815260200185815260200184815260200183815250908060018154018082558091505060019003906000526020600020906004020160009091909190915060008201518160000190816106f29190611640565b5060208201518160010190816107089190611640565b50604082015181600201908161071e9190611640565b506060820151816003015550505050505050565b600182805160208101820180518482526020830160208501208183528095505050505050818154811061076457600080fd5b90600052602060002090600502016000915091505080600001805461078890611463565b80601f01602080910402602001604051908101604052809291908181526020018280546107b490611463565b80156108015780601f106107d657610100808354040283529160200191610801565b820191906000526020600020905b8154815290600101906020018083116107e457829003601f168201915b50505050509080600101805461081690611463565b80601f016020809104026020016040519081016040528092919081815260200182805461084290611463565b801561088f5780601f106108645761010080835404028352916020019161088f565b820191906000526020600020905b81548152906001019060200180831161087257829003601f168201915b5050505050908060020154908060030180546108aa90611463565b80601f01602080910402602001604051908101604052809291908181526020018280546108d690611463565b80156109235780601f106108f857610100808354040283529160200191610923565b820191906000526020600020905b81548152906001019060200180831161090657829003601f168201915b5050505050908060040154905085565b6060600082604051610945919061141d565b9081526020016040518091039020805480602002602001604051908101604052809291908181526020016000905b82821015610b6557838290600052602060002090600402016040518060800160405290816000820180546109a690611463565b80601f01602080910402602001604051908101604052809291908181526020018280546109d290611463565b8015610a1f5780601f106109f457610100808354040283529160200191610a1f565b820191906000526020600020905b815481529060010190602001808311610a0257829003601f168201915b50505050508152602001600182018054610a3890611463565b80601f0160208091040260200160405190810160405280929190818152602001828054610a6490611463565b8015610ab15780601f10610a8657610100808354040283529160200191610ab1565b820191906000526020600020905b815481529060010190602001808311610a9457829003601f168201915b50505050508152602001600282018054610aca90611463565b80601f0160208091040260200160405190810160405280929190818152602001828054610af690611463565b8015610b435780601f10610b1857610100808354040283529160200191610b43565b820191906000526020600020905b815481529060010190602001808311610b2657829003601f168201915b5050505050815260200160038201548152505081526020019060010190610973565b505050509050919050565b6000604051905090565b600080fd5b600080fd5b600080fd5b600080fd5b6000601f19601f8301169050919050565b7f4e487b7100000000000000000000000000000000000000000000000000000000600052604160045260246000fd5b610bd782610b8e565b810181811067ffffffffffffffff82111715610bf657610bf5610b9f565b5b80604052505050565b6000610c09610b70565b9050610c158282610bce565b919050565b600067ffffffffffffffff821115610c3557610c34610b9f565b5b610c3e82610b8e565b9050602081019050919050565b82818337600083830152505050565b6000610c6d610c6884610c1a565b610bff565b905082815260208101848484011115610c8957610c88610b89565b5b610c94848285610c4b565b509392505050565b600082601f830112610cb157610cb0610b84565b5b8135610cc1848260208601610c5a565b91505092915050565b600060208284031215610ce057610cdf610b7a565b5b600082013567ffffffffffffffff811115610cfe57610cfd610b7f565b5b610d0a84828501610c9c565b91505092915050565b600081519050919050565b600082825260208201905092915050565b6000819050602082019050919050565b600081519050919050565b600082825260208201905092915050565b60005b83811015610d79578082015181840152602081019050610d5e565b60008484015250505050565b6000610d9082610d3f565b610d9a8185610d4a565b9350610daa818560208601610d5b565b610db381610b8e565b840191505092915050565b6000819050919050565b610dd181610dbe565b82525050565b600060a0830160008301518482036000860152610df48282610d85565b91505060208301518482036020860152610e0e8282610d85565b9150506040830151610e236040860182610dc8565b5060608301518482036060860152610e3b8282610d85565b9150506080830151610e506080860182610dc8565b508091505092915050565b6000610e678383610dd7565b905092915050565b6000602082019050919050565b6000610e8782610d13565b610e918185610d1e565b935083602082028501610ea385610d2f565b8060005b85811015610edf5784840389528151610ec08582610e5b565b9450610ecb83610e6f565b925060208a01995050600181019050610ea7565b50829750879550505050505092915050565b60006020820190508181036000830152610f0b8184610e7c565b905092915050565b610f1c81610dbe565b8114610f2757600080fd5b50565b600081359050610f3981610f13565b92915050565b60008060408385031215610f5657610f55610b7a565b5b600083013567ffffffffffffffff811115610f7457610f73610b7f565b5b610f8085828601610c9c565b9250506020610f9185828601610f2a565b9150509250929050565b600082825260208201905092915050565b6000610fb782610d3f565b610fc18185610f9b565b9350610fd1818560208601610d5b565b610fda81610b8e565b840191505092915050565b610fee81610dbe565b82525050565b6000608082019050818103600083015261100e8187610fac565b905081810360208301526110228186610fac565b905081810360408301526110368185610fac565b90506110456060830184610fe5565b95945050505050565b600080600080600060a0868803121561106a57611069610b7a565b5b600086013567ffffffffffffffff81111561108857611087610b7f565b5b61109488828901610c9c565b955050602086013567ffffffffffffffff8111156110b5576110b4610b7f565b5b6110c188828901610c9c565b945050604086013567ffffffffffffffff8111156110e2576110e1610b7f565b5b6110ee88828901610c9c565b93505060606110ff88828901610f2a565b925050608086013567ffffffffffffffff8111156111205761111f610b7f565b5b61112c88828901610c9c565b9150509295509295909350565b600080600080600060a0868803121561115557611154610b7a565b5b600086013567ffffffffffffffff81111561117357611172610b7f565b5b61117f88828901610c9c565b955050602086013567ffffffffffffffff8111156111a05761119f610b7f565b5b6111ac88828901610c9c565b945050604086013567ffffffffffffffff8111156111cd576111cc610b7f565b5b6111d988828901610c9c565b935050606086013567ffffffffffffffff8111156111fa576111f9610b7f565b5b61120688828901610c9c565b925050608061121788828901610f2a565b9150509295509295909350565b600060a082019050818103600083015261123e8188610fac565b905081810360208301526112528187610fac565b90506112616040830186610fe5565b81810360608301526112738185610fac565b90506112826080830184610fe5565b9695505050505050565b600081519050919050565b600082825260208201905092915050565b6000819050602082019050919050565b600060808301600083015184820360008601526112d58282610d85565b915050602083015184820360208601526112ef8282610d85565b915050604083015184820360408601526113098282610d85565b915050606083015161131e6060860182610dc8565b508091505092915050565b600061133583836112b8565b905092915050565b6000602082019050919050565b60006113558261128c565b61135f8185611297565b935083602082028501611371856112a8565b8060005b858110156113ad578484038952815161138e8582611329565b94506113998361133d565b925060208a01995050600181019050611375565b50829750879550505050505092915050565b600060208201905081810360008301526113d9818461134a565b905092915050565b600081905092915050565b60006113f782610d3f565b61140181856113e1565b9350611411818560208601610d5b565b80840191505092915050565b600061142982846113ec565b915081905092915050565b7f4e487b7100000000000000000000000000000000000000000000000000000000600052602260045260246000fd5b6000600282049050600182168061147b57607f821691505b60208210810361148e5761148d611434565b5b50919050565b60008190508160005260206000209050919050565b60006020601f8301049050919050565b600082821b905092915050565b6000600883026114f67fffffffffffffffffffffffffffffffffffffffffffffffffffffffffffffffff826114b9565b61150086836114b9565b95508019841693508086168417925050509392505050565b6000819050919050565b600061153d61153861153384610dbe565b611518565b610dbe565b9050919050565b6000819050919050565b61155783611522565b61156b61156382611544565b8484546114c6565b825550505050565b600090565b611580611573565b61158b81848461154e565b505050565b5b818110156115af576115a4600082611578565b600181019050611591565b5050565b601f8211156115f4576115c581611494565b6115ce846114a9565b810160208510156115dd578190505b6115f16115e9856114a9565b830182611590565b50505b505050565b600082821c905092915050565b6000611617600019846008026115f9565b1980831691505092915050565b60006116308383611606565b9150826002028217905092915050565b61164982610d3f565b67ffffffffffffffff81111561166257611661610b9f565b5b61166c8254611463565b6116778282856115b3565b600060209050601f8311600181146116aa5760008415611698578287015190505b6116a28582611624565b86555061170a565b601f1984166116b886611494565b60005b828110156116e0578489015182556001820191506020850194506020810190506116bb565b868310156116fd57848901516116f9601f891682611606565b8355505b6001600288020188555050505b50505050505056fea264697066735822122059ac58bc482342c9ab7eb556e8592e96cef96176b5faaf57dd292ce7a706d8ab64736f6c63430008130033",
					"opcodes": "PUSH1 0x80 PUSH1 0x40 MSTORE CALLVALUE DUP1 ISZERO PUSH2 0x10 JUMPI PUSH1 0x0 DUP1 REVERT JUMPDEST POP PUSH2 0x1748 DUP1 PUSH2 0x20 PUSH1 0x0 CODECOPY PUSH1 0x0 RETURN INVALID PUSH1 0x80 PUSH1 0x40 MSTORE CALLVALUE DUP1 ISZERO PUSH2 0x10 JUMPI PUSH1 0x0 DUP1 REVERT JUMPDEST POP PUSH1 0x4 CALLDATASIZE LT PUSH2 0x62 JUMPI PUSH1 0x0 CALLDATALOAD PUSH1 0xE0 SHR DUP1 PUSH4 0x5F3112D EQ PUSH2 0x67 JUMPI DUP1 PUSH4 0x3B51650D EQ PUSH2 0x97 JUMPI DUP1 PUSH4 0x7079D3A0 EQ PUSH2 0xCA JUMPI DUP1 PUSH4 0xADACA9ED EQ PUSH2 0xE6 JUMPI DUP1 PUSH4 0xC4734A09 EQ PUSH2 0x102 JUMPI DUP1 PUSH4 0xE360736E EQ PUSH2 0x136 JUMPI JUMPDEST PUSH1 0x0 DUP1 REVERT JUMPDEST PUSH2 0x81 PUSH1 0x4 DUP1 CALLDATASIZE SUB DUP2 ADD SWAP1 PUSH2 0x7C SWAP2 SWAP1 PUSH2 0xCCA JUMP JUMPDEST PUSH2 0x166 JUMP JUMPDEST PUSH1 0x40 MLOAD PUSH2 0x8E SWAP2 SWAP1 PUSH2 0xEF1 JUMP JUMPDEST PUSH1 0x40 MLOAD DUP1 SWAP2 SUB SWAP1 RETURN JUMPDEST PUSH2 0xB1 PUSH1 0x4 DUP1 CALLDATASIZE SUB DUP2 ADD SWAP1 PUSH2 0xAC SWAP2 SWAP1 PUSH2 0xF3F JUMP JUMPDEST PUSH2 0x3AD JUMP JUMPDEST PUSH1 0x40 MLOAD PUSH2 0xC1 SWAP5 SWAP4 SWAP3 SWAP2 SWAP1 PUSH2 0xFF4 JUMP JUMPDEST PUSH1 0x40 MLOAD DUP1 SWAP2 SUB SWAP1 RETURN JUMPDEST PUSH2 0xE4 PUSH1 0x4 DUP1 CALLDATASIZE SUB DUP2 ADD SWAP1 PUSH2 0xDF SWAP2 SWAP1 PUSH2 0x104E JUMP JUMPDEST PUSH2 0x5A8 JUMP JUMPDEST STOP JUMPDEST PUSH2 0x100 PUSH1 0x4 DUP1 CALLDATASIZE SUB DUP2 ADD SWAP1 PUSH2 0xFB SWAP2 SWAP1 PUSH2 0x1139 JUMP JUMPDEST PUSH2 0x675 JUMP JUMPDEST STOP JUMPDEST PUSH2 0x11C PUSH1 0x4 DUP1 CALLDATASIZE SUB DUP2 ADD SWAP1 PUSH2 0x117 SWAP2 SWAP1 PUSH2 0xF3F JUMP JUMPDEST PUSH2 0x732 JUMP JUMPDEST PUSH1 0x40 MLOAD PUSH2 0x12D SWAP6 SWAP5 SWAP4 SWAP3 SWAP2 SWAP1 PUSH2 0x1224 JUMP JUMPDEST PUSH1 0x40 MLOAD DUP1 SWAP2 SUB SWAP1 RETURN JUMPDEST PUSH2 0x150 PUSH1 0x4 DUP1 CALLDATASIZE SUB DUP2 ADD SWAP1 PUSH2 0x14B SWAP2 SWAP1 PUSH2 0xCCA JUMP JUMPDEST PUSH2 0x933 JUMP JUMPDEST PUSH1 0x40 MLOAD PUSH2 0x15D SWAP2 SWAP1 PUSH2 0x13BF JUMP JUMPDEST PUSH1 0x40 MLOAD DUP1 SWAP2 SUB SWAP1 RETURN JUMPDEST PUSH1 0x60 PUSH1 0x1 DUP3 PUSH1 0x40 MLOAD PUSH2 0x178 SWAP2 SWAP1 PUSH2 0x141D JUMP JUMPDEST SWAP1 DUP2 MSTORE PUSH1 0x20 ADD PUSH1 0x40 MLOAD DUP1 SWAP2 SUB SWAP1 KECCAK256 DUP1 SLOAD DUP1 PUSH1 0x20 MUL PUSH1 0x20 ADD PUSH1 0x40 MLOAD SWAP1 DUP2 ADD PUSH1 0x40 MSTORE DUP1 SWAP3 SWAP2 SWAP1 DUP2 DUP2 MSTORE PUSH1 0x20 ADD PUSH1 0x0 SWAP1 JUMPDEST DUP3 DUP3 LT ISZERO PUSH2 0x3A2 JUMPI DUP4 DUP3 SWAP1 PUSH1 0x0 MSTORE PUSH1 0x20 PUSH1 0x0 KECCAK256 SWAP1 PUSH1 0x5 MUL ADD PUSH1 0x40 MLOAD DUP1 PUSH1 0xA0 ADD PUSH1 0x40 MSTORE SWAP1 DUP2 PUSH1 0x0 DUP3 ADD DUP1 SLOAD PUSH2 0x1D9 SWAP1 PUSH2 0x1463 JUMP JUMPDEST DUP1 PUSH1 0x1F ADD PUSH1 0x20 DUP1 SWAP2 DIV MUL PUSH1 0x20 ADD PUSH1 0x40 MLOAD SWAP1 DUP2 ADD PUSH1 0x40 MSTORE DUP1 SWAP3 SWAP2 SWAP1 DUP2 DUP2 MSTORE PUSH1 0x20 ADD DUP3 DUP1 SLOAD PUSH2 0x205 SWAP1 PUSH2 0x1463 JUMP JUMPDEST DUP1 ISZERO PUSH2 0x252 JUMPI DUP1 PUSH1 0x1F LT PUSH2 0x227 JUMPI PUSH2 0x100 DUP1 DUP4 SLOAD DIV MUL DUP4 MSTORE SWAP2 PUSH1 0x20 ADD SWAP2 PUSH2 0x252 JUMP JUMPDEST DUP3 ADD SWAP2 SWAP1 PUSH1 0x0 MSTORE PUSH1 0x20 PUSH1 0x0 KECCAK256 SWAP1 JUMPDEST DUP2 SLOAD DUP2 MSTORE SWAP1 PUSH1 0x1 ADD SWAP1 PUSH1 0x20 ADD DUP1 DUP4 GT PUSH2 0x235 JUMPI DUP3 SWAP1 SUB PUSH1 0x1F AND DUP3 ADD SWAP2 JUMPDEST POP POP POP POP POP DUP2 MSTORE PUSH1 0x20 ADD PUSH1 0x1 DUP3 ADD DUP1 SLOAD PUSH2 0x26B SWAP1 PUSH2 0x1463 JUMP JUMPDEST DUP1 PUSH1 0x1F ADD PUSH1 0x20 DUP1 SWAP2 DIV MUL PUSH1 0x20 ADD PUSH1 0x40 MLOAD SWAP1 DUP2 ADD PUSH1 0x40 MSTORE DUP1 SWAP3 SWAP2 SWAP1 DUP2 DUP2 MSTORE PUSH1 0x20 ADD DUP3 DUP1 SLOAD PUSH2 0x297 SWAP1 PUSH2 0x1463 JUMP JUMPDEST DUP1 ISZERO PUSH2 0x2E4 JUMPI DUP1 PUSH1 0x1F LT PUSH2 0x2B9 JUMPI PUSH2 0x100 DUP1 DUP4 SLOAD DIV MUL DUP4 MSTORE SWAP2 PUSH1 0x20 ADD SWAP2 PUSH2 0x2E4 JUMP JUMPDEST DUP3 ADD SWAP2 SWAP1 PUSH1 0x0 MSTORE PUSH1 0x20 PUSH1 0x0 KECCAK256 SWAP1 JUMPDEST DUP2 SLOAD DUP2 MSTORE SWAP1 PUSH1 0x1 ADD SWAP1 PUSH1 0x20 ADD DUP1 DUP4 GT PUSH2 0x2C7 JUMPI DUP3 SWAP1 SUB PUSH1 0x1F AND DUP3 ADD SWAP2 JUMPDEST POP POP POP POP POP DUP2 MSTORE PUSH1 0x20 ADD PUSH1 0x2 DUP3 ADD SLOAD DUP2 MSTORE PUSH1 0x20 ADD PUSH1 0x3 DUP3 ADD DUP1 SLOAD PUSH2 0x307 SWAP1 PUSH2 0x1463 JUMP JUMPDEST DUP1 PUSH1 0x1F ADD PUSH1 0x20 DUP1 SWAP2 DIV MUL PUSH1 0x20 ADD PUSH1 0x40 MLOAD SWAP1 DUP2 ADD PUSH1 0x40 MSTORE DUP1 SWAP3 SWAP2 SWAP1 DUP2 DUP2 MSTORE PUSH1 0x20 ADD DUP3 DUP1 SLOAD PUSH2 0x333 SWAP1 PUSH2 0x1463 JUMP JUMPDEST DUP1 ISZERO PUSH2 0x380 JUMPI DUP1 PUSH1 0x1F LT PUSH2 0x355 JUMPI PUSH2 0x100 DUP1 DUP4 SLOAD DIV MUL DUP4 MSTORE SWAP2 PUSH1 0x20 ADD SWAP2 PUSH2 0x380 JUMP JUMPDEST DUP3 ADD SWAP2 SWAP1 PUSH1 0x0 MSTORE PUSH1 0x20 PUSH1 0x0 KECCAK256 SWAP1 JUMPDEST DUP2 SLOAD DUP2 MSTORE SWAP1 PUSH1 0x1 ADD SWAP1 PUSH1 0x20 ADD DUP1 DUP4 GT PUSH2 0x363 JUMPI DUP3 SWAP1 SUB PUSH1 0x1F AND DUP3 ADD SWAP2 JUMPDEST POP POP POP POP POP DUP2 MSTORE PUSH1 0x20 ADD PUSH1 0x4 DUP3 ADD SLOAD DUP2 MSTORE POP POP DUP2 MSTORE PUSH1 0x20 ADD SWAP1 PUSH1 0x1 ADD SWAP1 PUSH2 0x1A6 JUMP JUMPDEST POP POP POP POP SWAP1 POP SWAP2 SWAP1 POP JUMP JUMPDEST PUSH1 0x0 DUP3 DUP1 MLOAD PUSH1 0x20 DUP2 ADD DUP3 ADD DUP1 MLOAD DUP5 DUP3 MSTORE PUSH1 0x20 DUP4 ADD PUSH1 0x20 DUP6 ADD KECCAK256 DUP2 DUP4 MSTORE DUP1 SWAP6 POP POP POP POP POP POP DUP2 DUP2 SLOAD DUP2 LT PUSH2 0x3DF JUMPI PUSH1 0x0 DUP1 REVERT JUMPDEST SWAP1 PUSH1 0x0 MSTORE PUSH1 0x20 PUSH1 0x0 KECCAK256 SWAP1 PUSH1 0x4 MUL ADD PUSH1 0x0 SWAP2 POP SWAP2 POP POP DUP1 PUSH1 0x0 ADD DUP1 SLOAD PUSH2 0x403 SWAP1 PUSH2 0x1463 JUMP JUMPDEST DUP1 PUSH1 0x1F ADD PUSH1 0x20 DUP1 SWAP2 DIV MUL PUSH1 0x20 ADD PUSH1 0x40 MLOAD SWAP1 DUP2 ADD PUSH1 0x40 MSTORE DUP1 SWAP3 SWAP2 SWAP1 DUP2 DUP2 MSTORE PUSH1 0x20 ADD DUP3 DUP1 SLOAD PUSH2 0x42F SWAP1 PUSH2 0x1463 JUMP JUMPDEST DUP1 ISZERO PUSH2 0x47C JUMPI DUP1 PUSH1 0x1F LT PUSH2 0x451 JUMPI PUSH2 0x100 DUP1 DUP4 SLOAD DIV MUL DUP4 MSTORE SWAP2 PUSH1 0x20 ADD SWAP2 PUSH2 0x47C JUMP JUMPDEST DUP3 ADD SWAP2 SWAP1 PUSH1 0x0 MSTORE PUSH1 0x20 PUSH1 0x0 KECCAK256 SWAP1 JUMPDEST DUP2 SLOAD DUP2 MSTORE SWAP1 PUSH1 0x1 ADD SWAP1 PUSH1 0x20 ADD DUP1 DUP4 GT PUSH2 0x45F JUMPI DUP3 SWAP1 SUB PUSH1 0x1F AND DUP3 ADD SWAP2 JUMPDEST POP POP POP POP POP SWAP1 DUP1 PUSH1 0x1 ADD DUP1 SLOAD PUSH2 0x491 SWAP1 PUSH2 0x1463 JUMP JUMPDEST DUP1 PUSH1 0x1F ADD PUSH1 0x20 DUP1 SWAP2 DIV MUL PUSH1 0x20 ADD PUSH1 0x40 MLOAD SWAP1 DUP2 ADD PUSH1 0x40 MSTORE DUP1 SWAP3 SWAP2 SWAP1 DUP2 DUP2 MSTORE PUSH1 0x20 ADD DUP3 DUP1 SLOAD PUSH2 0x4BD SWAP1 PUSH2 0x1463 JUMP JUMPDEST DUP1 ISZERO PUSH2 0x50A JUMPI DUP1 PUSH1 0x1F LT PUSH2 0x4DF JUMPI PUSH2 0x100 DUP1 DUP4 SLOAD DIV MUL DUP4 MSTORE SWAP2 PUSH1 0x20 ADD SWAP2 PUSH2 0x50A JUMP JUMPDEST DUP3 ADD SWAP2 SWAP1 PUSH1 0x0 MSTORE PUSH1 0x20 PUSH1 0x0 KECCAK256 SWAP1 JUMPDEST DUP2 SLOAD DUP2 MSTORE SWAP1 PUSH1 0x1 ADD SWAP1 PUSH1 0x20 ADD DUP1 DUP4 GT PUSH2 0x4ED JUMPI DUP3 SWAP1 SUB PUSH1 0x1F AND DUP3 ADD SWAP2 JUMPDEST POP POP POP POP POP SWAP1 DUP1 PUSH1 0x2 ADD DUP1 SLOAD PUSH2 0x51F SWAP1 PUSH2 0x1463 JUMP JUMPDEST DUP1 PUSH1 0x1F ADD PUSH1 0x20 DUP1 SWAP2 DIV MUL PUSH1 0x20 ADD PUSH1 0x40 MLOAD SWAP1 DUP2 ADD PUSH1 0x40 MSTORE DUP1 SWAP3 SWAP2 SWAP1 DUP2 DUP2 MSTORE PUSH1 0x20 ADD DUP3 DUP1 SLOAD PUSH2 0x54B SWAP1 PUSH2 0x1463 JUMP JUMPDEST DUP1 ISZERO PUSH2 0x598 JUMPI DUP1 PUSH1 0x1F LT PUSH2 0x56D JUMPI PUSH2 0x100 DUP1 DUP4 SLOAD DIV MUL DUP4 MSTORE SWAP2 PUSH1 0x20 ADD SWAP2 PUSH2 0x598 JUMP JUMPDEST DUP3 ADD SWAP2 SWAP1 PUSH1 0x0 MSTORE PUSH1 0x20 PUSH1 0x0 KECCAK256 SWAP1 JUMPDEST DUP2 SLOAD DUP2 MSTORE SWAP1 PUSH1 0x1 ADD SWAP1 PUSH1 0x20 ADD DUP1 DUP4 GT PUSH2 0x57B JUMPI DUP3 SWAP1 SUB PUSH1 0x1F AND DUP3 ADD SWAP2 JUMPDEST POP POP POP POP POP SWAP1 DUP1 PUSH1 0x3 ADD SLOAD SWAP1 POP DUP5 JUMP JUMPDEST PUSH1 0x1 DUP6 PUSH1 0x40 MLOAD PUSH2 0x5B8 SWAP2 SWAP1 PUSH2 0x141D JUMP JUMPDEST SWAP1 DUP2 MSTORE PUSH1 0x20 ADD PUSH1 0x40 MLOAD DUP1 SWAP2 SUB SWAP1 KECCAK256 PUSH1 0x40 MLOAD DUP1 PUSH1 0xA0 ADD PUSH1 0x40 MSTORE DUP1 DUP7 DUP2 MSTORE PUSH1 0x20 ADD DUP6 DUP2 MSTORE PUSH1 0x20 ADD DUP5 DUP2 MSTORE PUSH1 0x20 ADD DUP4 DUP2 MSTORE PUSH1 0x20 ADD TIMESTAMP DUP2 MSTORE POP SWAP1 DUP1 PUSH1 0x1 DUP2 SLOAD ADD DUP1 DUP3 SSTORE DUP1 SWAP2 POP POP PUSH1 0x1 SWAP1 SUB SWAP1 PUSH1 0x0 MSTORE PUSH1 0x20 PUSH1 0x0 KECCAK256 SWAP1 PUSH1 0x5 MUL ADD PUSH1 0x0 SWAP1 SWAP2 SWAP1 SWAP2 SWAP1 SWAP2 POP PUSH1 0x0 DUP3 ADD MLOAD DUP2 PUSH1 0x0 ADD SWAP1 DUP2 PUSH2 0x62B SWAP2 SWAP1 PUSH2 0x1640 JUMP JUMPDEST POP PUSH1 0x20 DUP3 ADD MLOAD DUP2 PUSH1 0x1 ADD SWAP1 DUP2 PUSH2 0x641 SWAP2 SWAP1 PUSH2 0x1640 JUMP JUMPDEST POP PUSH1 0x40 DUP3 ADD MLOAD DUP2 PUSH1 0x2 ADD SSTORE PUSH1 0x60 DUP3 ADD MLOAD DUP2 PUSH1 0x3 ADD SWAP1 DUP2 PUSH2 0x661 SWAP2 SWAP1 PUSH2 0x1640 JUMP JUMPDEST POP PUSH1 0x80 DUP3 ADD MLOAD DUP2 PUSH1 0x4 ADD SSTORE POP POP POP POP POP POP POP JUMP JUMPDEST PUSH1 0x0 DUP6 PUSH1 0x40 MLOAD PUSH2 0x685 SWAP2 SWAP1 PUSH2 0x141D JUMP JUMPDEST SWAP1 DUP2 MSTORE PUSH1 0x20 ADD PUSH1 0x40 MLOAD DUP1 SWAP2 SUB SWAP1 KECCAK256 PUSH1 0x40 MLOAD DUP1 PUSH1 0x80 ADD PUSH1 0x40 MSTORE DUP1 DUP7 DUP2 MSTORE PUSH1 0x20 ADD DUP6 DUP2 MSTORE PUSH1 0x20 ADD DUP5 DUP2 MSTORE PUSH1 0x20 ADD DUP4 DUP2 MSTORE POP SWAP1 DUP1 PUSH1 0x1 DUP2 SLOAD ADD DUP1 DUP3 SSTORE DUP1 SWAP2 POP POP PUSH1 0x1 SWAP1 SUB SWAP1 PUSH1 0x0 MSTORE PUSH1 0x20 PUSH1 0x0 KECCAK256 SWAP1 PUSH1 0x4 MUL ADD PUSH1 0x0 SWAP1 SWAP2 SWAP1 SWAP2 SWAP1 SWAP2 POP PUSH1 0x0 DUP3 ADD MLOAD DUP2 PUSH1 0x0 ADD SWAP1 DUP2 PUSH2 0x6F2 SWAP2 SWAP1 PUSH2 0x1640 JUMP JUMPDEST POP PUSH1 0x20 DUP3 ADD MLOAD DUP2 PUSH1 0x1 ADD SWAP1 DUP2 PUSH2 0x708 SWAP2 SWAP1 PUSH2 0x1640 JUMP JUMPDEST POP PUSH1 0x40 DUP3 ADD MLOAD DUP2 PUSH1 0x2 ADD SWAP1 DUP2 PUSH2 0x71E SWAP2 SWAP1 PUSH2 0x1640 JUMP JUMPDEST POP PUSH1 0x60 DUP3 ADD MLOAD DUP2 PUSH1 0x3 ADD SSTORE POP POP POP POP POP POP POP JUMP JUMPDEST PUSH1 0x1 DUP3 DUP1 MLOAD PUSH1 0x20 DUP2 ADD DUP3 ADD DUP1 MLOAD DUP5 DUP3 MSTORE PUSH1 0x20 DUP4 ADD PUSH1 0x20 DUP6 ADD KECCAK256 DUP2 DUP4 MSTORE DUP1 SWAP6 POP POP POP POP POP POP DUP2 DUP2 SLOAD DUP2 LT PUSH2 0x764 JUMPI PUSH1 0x0 DUP1 REVERT JUMPDEST SWAP1 PUSH1 0x0 MSTORE PUSH1 0x20 PUSH1 0x0 KECCAK256 SWAP1 PUSH1 0x5 MUL ADD PUSH1 0x0 SWAP2 POP SWAP2 POP POP DUP1 PUSH1 0x0 ADD DUP1 SLOAD PUSH2 0x788 SWAP1 PUSH2 0x1463 JUMP JUMPDEST DUP1 PUSH1 0x1F ADD PUSH1 0x20 DUP1 SWAP2 DIV MUL PUSH1 0x20 ADD PUSH1 0x40 MLOAD SWAP1 DUP2 ADD PUSH1 0x40 MSTORE DUP1 SWAP3 SWAP2 SWAP1 DUP2 DUP2 MSTORE PUSH1 0x20 ADD DUP3 DUP1 SLOAD PUSH2 0x7B4 SWAP1 PUSH2 0x1463 JUMP JUMPDEST DUP1 ISZERO PUSH2 0x801 JUMPI DUP1 PUSH1 0x1F LT PUSH2 0x7D6 JUMPI PUSH2 0x100 DUP1 DUP4 SLOAD DIV MUL DUP4 MSTORE SWAP2 PUSH1 0x20 ADD SWAP2 PUSH2 0x801 JUMP JUMPDEST DUP3 ADD SWAP2 SWAP1 PUSH1 0x0 MSTORE PUSH1 0x20 PUSH1 0x0 KECCAK256 SWAP1 JUMPDEST DUP2 SLOAD DUP2 MSTORE SWAP1 PUSH1 0x1 ADD SWAP1 PUSH1 0x20 ADD DUP1 DUP4 GT PUSH2 0x7E4 JUMPI DUP3 SWAP1 SUB PUSH1 0x1F AND DUP3 ADD SWAP2 JUMPDEST POP POP POP POP POP SWAP1 DUP1 PUSH1 0x1 ADD DUP1 SLOAD PUSH2 0x816 SWAP1 PUSH2 0x1463 JUMP JUMPDEST DUP1 PUSH1 0x1F ADD PUSH1 0x20 DUP1 SWAP2 DIV MUL PUSH1 0x20 ADD PUSH1 0x40 MLOAD SWAP1 DUP2 ADD PUSH1 0x40 MSTORE DUP1 SWAP3 SWAP2 SWAP1 DUP2 DUP2 MSTORE PUSH1 0x20 ADD DUP3 DUP1 SLOAD PUSH2 0x842 SWAP1 PUSH2 0x1463 JUMP JUMPDEST DUP1 ISZERO PUSH2 0x88F JUMPI DUP1 PUSH1 0x1F LT PUSH2 0x864 JUMPI PUSH2 0x100 DUP1 DUP4 SLOAD DIV MUL DUP4 MSTORE SWAP2 PUSH1 0x20 ADD SWAP2 PUSH2 0x88F JUMP JUMPDEST DUP3 ADD SWAP2 SWAP1 PUSH1 0x0 MSTORE PUSH1 0x20 PUSH1 0x0 KECCAK256 SWAP1 JUMPDEST DUP2 SLOAD DUP2 MSTORE SWAP1 PUSH1 0x1 ADD SWAP1 PUSH1 0x20 ADD DUP1 DUP4 GT PUSH2 0x872 JUMPI DUP3 SWAP1 SUB PUSH1 0x1F AND DUP3 ADD SWAP2 JUMPDEST POP POP POP POP POP SWAP1 DUP1 PUSH1 0x2 ADD SLOAD SWAP1 DUP1 PUSH1 0x3 ADD DUP1 SLOAD PUSH2 0x8AA SWAP1 PUSH2 0x1463 JUMP JUMPDEST DUP1 PUSH1 0x1F ADD PUSH1 0x20 DUP1 SWAP2 DIV MUL PUSH1 0x20 ADD PUSH1 0x40 MLOAD SWAP1 DUP2 ADD PUSH1 0x40 MSTORE DUP1 SWAP3 SWAP2 SWAP1 DUP2 DUP2 MSTORE PUSH1 0x20 ADD DUP3 DUP1 SLOAD PUSH2 0x8D6 SWAP1 PUSH2 0x1463 JUMP JUMPDEST DUP1 ISZERO PUSH2 0x923 JUMPI DUP1 PUSH1 0x1F LT PUSH2 0x8F8 JUMPI PUSH2 0x100 DUP1 DUP4 SLOAD DIV MUL DUP4 MSTORE SWAP2 PUSH1 0x20 ADD SWAP2 PUSH2 0x923 JUMP JUMPDEST DUP3 ADD SWAP2 SWAP1 PUSH1 0x0 MSTORE PUSH1 0x20 PUSH1 0x0 KECCAK256 SWAP1 JUMPDEST DUP2 SLOAD DUP2 MSTORE SWAP1 PUSH1 0x1 ADD SWAP1 PUSH1 0x20 ADD DUP1 DUP4 GT PUSH2 0x906 JUMPI DUP3 SWAP1 SUB PUSH1 0x1F AND DUP3 ADD SWAP2 JUMPDEST POP POP POP POP POP SWAP1 DUP1 PUSH1 0x4 ADD SLOAD SWAP1 POP DUP6 JUMP JUMPDEST PUSH1 0x60 PUSH1 0x0 DUP3 PUSH1 0x40 MLOAD PUSH2 0x945 SWAP2 SWAP1 PUSH2 0x141D JUMP JUMPDEST SWAP1 DUP2 MSTORE PUSH1 0x20 ADD PUSH1 0x40 MLOAD DUP1 SWAP2 SUB SWAP1 KECCAK256 DUP1 SLOAD DUP1 PUSH1 0x20 MUL PUSH1 0x20 ADD PUSH1 0x40 MLOAD SWAP1 DUP2 ADD PUSH1 0x40 MSTORE DUP1 SWAP3 SWAP2 SWAP1 DUP2 DUP2 MSTORE PUSH1 0x20 ADD PUSH1 0x0 SWAP1 JUMPDEST DUP3 DUP3 LT ISZERO PUSH2 0xB65 JUMPI DUP4 DUP3 SWAP1 PUSH1 0x0 MSTORE PUSH1 0x20 PUSH1 0x0 KECCAK256 SWAP1 PUSH1 0x4 MUL ADD PUSH1 0x40 MLOAD DUP1 PUSH1 0x80 ADD PUSH1 0x40 MSTORE SWAP1 DUP2 PUSH1 0x0 DUP3 ADD DUP1 SLOAD PUSH2 0x9A6 SWAP1 PUSH2 0x1463 JUMP JUMPDEST DUP1 PUSH1 0x1F ADD PUSH1 0x20 DUP1 SWAP2 DIV MUL PUSH1 0x20 ADD PUSH1 0x40 MLOAD SWAP1 DUP2 ADD PUSH1 0x40 MSTORE DUP1 SWAP3 SWAP2 SWAP1 DUP2 DUP2 MSTORE PUSH1 0x20 ADD DUP3 DUP1 SLOAD PUSH2 0x9D2 SWAP1 PUSH2 0x1463 JUMP JUMPDEST DUP1 ISZERO PUSH2 0xA1F JUMPI DUP1 PUSH1 0x1F LT PUSH2 0x9F4 JUMPI PUSH2 0x100 DUP1 DUP4 SLOAD DIV MUL DUP4 MSTORE SWAP2 PUSH1 0x20 ADD SWAP2 PUSH2 0xA1F JUMP JUMPDEST DUP3 ADD SWAP2 SWAP1 PUSH1 0x0 MSTORE PUSH1 0x20 PUSH1 0x0 KECCAK256 SWAP1 JUMPDEST DUP2 SLOAD DUP2 MSTORE SWAP1 PUSH1 0x1 ADD SWAP1 PUSH1 0x20 ADD DUP1 DUP4 GT PUSH2 0xA02 JUMPI DUP3 SWAP1 SUB PUSH1 0x1F AND DUP3 ADD SWAP2 JUMPDEST POP POP POP POP POP DUP2 MSTORE PUSH1 0x20 ADD PUSH1 0x1 DUP3 ADD DUP1 SLOAD PUSH2 0xA38 SWAP1 PUSH2 0x1463 JUMP JUMPDEST DUP1 PUSH1 0x1F ADD PUSH1 0x20 DUP1 SWAP2 DIV MUL PUSH1 0x20 ADD PUSH1 0x40 MLOAD SWAP1 DUP2 ADD PUSH1 0x40 MSTORE DUP1 SWAP3 SWAP2 SWAP1 DUP2 DUP2 MSTORE PUSH1 0x20 ADD DUP3 DUP1 SLOAD PUSH2 0xA64 SWAP1 PUSH2 0x1463 JUMP JUMPDEST DUP1 ISZERO PUSH2 0xAB1 JUMPI DUP1 PUSH1 0x1F LT PUSH2 0xA86 JUMPI PUSH2 0x100 DUP1 DUP4 SLOAD DIV MUL DUP4 MSTORE SWAP2 PUSH1 0x20 ADD SWAP2 PUSH2 0xAB1 JUMP JUMPDEST DUP3 ADD SWAP2 SWAP1 PUSH1 0x0 MSTORE PUSH1 0x20 PUSH1 0x0 KECCAK256 SWAP1 JUMPDEST DUP2 SLOAD DUP2 MSTORE SWAP1 PUSH1 0x1 ADD SWAP1 PUSH1 0x20 ADD DUP1 DUP4 GT PUSH2 0xA94 JUMPI DUP3 SWAP1 SUB PUSH1 0x1F AND DUP3 ADD SWAP2 JUMPDEST POP POP POP POP POP DUP2 MSTORE PUSH1 0x20 ADD PUSH1 0x2 DUP3 ADD DUP1 SLOAD PUSH2 0xACA SWAP1 PUSH2 0x1463 JUMP JUMPDEST DUP1 PUSH1 0x1F ADD PUSH1 0x20 DUP1 SWAP2 DIV MUL PUSH1 0x20 ADD PUSH1 0x40 MLOAD SWAP1 DUP2 ADD PUSH1 0x40 MSTORE DUP1 SWAP3 SWAP2 SWAP1 DUP2 DUP2 MSTORE PUSH1 0x20 ADD DUP3 DUP1 SLOAD PUSH2 0xAF6 SWAP1 PUSH2 0x1463 JUMP JUMPDEST DUP1 ISZERO PUSH2 0xB43 JUMPI DUP1 PUSH1 0x1F LT PUSH2 0xB18 JUMPI PUSH2 0x100 DUP1 DUP4 SLOAD DIV MUL DUP4 MSTORE SWAP2 PUSH1 0x20 ADD SWAP2 PUSH2 0xB43 JUMP JUMPDEST DUP3 ADD SWAP2 SWAP1 PUSH1 0x0 MSTORE PUSH1 0x20 PUSH1 0x0 KECCAK256 SWAP1 JUMPDEST DUP2 SLOAD DUP2 MSTORE SWAP1 PUSH1 0x1 ADD SWAP1 PUSH1 0x20 ADD DUP1 DUP4 GT PUSH2 0xB26 JUMPI DUP3 SWAP1 SUB PUSH1 0x1F AND DUP3 ADD SWAP2 JUMPDEST POP POP POP POP POP DUP2 MSTORE PUSH1 0x20 ADD PUSH1 0x3 DUP3 ADD SLOAD DUP2 MSTORE POP POP DUP2 MSTORE PUSH1 0x20 ADD SWAP1 PUSH1 0x1 ADD SWAP1 PUSH2 0x973 JUMP JUMPDEST POP POP POP POP SWAP1 POP SWAP2 SWAP1 POP JUMP JUMPDEST PUSH1 0x0 PUSH1 0x40 MLOAD SWAP1 POP SWAP1 JUMP JUMPDEST PUSH1 0x0 DUP1 REVERT JUMPDEST PUSH1 0x0 DUP1 REVERT JUMPDEST PUSH1 0x0 DUP1 REVERT JUMPDEST PUSH1 0x0 DUP1 REVERT JUMPDEST PUSH1 0x0 PUSH1 0x1F NOT PUSH1 0x1F DUP4 ADD AND SWAP1 POP SWAP2 SWAP1 POP JUMP JUMPDEST PUSH32 0x4E487B7100000000000000000000000000000000000000000000000000000000 PUSH1 0x0 MSTORE PUSH1 0x41 PUSH1 0x4 MSTORE PUSH1 0x24 PUSH1 0x0 REVERT JUMPDEST PUSH2 0xBD7 DUP3 PUSH2 0xB8E JUMP JUMPDEST DUP2 ADD DUP2 DUP2 LT PUSH8 0xFFFFFFFFFFFFFFFF DUP3 GT OR ISZERO PUSH2 0xBF6 JUMPI PUSH2 0xBF5 PUSH2 0xB9F JUMP JUMPDEST JUMPDEST DUP1 PUSH1 0x40 MSTORE POP POP POP JUMP JUMPDEST PUSH1 0x0 PUSH2 0xC09 PUSH2 0xB70 JUMP JUMPDEST SWAP1 POP PUSH2 0xC15 DUP3 DUP3 PUSH2 0xBCE JUMP JUMPDEST SWAP2 SWAP1 POP JUMP JUMPDEST PUSH1 0x0 PUSH8 0xFFFFFFFFFFFFFFFF DUP3 GT ISZERO PUSH2 0xC35 JUMPI PUSH2 0xC34 PUSH2 0xB9F JUMP JUMPDEST JUMPDEST PUSH2 0xC3E DUP3 PUSH2 0xB8E JUMP JUMPDEST SWAP1 POP PUSH1 0x20 DUP2 ADD SWAP1 POP SWAP2 SWAP1 POP JUMP JUMPDEST DUP3 DUP2 DUP4 CALLDATACOPY PUSH1 0x0 DUP4 DUP4 ADD MSTORE POP POP POP JUMP JUMPDEST PUSH1 0x0 PUSH2 0xC6D PUSH2 0xC68 DUP5 PUSH2 0xC1A JUMP JUMPDEST PUSH2 0xBFF JUMP JUMPDEST SWAP1 POP DUP3 DUP2 MSTORE PUSH1 0x20 DUP2 ADD DUP5 DUP5 DUP5 ADD GT ISZERO PUSH2 0xC89 JUMPI PUSH2 0xC88 PUSH2 0xB89 JUMP JUMPDEST JUMPDEST PUSH2 0xC94 DUP5 DUP3 DUP6 PUSH2 0xC4B JUMP JUMPDEST POP SWAP4 SWAP3 POP POP POP JUMP JUMPDEST PUSH1 0x0 DUP3 PUSH1 0x1F DUP4 ADD SLT PUSH2 0xCB1 JUMPI PUSH2 0xCB0 PUSH2 0xB84 JUMP JUMPDEST JUMPDEST DUP2 CALLDATALOAD PUSH2 0xCC1 DUP5 DUP3 PUSH1 0x20 DUP7 ADD PUSH2 0xC5A JUMP JUMPDEST SWAP2 POP POP SWAP3 SWAP2 POP POP JUMP JUMPDEST PUSH1 0x0 PUSH1 0x20 DUP3 DUP5 SUB SLT ISZERO PUSH2 0xCE0 JUMPI PUSH2 0xCDF PUSH2 0xB7A JUMP JUMPDEST JUMPDEST PUSH1 0x0 DUP3 ADD CALLDATALOAD PUSH8 0xFFFFFFFFFFFFFFFF DUP2 GT ISZERO PUSH2 0xCFE JUMPI PUSH2 0xCFD PUSH2 0xB7F JUMP JUMPDEST JUMPDEST PUSH2 0xD0A DUP5 DUP3 DUP6 ADD PUSH2 0xC9C JUMP JUMPDEST SWAP2 POP POP SWAP3 SWAP2 POP POP JUMP JUMPDEST PUSH1 0x0 DUP2 MLOAD SWAP1 POP SWAP2 SWAP1 POP JUMP JUMPDEST PUSH1 0x0 DUP3 DUP3 MSTORE PUSH1 0x20 DUP3 ADD SWAP1 POP SWAP3 SWAP2 POP POP JUMP JUMPDEST PUSH1 0x0 DUP2 SWAP1 POP PUSH1 0x20 DUP3 ADD SWAP1 POP SWAP2 SWAP1 POP JUMP JUMPDEST PUSH1 0x0 DUP2 MLOAD SWAP1 POP SWAP2 SWAP1 POP JUMP JUMPDEST PUSH1 0x0 DUP3 DUP3 MSTORE PUSH1 0x20 DUP3 ADD SWAP1 POP SWAP3 SWAP2 POP POP JUMP JUMPDEST PUSH1 0x0 JUMPDEST DUP4 DUP2 LT ISZERO PUSH2 0xD79 JUMPI DUP1 DUP3 ADD MLOAD DUP2 DUP5 ADD MSTORE PUSH1 0x20 DUP2 ADD SWAP1 POP PUSH2 0xD5E JUMP JUMPDEST PUSH1 0x0 DUP5 DUP5 ADD MSTORE POP POP POP POP JUMP JUMPDEST PUSH1 0x0 PUSH2 0xD90 DUP3 PUSH2 0xD3F JUMP JUMPDEST PUSH2 0xD9A DUP2 DUP6 PUSH2 0xD4A JUMP JUMPDEST SWAP4 POP PUSH2 0xDAA DUP2 DUP6 PUSH1 0x20 DUP7 ADD PUSH2 0xD5B JUMP JUMPDEST PUSH2 0xDB3 DUP2 PUSH2 0xB8E JUMP JUMPDEST DUP5 ADD SWAP2 POP POP SWAP3 SWAP2 POP POP JUMP JUMPDEST PUSH1 0x0 DUP2 SWAP1 POP SWAP2 SWAP1 POP JUMP JUMPDEST PUSH2 0xDD1 DUP2 PUSH2 0xDBE JUMP JUMPDEST DUP3 MSTORE POP POP JUMP JUMPDEST PUSH1 0x0 PUSH1 0xA0 DUP4 ADD PUSH1 0x0 DUP4 ADD MLOAD DUP5 DUP3 SUB PUSH1 0x0 DUP7 ADD MSTORE PUSH2 0xDF4 DUP3 DUP3 PUSH2 0xD85 JUMP JUMPDEST SWAP2 POP POP PUSH1 0x20 DUP4 ADD MLOAD DUP5 DUP3 SUB PUSH1 0x20 DUP7 ADD MSTORE PUSH2 0xE0E DUP3 DUP3 PUSH2 0xD85 JUMP JUMPDEST SWAP2 POP POP PUSH1 0x40 DUP4 ADD MLOAD PUSH2 0xE23 PUSH1 0x40 DUP7 ADD DUP3 PUSH2 0xDC8 JUMP JUMPDEST POP PUSH1 0x60 DUP4 ADD MLOAD DUP5 DUP3 SUB PUSH1 0x60 DUP7 ADD MSTORE PUSH2 0xE3B DUP3 DUP3 PUSH2 0xD85 JUMP JUMPDEST SWAP2 POP POP PUSH1 0x80 DUP4 ADD MLOAD PUSH2 0xE50 PUSH1 0x80 DUP7 ADD DUP3 PUSH2 0xDC8 JUMP JUMPDEST POP DUP1 SWAP2 POP POP SWAP3 SWAP2 POP POP JUMP JUMPDEST PUSH1 0x0 PUSH2 0xE67 DUP4 DUP4 PUSH2 0xDD7 JUMP JUMPDEST SWAP1 POP SWAP3 SWAP2 POP POP JUMP JUMPDEST PUSH1 0x0 PUSH1 0x20 DUP3 ADD SWAP1 POP SWAP2 SWAP1 POP JUMP JUMPDEST PUSH1 0x0 PUSH2 0xE87 DUP3 PUSH2 0xD13 JUMP JUMPDEST PUSH2 0xE91 DUP2 DUP6 PUSH2 0xD1E JUMP JUMPDEST SWAP4 POP DUP4 PUSH1 0x20 DUP3 MUL DUP6 ADD PUSH2 0xEA3 DUP6 PUSH2 0xD2F JUMP JUMPDEST DUP1 PUSH1 0x0 JUMPDEST DUP6 DUP2 LT ISZERO PUSH2 0xEDF JUMPI DUP5 DUP5 SUB DUP10 MSTORE DUP2 MLOAD PUSH2 0xEC0 DUP6 DUP3 PUSH2 0xE5B JUMP JUMPDEST SWAP5 POP PUSH2 0xECB DUP4 PUSH2 0xE6F JUMP JUMPDEST SWAP3 POP PUSH1 0x20 DUP11 ADD SWAP10 POP POP PUSH1 0x1 DUP2 ADD SWAP1 POP PUSH2 0xEA7 JUMP JUMPDEST POP DUP3 SWAP8 POP DUP8 SWAP6 POP POP POP POP POP POP SWAP3 SWAP2 POP POP JUMP JUMPDEST PUSH1 0x0 PUSH1 0x20 DUP3 ADD SWAP1 POP DUP2 DUP2 SUB PUSH1 0x0 DUP4 ADD MSTORE PUSH2 0xF0B DUP2 DUP5 PUSH2 0xE7C JUMP JUMPDEST SWAP1 POP SWAP3 SWAP2 POP POP JUMP JUMPDEST PUSH2 0xF1C DUP2 PUSH2 0xDBE JUMP JUMPDEST DUP2 EQ PUSH2 0xF27 JUMPI PUSH1 0x0 DUP1 REVERT JUMPDEST POP JUMP JUMPDEST PUSH1 0x0 DUP2 CALLDATALOAD SWAP1 POP PUSH2 0xF39 DUP2 PUSH2 0xF13 JUMP JUMPDEST SWAP3 SWAP2 POP POP JUMP JUMPDEST PUSH1 0x0 DUP1 PUSH1 0x40 DUP4 DUP6 SUB SLT ISZERO PUSH2 0xF56 JUMPI PUSH2 0xF55 PUSH2 0xB7A JUMP JUMPDEST JUMPDEST PUSH1 0x0 DUP4 ADD CALLDATALOAD PUSH8 0xFFFFFFFFFFFFFFFF DUP2 GT ISZERO PUSH2 0xF74 JUMPI PUSH2 0xF73 PUSH2 0xB7F JUMP JUMPDEST JUMPDEST PUSH2 0xF80 DUP6 DUP3 DUP7 ADD PUSH2 0xC9C JUMP JUMPDEST SWAP3 POP POP PUSH1 0x20 PUSH2 0xF91 DUP6 DUP3 DUP7 ADD PUSH2 0xF2A JUMP JUMPDEST SWAP2 POP POP SWAP3 POP SWAP3 SWAP1 POP JUMP JUMPDEST PUSH1 0x0 DUP3 DUP3 MSTORE PUSH1 0x20 DUP3 ADD SWAP1 POP SWAP3 SWAP2 POP POP JUMP JUMPDEST PUSH1 0x0 PUSH2 0xFB7 DUP3 PUSH2 0xD3F JUMP JUMPDEST PUSH2 0xFC1 DUP2 DUP6 PUSH2 0xF9B JUMP JUMPDEST SWAP4 POP PUSH2 0xFD1 DUP2 DUP6 PUSH1 0x20 DUP7 ADD PUSH2 0xD5B JUMP JUMPDEST PUSH2 0xFDA DUP2 PUSH2 0xB8E JUMP JUMPDEST DUP5 ADD SWAP2 POP POP SWAP3 SWAP2 POP POP JUMP JUMPDEST PUSH2 0xFEE DUP2 PUSH2 0xDBE JUMP JUMPDEST DUP3 MSTORE POP POP JUMP JUMPDEST PUSH1 0x0 PUSH1 0x80 DUP3 ADD SWAP1 POP DUP2 DUP2 SUB PUSH1 0x0 DUP4 ADD MSTORE PUSH2 0x100E DUP2 DUP8 PUSH2 0xFAC JUMP JUMPDEST SWAP1 POP DUP2 DUP2 SUB PUSH1 0x20 DUP4 ADD MSTORE PUSH2 0x1022 DUP2 DUP7 PUSH2 0xFAC JUMP JUMPDEST SWAP1 POP DUP2 DUP2 SUB PUSH1 0x40 DUP4 ADD MSTORE PUSH2 0x1036 DUP2 DUP6 PUSH2 0xFAC JUMP JUMPDEST SWAP1 POP PUSH2 0x1045 PUSH1 0x60 DUP4 ADD DUP5 PUSH2 0xFE5 JUMP JUMPDEST SWAP6 SWAP5 POP POP POP POP POP JUMP JUMPDEST PUSH1 0x0 DUP1 PUSH1 0x0 DUP1 PUSH1 0x0 PUSH1 0xA0 DUP7 DUP9 SUB SLT ISZERO PUSH2 0x106A JUMPI PUSH2 0x1069 PUSH2 0xB7A JUMP JUMPDEST JUMPDEST PUSH1 0x0 DUP7 ADD CALLDATALOAD PUSH8 0xFFFFFFFFFFFFFFFF DUP2 GT ISZERO PUSH2 0x1088 JUMPI PUSH2 0x1087 PUSH2 0xB7F JUMP JUMPDEST JUMPDEST PUSH2 0x1094 DUP9 DUP3 DUP10 ADD PUSH2 0xC9C JUMP JUMPDEST SWAP6 POP POP PUSH1 0x20 DUP7 ADD CALLDATALOAD PUSH8 0xFFFFFFFFFFFFFFFF DUP2 GT ISZERO PUSH2 0x10B5 JUMPI PUSH2 0x10B4 PUSH2 0xB7F JUMP JUMPDEST JUMPDEST PUSH2 0x10C1 DUP9 DUP3 DUP10 ADD PUSH2 0xC9C JUMP JUMPDEST SWAP5 POP POP PUSH1 0x40 DUP7 ADD CALLDATALOAD PUSH8 0xFFFFFFFFFFFFFFFF DUP2 GT ISZERO PUSH2 0x10E2 JUMPI PUSH2 0x10E1 PUSH2 0xB7F JUMP JUMPDEST JUMPDEST PUSH2 0x10EE DUP9 DUP3 DUP10 ADD PUSH2 0xC9C JUMP JUMPDEST SWAP4 POP POP PUSH1 0x60 PUSH2 0x10FF DUP9 DUP3 DUP10 ADD PUSH2 0xF2A JUMP JUMPDEST SWAP3 POP POP PUSH1 0x80 DUP7 ADD CALLDATALOAD PUSH8 0xFFFFFFFFFFFFFFFF DUP2 GT ISZERO PUSH2 0x1120 JUMPI PUSH2 0x111F PUSH2 0xB7F JUMP JUMPDEST JUMPDEST PUSH2 0x112C DUP9 DUP3 DUP10 ADD PUSH2 0xC9C JUMP JUMPDEST SWAP2 POP POP SWAP3 SWAP6 POP SWAP3 SWAP6 SWAP1 SWAP4 POP JUMP JUMPDEST PUSH1 0x0 DUP1 PUSH1 0x0 DUP1 PUSH1 0x0 PUSH1 0xA0 DUP7 DUP9 SUB SLT ISZERO PUSH2 0x1155 JUMPI PUSH2 0x1154 PUSH2 0xB7A JUMP JUMPDEST JUMPDEST PUSH1 0x0 DUP7 ADD CALLDATALOAD PUSH8 0xFFFFFFFFFFFFFFFF DUP2 GT ISZERO PUSH2 0x1173 JUMPI PUSH2 0x1172 PUSH2 0xB7F JUMP JUMPDEST JUMPDEST PUSH2 0x117F DUP9 DUP3 DUP10 ADD PUSH2 0xC9C JUMP JUMPDEST SWAP6 POP POP PUSH1 0x20 DUP7 ADD CALLDATALOAD PUSH8 0xFFFFFFFFFFFFFFFF DUP2 GT ISZERO PUSH2 0x11A0 JUMPI PUSH2 0x119F PUSH2 0xB7F JUMP JUMPDEST JUMPDEST PUSH2 0x11AC DUP9 DUP3 DUP10 ADD PUSH2 0xC9C JUMP JUMPDEST SWAP5 POP POP PUSH1 0x40 DUP7 ADD CALLDATALOAD PUSH8 0xFFFFFFFFFFFFFFFF DUP2 GT ISZERO PUSH2 0x11CD JUMPI PUSH2 0x11CC PUSH2 0xB7F JUMP JUMPDEST JUMPDEST PUSH2 0x11D9 DUP9 DUP3 DUP10 ADD PUSH2 0xC9C JUMP JUMPDEST SWAP4 POP POP PUSH1 0x60 DUP7 ADD CALLDATALOAD PUSH8 0xFFFFFFFFFFFFFFFF DUP2 GT ISZERO PUSH2 0x11FA JUMPI PUSH2 0x11F9 PUSH2 0xB7F JUMP JUMPDEST JUMPDEST PUSH2 0x1206 DUP9 DUP3 DUP10 ADD PUSH2 0xC9C JUMP JUMPDEST SWAP3 POP POP PUSH1 0x80 PUSH2 0x1217 DUP9 DUP3 DUP10 ADD PUSH2 0xF2A JUMP JUMPDEST SWAP2 POP POP SWAP3 SWAP6 POP SWAP3 SWAP6 SWAP1 SWAP4 POP JUMP JUMPDEST PUSH1 0x0 PUSH1 0xA0 DUP3 ADD SWAP1 POP DUP2 DUP2 SUB PUSH1 0x0 DUP4 ADD MSTORE PUSH2 0x123E DUP2 DUP9 PUSH2 0xFAC JUMP JUMPDEST SWAP1 POP DUP2 DUP2 SUB PUSH1 0x20 DUP4 ADD MSTORE PUSH2 0x1252 DUP2 DUP8 PUSH2 0xFAC JUMP JUMPDEST SWAP1 POP PUSH2 0x1261 PUSH1 0x40 DUP4 ADD DUP7 PUSH2 0xFE5 JUMP JUMPDEST DUP2 DUP2 SUB PUSH1 0x60 DUP4 ADD MSTORE PUSH2 0x1273 DUP2 DUP6 PUSH2 0xFAC JUMP JUMPDEST SWAP1 POP PUSH2 0x1282 PUSH1 0x80 DUP4 ADD DUP5 PUSH2 0xFE5 JUMP JUMPDEST SWAP7 SWAP6 POP POP POP POP POP POP JUMP JUMPDEST PUSH1 0x0 DUP2 MLOAD SWAP1 POP SWAP2 SWAP1 POP JUMP JUMPDEST PUSH1 0x0 DUP3 DUP3 MSTORE PUSH1 0x20 DUP3 ADD SWAP1 POP SWAP3 SWAP2 POP POP JUMP JUMPDEST PUSH1 0x0 DUP2 SWAP1 POP PUSH1 0x20 DUP3 ADD SWAP1 POP SWAP2 SWAP1 POP JUMP JUMPDEST PUSH1 0x0 PUSH1 0x80 DUP4 ADD PUSH1 0x0 DUP4 ADD MLOAD DUP5 DUP3 SUB PUSH1 0x0 DUP7 ADD MSTORE PUSH2 0x12D5 DUP3 DUP3 PUSH2 0xD85 JUMP JUMPDEST SWAP2 POP POP PUSH1 0x20 DUP4 ADD MLOAD DUP5 DUP3 SUB PUSH1 0x20 DUP7 ADD MSTORE PUSH2 0x12EF DUP3 DUP3 PUSH2 0xD85 JUMP JUMPDEST SWAP2 POP POP PUSH1 0x40 DUP4 ADD MLOAD DUP5 DUP3 SUB PUSH1 0x40 DUP7 ADD MSTORE PUSH2 0x1309 DUP3 DUP3 PUSH2 0xD85 JUMP JUMPDEST SWAP2 POP POP PUSH1 0x60 DUP4 ADD MLOAD PUSH2 0x131E PUSH1 0x60 DUP7 ADD DUP3 PUSH2 0xDC8 JUMP JUMPDEST POP DUP1 SWAP2 POP POP SWAP3 SWAP2 POP POP JUMP JUMPDEST PUSH1 0x0 PUSH2 0x1335 DUP4 DUP4 PUSH2 0x12B8 JUMP JUMPDEST SWAP1 POP SWAP3 SWAP2 POP POP JUMP JUMPDEST PUSH1 0x0 PUSH1 0x20 DUP3 ADD SWAP1 POP SWAP2 SWAP1 POP JUMP JUMPDEST PUSH1 0x0 PUSH2 0x1355 DUP3 PUSH2 0x128C JUMP JUMPDEST PUSH2 0x135F DUP2 DUP6 PUSH2 0x1297 JUMP JUMPDEST SWAP4 POP DUP4 PUSH1 0x20 DUP3 MUL DUP6 ADD PUSH2 0x1371 DUP6 PUSH2 0x12A8 JUMP JUMPDEST DUP1 PUSH1 0x0 JUMPDEST DUP6 DUP2 LT ISZERO PUSH2 0x13AD JUMPI DUP5 DUP5 SUB DUP10 MSTORE DUP2 MLOAD PUSH2 0x138E DUP6 DUP3 PUSH2 0x1329 JUMP JUMPDEST SWAP5 POP PUSH2 0x1399 DUP4 PUSH2 0x133D JUMP JUMPDEST SWAP3 POP PUSH1 0x20 DUP11 ADD SWAP10 POP POP PUSH1 0x1 DUP2 ADD SWAP1 POP PUSH2 0x1375 JUMP JUMPDEST POP DUP3 SWAP8 POP DUP8 SWAP6 POP POP POP POP POP POP SWAP3 SWAP2 POP POP JUMP JUMPDEST PUSH1 0x0 PUSH1 0x20 DUP3 ADD SWAP1 POP DUP2 DUP2 SUB PUSH1 0x0 DUP4 ADD MSTORE PUSH2 0x13D9 DUP2 DUP5 PUSH2 0x134A JUMP JUMPDEST SWAP1 POP SWAP3 SWAP2 POP POP JUMP JUMPDEST PUSH1 0x0 DUP2 SWAP1 POP SWAP3 SWAP2 POP POP JUMP JUMPDEST PUSH1 0x0 PUSH2 0x13F7 DUP3 PUSH2 0xD3F JUMP JUMPDEST PUSH2 0x1401 DUP2 DUP6 PUSH2 0x13E1 JUMP JUMPDEST SWAP4 POP PUSH2 0x1411 DUP2 DUP6 PUSH1 0x20 DUP7 ADD PUSH2 0xD5B JUMP JUMPDEST DUP1 DUP5 ADD SWAP2 POP POP SWAP3 SWAP2 POP POP JUMP JUMPDEST PUSH1 0x0 PUSH2 0x1429 DUP3 DUP5 PUSH2 0x13EC JUMP JUMPDEST SWAP2 POP DUP2 SWAP1 POP SWAP3 SWAP2 POP POP JUMP JUMPDEST PUSH32 0x4E487B7100000000000000000000000000000000000000000000000000000000 PUSH1 0x0 MSTORE PUSH1 0x22 PUSH1 0x4 MSTORE PUSH1 0x24 PUSH1 0x0 REVERT JUMPDEST PUSH1 0x0 PUSH1 0x2 DUP3 DIV SWAP1 POP PUSH1 0x1 DUP3 AND DUP1 PUSH2 0x147B JUMPI PUSH1 0x7F DUP3 AND SWAP2 POP JUMPDEST PUSH1 0x20 DUP3 LT DUP2 SUB PUSH2 0x148E JUMPI PUSH2 0x148D PUSH2 0x1434 JUMP JUMPDEST JUMPDEST POP SWAP2 SWAP1 POP JUMP JUMPDEST PUSH1 0x0 DUP2 SWAP1 POP DUP2 PUSH1 0x0 MSTORE PUSH1 0x20 PUSH1 0x0 KECCAK256 SWAP1 POP SWAP2 SWAP1 POP JUMP JUMPDEST PUSH1 0x0 PUSH1 0x20 PUSH1 0x1F DUP4 ADD DIV SWAP1 POP SWAP2 SWAP1 POP JUMP JUMPDEST PUSH1 0x0 DUP3 DUP3 SHL SWAP1 POP SWAP3 SWAP2 POP POP JUMP JUMPDEST PUSH1 0x0 PUSH1 0x8 DUP4 MUL PUSH2 0x14F6 PUSH32 0xFFFFFFFFFFFFFFFFFFFFFFFFFFFFFFFFFFFFFFFFFFFFFFFFFFFFFFFFFFFFFFFF DUP3 PUSH2 0x14B9 JUMP JUMPDEST PUSH2 0x1500 DUP7 DUP4 PUSH2 0x14B9 JUMP JUMPDEST SWAP6 POP DUP1 NOT DUP5 AND SWAP4 POP DUP1 DUP7 AND DUP5 OR SWAP3 POP POP POP SWAP4 SWAP3 POP POP POP JUMP JUMPDEST PUSH1 0x0 DUP2 SWAP1 POP SWAP2 SWAP1 POP JUMP JUMPDEST PUSH1 0x0 PUSH2 0x153D PUSH2 0x1538 PUSH2 0x1533 DUP5 PUSH2 0xDBE JUMP JUMPDEST PUSH2 0x1518 JUMP JUMPDEST PUSH2 0xDBE JUMP JUMPDEST SWAP1 POP SWAP2 SWAP1 POP JUMP JUMPDEST PUSH1 0x0 DUP2 SWAP1 POP SWAP2 SWAP1 POP JUMP JUMPDEST PUSH2 0x1557 DUP4 PUSH2 0x1522 JUMP JUMPDEST PUSH2 0x156B PUSH2 0x1563 DUP3 PUSH2 0x1544 JUMP JUMPDEST DUP5 DUP5 SLOAD PUSH2 0x14C6 JUMP JUMPDEST DUP3 SSTORE POP POP POP POP JUMP JUMPDEST PUSH1 0x0 SWAP1 JUMP JUMPDEST PUSH2 0x1580 PUSH2 0x1573 JUMP JUMPDEST PUSH2 0x158B DUP2 DUP5 DUP5 PUSH2 0x154E JUMP JUMPDEST POP POP POP JUMP JUMPDEST JUMPDEST DUP2 DUP2 LT ISZERO PUSH2 0x15AF JUMPI PUSH2 0x15A4 PUSH1 0x0 DUP3 PUSH2 0x1578 JUMP JUMPDEST PUSH1 0x1 DUP2 ADD SWAP1 POP PUSH2 0x1591 JUMP JUMPDEST POP POP JUMP JUMPDEST PUSH1 0x1F DUP3 GT ISZERO PUSH2 0x15F4 JUMPI PUSH2 0x15C5 DUP2 PUSH2 0x1494 JUMP JUMPDEST PUSH2 0x15CE DUP5 PUSH2 0x14A9 JUMP JUMPDEST DUP2 ADD PUSH1 0x20 DUP6 LT ISZERO PUSH2 0x15DD JUMPI DUP2 SWAP1 POP JUMPDEST PUSH2 0x15F1 PUSH2 0x15E9 DUP6 PUSH2 0x14A9 JUMP JUMPDEST DUP4 ADD DUP3 PUSH2 0x1590 JUMP JUMPDEST POP POP JUMPDEST POP POP POP JUMP JUMPDEST PUSH1 0x0 DUP3 DUP3 SHR SWAP1 POP SWAP3 SWAP2 POP POP JUMP JUMPDEST PUSH1 0x0 PUSH2 0x1617 PUSH1 0x0 NOT DUP5 PUSH1 0x8 MUL PUSH2 0x15F9 JUMP JUMPDEST NOT DUP1 DUP4 AND SWAP2 POP POP SWAP3 SWAP2 POP POP JUMP JUMPDEST PUSH1 0x0 PUSH2 0x1630 DUP4 DUP4 PUSH2 0x1606 JUMP JUMPDEST SWAP2 POP DUP3 PUSH1 0x2 MUL DUP3 OR SWAP1 POP SWAP3 SWAP2 POP POP JUMP JUMPDEST PUSH2 0x1649 DUP3 PUSH2 0xD3F JUMP JUMPDEST PUSH8 0xFFFFFFFFFFFFFFFF DUP2 GT ISZERO PUSH2 0x1662 JUMPI PUSH2 0x1661 PUSH2 0xB9F JUMP JUMPDEST JUMPDEST PUSH2 0x166C DUP3 SLOAD PUSH2 0x1463 JUMP JUMPDEST PUSH2 0x1677 DUP3 DUP3 DUP6 PUSH2 0x15B3 JUMP JUMPDEST PUSH1 0x0 PUSH1 0x20 SWAP1 POP PUSH1 0x1F DUP4 GT PUSH1 0x1 DUP2 EQ PUSH2 0x16AA JUMPI PUSH1 0x0 DUP5 ISZERO PUSH2 0x1698 JUMPI DUP3 DUP8 ADD MLOAD SWAP1 POP JUMPDEST PUSH2 0x16A2 DUP6 DUP3 PUSH2 0x1624 JUMP JUMPDEST DUP7 SSTORE POP PUSH2 0x170A JUMP JUMPDEST PUSH1 0x1F NOT DUP5 AND PUSH2 0x16B8 DUP7 PUSH2 0x1494 JUMP JUMPDEST PUSH1 0x0 JUMPDEST DUP3 DUP2 LT ISZERO PUSH2 0x16E0 JUMPI DUP5 DUP10 ADD MLOAD DUP3 SSTORE PUSH1 0x1 DUP3 ADD SWAP2 POP PUSH1 0x20 DUP6 ADD SWAP5 POP PUSH1 0x20 DUP2 ADD SWAP1 POP PUSH2 0x16BB JUMP JUMPDEST DUP7 DUP4 LT ISZERO PUSH2 0x16FD JUMPI DUP5 DUP10 ADD MLOAD PUSH2 0x16F9 PUSH1 0x1F DUP10 AND DUP3 PUSH2 0x1606 JUMP JUMPDEST DUP4 SSTORE POP JUMPDEST PUSH1 0x1 PUSH1 0x2 DUP9 MUL ADD DUP9 SSTORE POP POP POP JUMPDEST POP POP POP POP POP POP JUMP INVALID LOG2 PUSH5 0x6970667358 0x22 SLT KECCAK256 MSIZE 0xAC PC 0xBC BASEFEE 0x23 TIMESTAMP 0xC9 0xAB PUSH31 0xB556E8592E96CEF96176B5FAAF57DD292CE7A706D8AB64736F6C6343000813 STOP CALLER "
				},
				"gasEstimates": {
					"creation": {
						"codeDepositCost": "1192000",
						"executionCost": "1241",
						"totalCost": "1193241"
					},
					"external": {
						"addPrescription(string,string,string,string,uint256)": "infinite",
						"consentLog(string,uint256)": "infinite",
						"getConsentLog(string)": "infinite",
						"getHistory(string)": "infinite",
						"manageConsent(string,string,string,uint256,string)": "infinite",
						"records(string,uint256)": "infinite"
					}
				},
				"methodIdentifiers": {
					"addPrescription(string,string,string,string,uint256)": "adaca9ed",
					"consentLog(string,uint256)": "c4734a09",
					"getConsentLog(string)": "05f3112d",
					"getHistory(string)": "e360736e",
					"manageConsent(string,string,string,uint256,string)": "7079d3a0",
					"records(string,uint256)": "3b51650d"
				}
			},
			"storageLayout": {
				"storage": [
					{
						"astId": 28,
						"contract": "MedicalRecord.sol:MedicalRecord",
						"label": "records",
						"offset": 0,
						"slot": "0",
						"type": "t_mapping(t_string_memory_ptr,t_array(t_struct(Prescription)11_storage)dyn_storage)"
					},
					{
						"astId": 34,
						"contract": "MedicalRecord.sol:MedicalRecord",
						"label": "consentLog",
						"offset": 0,
						"slot": "1",
						"type": "t_mapping(t_string_memory_ptr,t_array(t_struct(Consent)22_storage)dyn_storage)"
					}
				],
				"types": {
					"t_array(t_struct(Consent)22_storage)dyn_storage": {
						"base": "t_struct(Consent)22_storage",
						"encoding": "dynamic_array",
						"label": "struct MedicalRecord.Consent[]",
						"numberOfBytes": "32"
					},
					"t_array(t_struct(Prescription)11_storage)dyn_storage": {
						"base": "t_struct(Prescription)11_storage",
						"encoding": "dynamic_array",
						"label": "struct MedicalRecord.Prescription[]",
						"numberOfBytes": "32"
					},
					"t_mapping(t_string_memory_ptr,t_array(t_struct(Consent)22_storage)dyn_storage)": {
						"encoding": "mapping",
						"key": "t_string_memory_ptr",
						"label": "mapping(string => struct MedicalRecord.Consent[])",
						"numberOfBytes": "32",
						"value": "t_array(t_struct(Consent)22_storage)dyn_storage"
					},
					"t_mapping(t_string_memory_ptr,t_array(t_struct(Prescription)11_storage)dyn_storage)": {
						"encoding": "mapping",
						"key": "t_string_memory_ptr",
						"label": "mapping(string => struct MedicalRecord.Prescription[])",
						"numberOfBytes": "32",
						"value": "t_array(t_struct(Prescription)11_storage)dyn_storage"
					},
					"t_string_memory_ptr": {
						"encoding": "bytes",
						"label": "string",
						"numberOfBytes": "32"
					},
					"t_string_storage": {
						"encoding": "bytes",
						"label": "string",
						"numberOfBytes": "32"
					},
					"t_struct(Consent)22_storage": {
						"encoding": "inplace",
						"label": "struct MedicalRecord.Consent",
						"members": [
							{
								"astId": 13,
								"contract": "MedicalRecord.sol:MedicalRecord",
								"label": "granteeId",
								"offset": 0,
								"slot": "0",
								"type": "t_string_storage"
							},
							{
								"astId": 15,
								"contract": "MedicalRecord.sol:MedicalRecord",
								"label": "accessLevel",
								"offset": 0,
								"slot": "1",
								"type": "t_string_storage"
							},
							{
								"astId": 17,
								"contract": "MedicalRecord.sol:MedicalRecord",
								"label": "duration",
								"offset": 0,
								"slot": "2",
								"type": "t_uint256"
							},
							{
								"astId": 19,
								"contract": "MedicalRecord.sol:MedicalRecord",
								"label": "status",
								"offset": 0,
								"slot": "3",
								"type": "t_string_storage"
							},
							{
								"astId": 21,
								"contract": "MedicalRecord.sol:MedicalRecord",
								"label": "timestamp",
								"offset": 0,
								"slot": "4",
								"type": "t_uint256"
							}
						],
						"numberOfBytes": "160"
					},
					"t_struct(Prescription)11_storage": {
						"encoding": "inplace",
						"label": "struct MedicalRecord.Prescription",
						"members": [
							{
								"astId": 4,
								"contract": "MedicalRecord.sol:MedicalRecord",
								"label": "doctorName",
								"offset": 0,
								"slot": "0",
								"type": "t_string_storage"
							},
							{
								"astId": 6,
								"contract": "MedicalRecord.sol:MedicalRecord",
								"label": "disease",
								"offset": 0,
								"slot": "1",
								"type": "t_string_storage"
							},
							{
								"astId": 8,
								"contract": "MedicalRecord.sol:MedicalRecord",
								"label": "cid",
								"offset": 0,
								"slot": "2",
								"type": "t_string_storage"
							},
							{
								"astId": 10,
								"contract": "MedicalRecord.sol:MedicalRecord",
								"label": "timestamp",
								"offset": 0,
								"slot": "3",
								"type": "t_uint256"
							}
						],
						"numberOfBytes": "128"
					},
					"t_uint256": {
						"encoding": "inplace",
						"label": "uint256",
						"numberOfBytes": "32"
					}
				}
			},
			"userdoc": {
				"kind": "user",
				"methods": {},
				"version": 1
			}
		}
	}
}